:020000040800F2
:1000000000000220594B0008A54B0008A54B000832
:10001000A54B0008A54B0008A54B000800000000F8
:10002000000000000000000000000000A54B0008D8
:10003000A54B000800000000A54B0008A54B0008D8
:10004000A54B0008A54B0008A54B0008A54B0008D0
:10005000A54B0008A54B0008A54B0008A54B0008C0
:10006000A54B0008A54B0008A54B0008A54B0008B0
:10007000A54B0008A54B0008A54B0008A54B0008A0
:10008000A54B0008A54B0008A54B0008AD1A0008B9
:1000900085090008A54B0008FD1D0008A54B0008B8
:1000A000A54B0008BD060008A54B0008A54B00089D
:1000B000A1250008A54B0008A54B0008A54B00088A
:1000C000A54B0008A54B0008A54B0008A54B000850
:1000D000A54B0008A54B0008A54B0008A54B000840
:1000E000A54B0008A54B0008A54B0008A54B000830
:1000F000A54B0008A54B0008A54B0008A54B000820
:10010000A54B0008A54B0008A54B0008A54B00080F
:10011000A54B0008A54B0008A54B0008A54B0008FF
:10012000A54B0008A54B0008A54B0008A54B0008EF
:10013000A54B0008A54B0008A54B0008511C000862
:10014000150A0008A54B0008411F000815450008C6
:10015000A54B0008A54B0008A54B0008A54B0008BF
:10016000A54B0008A54B0008A54B0008A54B0008AF
:10017000A54B0008A54B0008A54B00080000000097
:08018000A54B0008A54B000887
:100188000348044B834202D0034B03B1184770471E
:10019800380000203800002000000000054806490B
:1001A8000B1AD90F01EBA301491002D0034B03B17D
:1001B8001847704738000020380000200000000071
:1001C80010B5064C237843B9FFF7DAFF044B13B197
:1001D8000448AFF300800123237010BD38000020CD
:1001E80000000000A84B000808B5044B1BB10449E7
:1001F8000448AFF30080BDE80840CFE700000000E6
:100208003C000020A84B000870B50D4E0D4D761B24
:10021800B61006D0002455F8043B01349847A6428E
:10022800F9D1094E094D761B04F0BAFCB61006D078
:10023800002455F8043B01349847A642F9D170BD13
:10024800E44C0008E44C0008E84C0008E44C0008C2
:10025800844641EA000313F003036DD1403A41D3C9
:1002680051F8043B40F8043B51F8043B40F8043B88
:1002780051F8043B40F8043B51F8043B40F8043B78
:1002880051F8043B40F8043B51F8043B40F8043B68
:1002980051F8043B40F8043B51F8043B40F8043B58
:1002A80051F8043B40F8043B51F8043B40F8043B48
:1002B80051F8043B40F8043B51F8043B40F8043B38
:1002C80051F8043B40F8043B51F8043B40F8043B28
:1002D80051F8043B40F8043B51F8043B40F8043B18
:1002E800403ABDD2303211D351F8043B40F8043BB8
:1002F80051F8043B40F8043B51F8043B40F8043BF8
:1003080051F8043B40F8043B103AEDD20C3205D3C7
:1003180051F8043B40F8043B043AF9D2043208D0BF
:10032800D2071CBF11F8013B00F8013B01D30B8831
:1003380003806046704700BF082A13D38B078DD00F
:1003480010F003038AD0C3F10403D21ADB071CBFE1
:1003580011F8013B00F8013B80D331F8023B20F84B
:10036800023B7BE7043AD9D3013A11F8013B00F884
:10037800013BF9D20B7803704B7843708B7883700C
:1003880060467047830730B548D0541E002A3FD0D6
:10039800CAB2034601E0013C3AD303F8012B9D079A
:1003A800F9D1032C2DD9CDB245EA05250F2C45EA04
:1003B800054536D9A4F1100222F00F0C03F1200EE6
:1003C800E6444FEA121C03F1100242E9045542E9DF
:1003D800025510327245F8D10CF1010214F00C0FDD
:1003E80003EB021204F00F0C13D0ACF1040323F05A
:1003F80003030433134442F8045B9342FBD10CF02B
:1004080003042CB1CAB21C4403F8012B9C42FBD153
:1004180030BD64461346002CF4D1F9E70346144670
:10042800BFE71A46A446E0E700B5274B5A7B012AE6
:1004380083B036D15A7A0AB1013AD2B2997A8DF894
:10044800002009B10139C9B2DA7A8DF801100AB170
:10045800013AD2B2197B8DF8022009B10139C9B22B
:100468009A7B8DF803100AB1013AD2B2D97B8DF884
:10047800042009B10139C9B21A7C8DF805100AB1F6
:10048800013AD2B25B7C8DF806200BB1013BDBB29E
:100498008DF80730DDE9000103B05DF804EB01F0E9
:1004A80099B84FF4FA7001F023F803464FF4FA7044
:1004B800009301F01DF80190DDE9000103B05DF83B
:1004C80004EB01F087B800BF540000201C4B5A7899
:1004D800FF2A24D0DA78022140F20220FF2AD971BB
:1004E800D974A3F8050007D10122DA70022201218C
:1004F80059701A711A7201E0012AF7D05A7D0D3A23
:10050800D2B2F12A84BF0D225A759A7DFF2A4FF084
:10051800070108BF0222197508BF9A7570470221A2
:1005280040F2022240F2012C40F20510A3F803C069
:1005380059731880D9715A82A3F80520D6E700BFED
:100548005400002008B502F077F80378FF2B00D09C
:1005580008BD02F071F8BDE808404FF48C72002124
:10056800FFF710BF004870470000002000487047A0
:10057800540000200048704754000020014B1868C0
:10058800704700BF7800002008B500F085FA012800
:1005980070D0002000F0FAFD00F0C4FA72B600F046
:1005A8004FFD03F023FC012000F03EFD3A492322D1
:1005B80003F00AFBFFF78AFF022000F035FD04462E
:1005C80002F036F84FF48C720146204603F0FCFA2C
:1005D800FFF7B8FF002000F027FD044600F028FCD4
:1005E80008220146204603F0EFFA00F0C5FC012876
:1005F8004DD000F021FCFFF717FF284B70224FF475
:100608008010012118604FF0007483F81423B02083
:10061800996083F840234FF0805160221C6083F872
:100628001903196083F81C2303F098FE03F0D2FE27
:1006380062B61B481B4A83691B4C43F04003836125
:1006480044F61F6142F2D00003F0E4FBFF2500F0FE
:10065800CBFC256023685A1E226033B101F0CEF925
:1006680023685A1E2260002BF8D100F053F900F0DD
:1006780063F8ECE7BFF34F8F0C490D4BCA6802F4DF
:10068800E0621343CB60BFF34F8F00BFFDE741F635
:10069800FF7000F0ABFCACE75400002000E100E084
:1006A80000000240000001401000002000ED00E0C2
:1006B8000400FA050E4B1A69D20716D51A6922F0FA
:1006C80001021A6172B60B4A00215962136801339C
:1006D800136062B6084B1A7A9B79012A03D0012B62
:1006E80004D100F099BC012BFBD0704700F044B84E
:1006F800000001407800002054000020024A002336
:1007080043621360704700BF78000020014B1860F7
:10071800704700BF7C000020014B1868704700BF7D
:100728007C000020034A136883428CBF1B1A0023F5
:10073800136070477C0000200C4B1A783AB10C48C3
:1007480001784A1CD2B202701B78994200D07047D7
:10075800084B5A6912F0400F9A6903D042F480029C
:100768009A61704742F040029A61F0E784000020E5
:10077800850000200000024008B504F05BF9A0B134
:10078800012810D000F048FC124B1B78DBB1124A4C
:100798001249936989690B4313F0700F0FD093695D
:1007A8005B060CD408BD00F037FC0A4B1B78002B05
:1007B800EDD10B4A936943F040039361E7E7BDE845
:1007C800084000F029BC064A936943F4800393610A
:1007D800DDE700BF8400002000640040006800409E
:1007E800000002402DE9F041474E484BF5795F6A19
:1007F800012D04461BD0062D36D0F37C022B0AD0DF
:10080800FF2B08D000F008FC2146384601F07AFE9C
:100818002046BDE8F0813E4D2868032863D0214674
:10082800384602F043FE28602046BDE8F08100F01B
:10083800F3FB03F015FAA04228BF2046804603F0D8
:1008480015FA4246394603F0F7F9404603F01AFA1A
:1008580003F006FA0028DBD102230120F37102F02D
:100868005DFF2046BDE8F08100F0D6FBFFF754FF9E
:10087800054601F0E1FEC5F58C73A54200EB0302C5
:10088800284628BF204628B37B1CD11A02292FD915
:10089800411E07292CD920F0030CBC443B461146C5
:1008A80053F8045B41F8045B6345F9D120F0030376
:1008B800984207EB030502EB03010BD0FF5CD7540A
:1008C8005A1C904206D902336A784A70984201D974
:1008D800AB788B70FFF726FFFFF71EFF0028BBD011
:1008E8002046BDE8F08102F019FF2046BDE8F081FE
:1008F800013A074400E0013313F8011C02F8011F14
:10090800BB42F8D1E6E700BF540000204089002030
:100918001400002070B5164C2368012B02D0022366
:10092800236070BD0323236002F02CFE02280546D5
:10093800F5D002F0A9FDADB10368B3F52A6F0ED169
:100948000C4D0D4B6E788022012E1A7007D10223B0
:100958006B70EB7002F000FF6E70EE70DFE702F074
:10096800FBFEDCE7044B10221A7002F091FDD6E77B
:1009780014000020540000208400002030B51D4CD5
:10098800E3689B0783B01AD01B4D6B79012B1DD0F0
:100998001A4A0021204600F0DFFD6B78012B0ED1AA
:1009A800EB78012B05D1297901291CD0134801F0D6
:1009B80047FE1249124800F0B1FD042810D10D4A33
:1009C800D36843F02003D36003B030BDFFF7D6FDF2
:1009D8000C4B00900C490022204602F00FFADCE78D
:1009E80000F01AFBEBE7054801F0D8FE0028DDD13E
:1009F800E5E700BF0064004054000020A800002084
:100A080000680040A00000200000014030B51C4CE8
:100A1800E3689B0783B013D01A4DAB79012B16D02E
:100A2800194A0021204600F097FDEB78012B1AD0D7
:100A38001549164800F072FD042801D000F0ECFAC0
:100A48000F4AD36843F02003D36003B030BDFFF7EB
:100A580095FD0F4B00900F490022204602F0CEF979
:100A6800EB78012BE4D1084801F096FE2B79012B95
:100A7800DED10548022101F091FE0028D8D1DFE738
:100A880000680040540000209000002000640040EE
:100A9800880000200000014010B483B000231E4AE3
:100AA80000930193136843F480330121136008E035
:100AB800009B53B9019B013301931368980348BF06
:100AC8000091019BB3F5A06FF2D3009BFBB1124AD2
:100AD800124B5360136843F08073136013689B01D3
:100AE800FCD50F480C49036849F20A4443F0050352
:100AF80003609460936843F0020393608B6803F08B
:100B08000C03082BFAD1002003B010BC7047012059
:100B180003B010BC704700BF00380240042A4007E9
:100B2800003C0240254B26481A6B42F0010210B4E3
:100B38001A631C6B234A44F002041C631C6B44F0C8
:100B480004041C631C6B44F008041C631C6B44F015
:100B580010041C631C6B44F080041C631C6C44F080
:100B680000741C641C6C44F080641C645C6C44F469
:100B780080545C645C6C44F001045C641C6C44F05C
:100B880001041C641C6C44F002041C645C6B44F09B
:100B980080045C631C6C44F080541C645C6C44F4FA
:100BA800804400215C64036A0162436A4162136AFB
:100BB8001162536A10BC5162704700BF003802408E
:100BC8000000024000040240C179A1F13003DBB209
:100BD800092B07D9A1F16103052B00F2AE80A1F121
:100BE8005703DBB28179A1F13002D2B2092A07D9C1
:100BF800A1F16102052A00F29880A1F15702D2B250
:100C080090F805C043EA0211ACF13003DBB2092BBE
:100C180006D9ACF16103052B7FD8ACF15703DBB2E1
:100C280090F804C041EA0322ACF13001C9B20929A5
:100C380006D9ACF16103052B67D8ACF15701C9B2ED
:100C480090F803C042EA0133ACF13002D2B2092A6B
:100C580006D9ACF16102052A4FD8ACF15702D2B2DD
:100C680090F802C043EA0241ACF13003DBB2092B31
:100C780006D9ACF16103052B37D8ACF15703DBB2C9
:100C880090F801C041EA0352ACF13003DBB2092B02
:100C980006D9ACF16103052B1FD8ACF15703DBB2C1
:100CA8000178A1F13000C0B2092842EA036306D9ED
:100CB800A1F16102052A05D8A1F15700C0B243EAA3
:100CC80000707047A1F14102052A9ABFA1F13700CF
:100CD800C0B2FF2043EA00707047ACF14103052B16
:100CE80037D8ACF13703DBB2DAE7ACF14103052BB7
:100CF8002DD8ACF13703DBB2C2E7ACF14102052ACB
:100D08002FD8ACF13702D2B2AAE7ACF14103052BD8
:100D180025D8ACF13701C9B292E7ACF14103052BF4
:100D28001BD8ACF13703DBB27AE7A1F14102052AFF
:100D380011D8A1F13702D2B262E7A1F14103052B24
:100D480003D8A1F13703DBB24CE7FF234AE7FF23BF
:100D580096E7FF23A4E7FF2252E7FF2360E7FF217E
:100D68006EE7FF227CE700BFA0F13002D2B2092A69
:100D780005D9A0F16103052B1BD85738C2B2A1F1E0
:100D88003003DBB2092B05D9A1F16103052B05D886
:100D9800A1F157031B01D8B210437047A1F14103D9
:100DA800052B9DBFA1F137031B01D8B2F0201043DA
:100DB8007047A0F14103052B9ABF3738C2B2FF2212
:100DC800DDE700BF02B3024430B500F1FF3C541E1A
:100DD80000221CF801EF8D184FEA1E13BEF19F0F79
:100DE8008CBF373330332B709CF80030501C03F025
:100DF8000F03092BC0B28CBF37333033023264453E
:100E08000B54D2B2E5D130BD704700BF84460FC93C
:100E18008CE80F006046704784460FC98CE80F00C5
:100E28006046704784460FC98CE80F0060467047DB
:100E380000487047B8000020014B1888704700BF71
:100E4800B8000020014BD878704700BFB8000020D8
:100E5800014B5879704700BFB8000020014B9879C2
:100E6800704700BFB8000020014B9868704700BF6A
:100E7800B8000020014B1869704700BFB800002077
:100E8800014BD868704700BFB800002010B5054A6C
:100E980084B0946912790B4601466846A04704B0AD
:100EA80010BD00BFB800002010B5054A84B0D46951
:100EB80012790B4601466846A04704B010BD00BF32
:100EC800B800002010B5044B84B001461C6A9A791A
:100ED8006846A04704B010BDB800002010B5044B08
:100EE80084B001465C6ADA796846A04704B010BD50
:100EF800B80000200C4B0D4940F6FF7210B446F2C2
:100F0800644C0B4C1880C3E90222C3E90422094847
:100F1800094AA3F806C0C3F80240C3E90611C3E9A9
:100F2800080210BC704700BFB8000020150E00086A
:100F380000006464210E00082D0E0008014BD870D3
:100F4800704700BFB8000020014B5871704700BFC0
:100F5800B8000020014B1871704700BFB80000208E
:100F6800014B9871704700BFB8000020014BD87141
:100F7800704700BFB8000020164B17491A88182A76
:100F880030B440F6FF7212D8144C1548C3F802402A
:100F980046F26445C3E90222C3E90422114ADD800E
:100FA800C3E9080230BC0020C3E9061170470025D8
:100FB800C3E90222C3E904224FF06432084C09480D
:100FC8001D605A601C62586230BC0020C3E90611DB
:100FD800704700BFB8000020150E000800006464C8
:100FE800210E00082D0E0008704700BF094B10B4F1
:100FF800062245F2555400EB80001C6040095A60F7
:101008004AF6AA214CF6CC42986010BC19601A60C6
:10101800704700BF00300040024B4AF6AA221A600F
:10102800704700BF003000400138C0B205289ABFA1
:10103800024B53F820000020704700BFC04B000847
:101048004D494E4A08684E4B20F440500860886865
:1010580020F440508860C86820F44050C860086890
:1010680040F480500860886940F040008861116849
:1010780021F440711160916821F440719160D16848
:1010880021F44071D160916841F440719160916997
:1010980041F4801191611A6822F003021A609A687B
:1010A80022F003029A60DA6822F00302DA601A6812
:1010B80042F001021A601A6A42F001021A621A6AC0
:1010C80042F004021A629A6942F001029A611A68AF
:1010D80022F0C0021A609A6822F0C0029A60DA68A8
:1010E80022F0C002DA601A6842F080021A609A6838
:1010F80042F0C0029A601A6A42F480521A621A6A6E
:1011080042F480421A621A6822F440721A609A689D
:1011180022F440729A60DA6822F44072DA601A683F
:1011280042F400721A609A6842F440729A601A6A2D
:1011380042F480321A621A6A42F480221A621A68E9
:1011480022F440621A609A6822F440629A60DA686F
:1011580022F44062DA601A6842F400621A609A68FF
:1011680042F440629A601A6A42F480121A621A6A59
:1011780042F480021A6270470000024000100240E8
:10118800000402400048704718000020032844D893
:10119800224A5369C3F3810398423ED010B4D368FE
:1011A800DB03FCD41E4C1F4B1C4954605360CB68B6
:1011B800DC03FCD41C4C1D4B184A8C608B60D36834
:1011C800D903FCD45369154923F00C035361CB6848
:1011D800DB03FCD44B69114A8000C0B21843486154
:1011E800D368DC03FCD453690C4943F00203536110
:1011F800CB68D803FCD44B69084A43F001034B6120
:10120800D368D903FCD41369044943F0004313613C
:10121800CB68DB03FCD410BC70477047003C02402D
:1012280023016745AB89EFCD3B2A19087F6E5D4CDA
:101238000B498B88A1F5804C0CEB031201339BB250
:10124800B3F5806F08BF00230CEB001C8B800FCA1E
:101258000CF5804C0CF1180C8CE80F00704700BF9F
:10126800E04000200C49B1F85430A1F5804C0CEB5B
:10127800031201339BB2B3F5806F08BF00235032CD
:101288000CEB001CA1F854300FCA0CF5804C0CF183
:10129800680C8CE80F007047E0800020064AD3886D
:1012A8009088834205D086BF181AC0F58060C01A9E
:1012B80070474FF480607047E0400020074AB2F85A
:1012C8005630B2F85400834205D086BF181AC0F5CC
:1012D8008060C01A70474FF480607047E08000203B
:1012E80010B50E4CE388A28803F1010C1FFA8CFCA0
:1012F800BCF5806F08BF4FF0000C624509D0A4F51B
:10130800804E0EEB031E0FC8A4F806C08EE80F002F
:1013180010BDA3680133A36010BD00BFE0400020EA
:1013280010B5104CB4F856C0B4F854300CF1010E96
:101338001FFA8EFEBEF5806F08BF4FF0000E734592
:101348000BD00FC804EB0C1CACF57E5CACF1300C78
:101358008CE80F00A4F856E010BDA36D0133A36517
:1013680010BD00BFE0800020134B144803F58041F6
:1013780003F50043002210B4A1F8482081F84A2060
:10138800C1E901220E4CCA60A3F8982083F89A207C
:10139800C3E91522DA650B4A0C600B4CCC64C1E931
:1013A80004020A4A0A480B491A650B4A10BCC3F8DA
:1013B8009C20C3E918017047E0000020E9120008EA
:1013C8000064004039120008A512000800680040B7
:1013D800291300086D120008C512000800EB01135C
:1013E80030B40024D3F88051C3F88041D3F8845135
:1013F800C3F88441D3F88851C3F88841D3F88C5195
:10140800C3F88C41948882B00901002C62D1D3F8CA
:101418008041557844EA4554C3F880411478D3F89C
:10142800805104F01F04147045EA4474C3F88041E5
:10143800B2F806C0D3F88441BCF1080F4CEA0404A2
:10144800C3F8844136D80844117AD0F8884121433A
:10145800C0F88811D0F88811547A41EA0421C0F8FC
:101468008811D0F88811947A41EA0441C0F88811AB
:10147800D0F88811D47A41EA0461C0F88811D0F80C
:101488008C41117B2143C0F88C11D0F88C11547B0E
:1014980041EA0421C0F88C11D0F88C11947B41EA00
:1014A8000441C0F88C11D0F88C11D27B41EA026259
:1014B800C0F88C21D3F88021002142F00102C3F842
:1014C80080210191019B5A1C0192002BFAD002B095
:1014D80030BC7047D3F88041156844EAC504C3F8A6
:1014E8008041D3F8804144F00404C3F880419FE769
:1014F800B0F5FA7F82B00DD000231A4619460020B5
:1015080061F3070062F30F2063F3174020F07F4078
:1015180002B07047022309220521F0E738B50C4BC9
:101528001A68904204460D4605D00A4B1A6D94423B
:1015380008D0072038BD1B6908469847054B1A6D27
:101548009442F6D128461B6E9847072038BD00BF45
:10155800E0400020E080002000EB011C10B4DCF823
:10156800B03113F004034FEA011129D0DCF8B0318F
:10157800DB08136001230144DCF8B441D1F8B80159
:101588001072D1F8B8019380030A5372D1F8B831B8
:10159800D4801B0C9372D1F8B83110BC1B0ED372D7
:1015A800D1F8BC311373D1F8BC311B0A5373D1F88D
:1015B800BC311B0C9373D1F8BC311B0ED37370472D
:1015C800DCF8B041640D5470DCF8B041640F14705D
:1015D800D1E700BF70B5944CD4F8003284B023F43E
:1015E8007C5301900091C4F80032D4F8003243F0E3
:1015F8000103C4F80032D4F8003243F46063C4F83D
:1016080000320025D4F80432C4F80452D4F80C325D
:10161800C4F80C52D4F81432C4F81452D4F81C325A
:10162800C4F81C52D4F84032C4F84052D4F84432BA
:10163800C4F84452D4F8B032C4F8B052D4F8B43232
:10164800C4F8B452D4F80C3243F00103C4F80C3295
:10165800D4F80C3243F48043C4F80C32D4F8143272
:10166800C4F81432D4F81C3243F00103C4F81C3215
:10167800D4F81C3243F48043C4F81C32D4F8403206
:10168800C4F84032D4F84432C4F84432D4F80032B2
:1016980023F00103C4F80032FFF766FE6369634A6A
:1016A80043F400436361636943F001036361636961
:1016B8004FF4002143F400636361802011605C4BA8
:1016C80090264FF4800182F81363116082F81603A4
:1016D800596941F400415961596941F00101596161
:1016E800596941F4006159614FF0004103F5CE3367
:1016F8005160042182F83F63916082F842030395A8
:101708001A689DF804109DF805E09DF806C09DF83C
:10171800070022F440321A609A6822F440329A6034
:10172800DA6822F44032DA601A6842F400321A6049
:101738009A6842F440329A605A6A42F001025A6248
:101748005A6A42F008025A621A6822F440221A6061
:101758009A6822F440229A60DA6822F44022DA6019
:101768001A6842F400221A609A6842F440229A6089
:101778005A6A42F010025A625A6A42F080025A6269
:101788002C4A136C43F000731364236843F001037D
:101798002360236823F00203236003956368DB0753
:1017A8000BD440F6FE7205E0039B01330393636894
:1017B800DD0702D4039B9342F6D91B4B5A68D60720
:1017C8004BD5DA6922F47022DA61DA6922F4E00290
:1017D800DA61DA6922F04072DA61DA691143D961B3
:1017E800DA6942EA0E42DA61DA6942EA0C52DA61EF
:1017F800DA6942EA0060D8615A6942F002025A6125
:101808001A6842F040021A601A6842F010021A6020
:101818001A68002122F001021A6003915A68D00761
:1018280013D540F6FE710DE00064004000E100E0D1
:101838000068004000380240039A013203925A6857
:10184800D20702D5039A8A42F6D9684B5A68D1075B
:1018580003D45C6814F0020400D00124644B9DF8A2
:1018680000009DF801E09DF802C09DF80350614E0C
:10187800002102911A6822F040721A609A6822F0D8
:1018880040729A60DA6822F04072DA601A6842F0B0
:1018980000721A609A6842F040729A605A6A42F47A
:1018A80080325A625A6A42F400225A621A6822F056
:1018B80040621A609A6822F040629A60DA6822F000
:1018C8004062DA601A6842F000621A609A6842F46C
:1018D80040529A605A6A42F480125A625A6A42F432
:1018E80000025A62336C414A43F0806333641368E0
:1018F80043F001031360D2F8003443F00103C2F847
:101908000034D2F8003423F00203C2F80034029104
:10191800D2F80434DB0702F580620BD440F6FE717E
:1019280005E0029B013302935368DE0702D4029B51
:101938008B42F6D9304B5E6816F001064FD0DA6953
:101948002A4922F47022DA61DA6922F4E002DA61C3
:10195800DA6922F04072DA61DA691043D861DA692B
:1019680042EA0E42DA61DA6942EA0C52DA61DA696D
:1019780042EA0565DD615A6942F002025A611A6855
:1019880042F040021A601A6842F010021A601A689F
:1019980022F001021A600A6822F001020A6000229D
:1019A80002925A68D5070BD540F6FE7105E0029AF7
:1019B800013202925A68D00702D5029A8A42F6D9B1
:1019C8000D4B586810F0010007D15A68920709D4E6
:1019D8001A6942F0200220461A6104B070BD012045
:1019E80004B070BD304604B070BD00BF0064004054
:1019F8000004024000380240006800402DE9F04F22
:101A0800274C002683B03746B146A4F5804A44F2F5
:101A1800500844F2480BE36C9847B0F5806F08FB18
:101A280007A322D0D4F800C0DCF8082012F0E05F49
:101A38001BD0DCF80850C5F301652B44E9B213F854
:101A48000B2001914FF0010E0846C2B903F80BE0D4
:101A58006369F1449847AA190AEB021202F5804219
:101A6800019920681832FFF7B9FC444406F205468C
:101A78001FB1484603B0BDE8F08F0127CBE7AA198C
:101A88000AEB0212294602F58042022503F80B50A0
:101A98006046183209F10109FFF7A0FCE5E700BF2D
:101AA800E040002038B5664CA1684FF0000361F3B0
:101AB800000313F0010200F08E80A268A068A568F8
:101AC800C2F38004C5F3400262F34103C0F3C000CF
:101AD80064F3820360F3C30301F0010141EA4202A7
:101AE80042EA840242EAC00203F0F003D40743EA60
:101AF80002030CD513F0020100F09480504A5149BA
:101B08009368002043F00103936081F848004C4C2F
:101B1800A1684FF00003090A61F3000313F0010202
:101B28005FD0A268A068A568C2F38024C5F34022EC
:101B380062F34103C0F3C02064F3820360F3C3037C
:101B480001F0010141EA420242EA840242EAC0028B
:101B580003F0F003D00743EA02030AD5990743D5F7
:101B6800374A38499368002043F48073936081F8BA
:101B78004900334CA1684FF00003090C61F30003DE
:101B880013F001022AD0A268A068A468C2F3804CAE
:101B9800C4F3404262F34103C0F3C0406CF38203D4
:101BA80060F3C30301F0010141EA420242EA8C02F8
:101BB80042EAC00203F0F0031343D2070AD59B0799
:101BC80021D51F4A1F499368002043F4803393604E
:101BD80081F84A0038BD104614467DE71046944601
:101BE800E0E710461446ABE71549164A8B68022011
:101BF80043F480738B6082F84900012152F8280B66
:101C0800FFF7ECFBB5E70E480E4A8368022143F460
:101C18008033836082F84A10BDE8384052F8380BA8
:101C2800FFF7DCBB064C074AA368022043F0010318
:101C380082F8480052F8180BA360FFF7CFFB66E75D
:101C480000640040E040002038B5684CA1684FF0BF
:101C5800000361F3000313F0010200F08E80A26814
:101C6800A068A568C2F38004C5F3400262F341038B
:101C7800C0F3C00064F3820360F3C30301F0010101
:101C880041EA420242EA840242EAC00203F0F00357
:101C9800D40743EA02030CD513F0020100F0968042
:101CA800524A53499368002043F00103936081F836
:101CB80098004E4CA1684FF00003090A61F3000335
:101CC80013F001025FD0A268A068A568C2F380245F
:101CD800C5F3402262F34103C0F3C02064F38203DA
:101CE80060F3C30301F0010141EA420242EA8402BF
:101CF80042EAC00203F0F003D00743EA02030AD520
:101D0800990743D5394A3A499368002043F48073C8
:101D1800936081F89900354CA1684FF00003090CD5
:101D280061F3000313F001022AD0A268A068A46836
:101D3800C2F3804CC4F3404262F34103C0F3C04095
:101D48006CF3820360F3C30301F0010141EA42022C
:101D580042EA8C0242EAC00203F0F0031343D207BE
:101D68000AD59B0722D5214A21499368002043F4CC
:101D78008033936081F89A0038BD104614467DE799
:101D880010469446E0E710461446ABE71749184B4F
:101D98008A68186D022442F480728A6003F178021E
:101DA800012183F89940FFF719FBB4E70F48104B5E
:101DB8008268022142F48032826083F89A10186D9A
:101DC80003F18802BDE83840FFF708BB0748084B15
:101DD8008268022442F001028260186D83F89840FC
:101DE80003F16802FFF7FAFA63E700BF00680040F2
:101DF800E08000204B4A536910B54B4C23F4006334
:101E0800E168536190684FF0000360F3000301310B
:101E180013F00103E1604BD0916893689268C3F3B3
:101E2800C003C1F38001DB0053EA810345D13D497A
:101E38008A684FF00003120A62F3000313F00103EB
:101E48005CD08A688B688968C3F3C023C2F3802298
:101E5800DB0053EA820356D132498A684FF0000307
:101E6800120C62F3000313F0010335D08A688B6803
:101E78008968C3F3C043C2F38042DB0053EA82039C
:101E88002FD1284B5A68520703D55A6842F00402EA
:101E98005A60244B9A6912F0700F03D09A6922F0A5
:101EA80070029A611F4A536943F40063536110BD7D
:101EB8001946DB0053EA8103B9D01A491B4A8B68DB
:101EC800206843F00F038B604FF0020C002184F868
:101ED80048C0FFF783FAAAE71A46DB0053EA8203F1
:101EE800CFD01048124A836843F4702383600221DC
:101EF800206884F84A10FFF771FAC2E71A46DB0037
:101F080053EA8203A8D007490A4A8B68206843F439
:101F180070638B604FF0020C012184F849C0FFF711
:101F28005DFA99E700640040E0400020F840002096
:101F380018410020084100204B4A536910B54B4C0A
:101F480023F40063E16D536190684FF0000360F380
:101F58000003013113F00103E1654BD091689368E8
:101F68009268C3F3C003C1F38001DB0053EA810325
:101F780045D13D498A684FF00003120A62F3000315
:101F880013F001035CD08A688B688968C3F3C023A7
:101F9800C2F38022DB0053EA820356D132498A68B1
:101FA8004FF00003120C62F3000313F0010335D065
:101FB8008A688B688968C3F3C043C2F38042DB0038
:101FC80053EA82032FD1284B5A68520703D55A681F
:101FD80042F004025A60244B9A6912F0700F03D041
:101FE8009A6922F070029A611F4A536943F40063A8
:101FF800536110BD1946DB0053EA8103B9D01A4971
:102008001B4A8B68206D43F00F038B604FF0020C66
:10201800002184F898C0FFF7E1F9AAE71A46DB0027
:1020280053EA8203CFD01048124A836843F47023DE
:1020380083600221206D84F89A10FFF7CFF9C2E778
:102048001A46DB0053EA8203A8D007490A4A8B687C
:10205800206D43F470638B604FF0020C012184F80B
:1020680099C0FFF7BBF999E700680040E0800020BD
:102078004881002068810020588100200023012227
:10208800C0E90033C0E96233C0F810234FF434705C
:10209800704700BF0023C0E90033C0E96233C0F8CD
:1020A80010337047F8B51546002A46D00446D0F8D4
:1020B8001003C20715D4030741D5D4F88831C3F5F6
:1020C800B476B5422F4628BF3746002F4AD1B542CD
:1020D80045D90020C4E90000C4E96200C4F810032F
:1020E800F8BD2068B0F5B47FC0F5B4775FD0AF42D3
:1020F80028BF2F460E46002F4AD1D4F88801B0F5E4
:10210800B47F3BD0EB1BC0F5B4759D4206EB0701CD
:1021180028BF1D4620442A4600F5C870FEF798F8E7
:10212800D4F888312B44C4F88831C3F5B4732BB381
:102138002068C0F5B4701844F8BD1046F8BD10F01A
:102148001000CDD02068C0F5B476B5422F4628BF20
:102158003746B7BBB542BCD8C0F5B470F8BDC3F5B7
:10216800B470F8BD234403F5C8703A46FEF770F81A
:10217800D4F888313B44C4F88831A8E7D4F8103340
:1021880023F0010343F00A030020C4F81033F8BD1C
:10219800083020443A46FEF75BF82368BD423B44CA
:1021A8002360AAD8D4F88831C3F5B473BFE7D4F84C
:1021B8008801C0F5B4739D4228BF1D46002DB6D0D6
:1021C800A8E7083020443A46FEF742F82368F81892
:1021D8002060BFE70246D0F81003030705D410F0CB
:1021E800100018BFD2F88C0170475068704700BFC4
:1021F800D0F810331A0707D4DB0646BF0068C0F5CD
:10220800B4704FF4C0707047D0F88801C0F5B4704E
:10221800704700BFD1F810331A0710B538D4DC0660
:1022280001D4002010BDD1E96232A3EB020CBCF14D
:10223800170F2AD901F5C47C08320CEB02035CF8AD
:1022480002209C68D3F804C0D3F80CE0C0F80CE076
:102258000260C0F804C084601A69D3F814C0C0F8DA
:1022680014C00261D1E962301830C1F88C01181A23
:102278003CD00130D5D1D1F810331A0748BF0B68CC
:1022880003D4DB06CDD5D1F88831C3F5B47010BDC1
:10229800D1E90032A3EB020CBCF1170FF5D90832D3
:1022A8008B188A58D3F804C0D3F808E0DC68C460F7
:1022B8000260C0F804C0C0F808E01A69D3F814C076
:1022C800C0F814C00261D1E900031833C01A4B608A
:1022D800CFD1D1F81033486023F0080343F010033E
:1022E8000860C1F810334FF4B47010BDD1F8103342
:1022F800C1F88C0123F0100343F00803C1F88801EA
:10230800C1F810334FF4B47010BD00BF70B57049F8
:10231800704882B0FFF77EFF50BB6D4C2046FFF738
:1023280059FFB0F5907F05D92046FFF761FF0028D7
:1023380040F08E80D4F8102312F0200C2ED1654C7A
:10234800636A33F0FF0375D0E38C092B78D894F8CF
:102358002520002A00F0AA80013AD2B242F2067380
:1023680094F8241084F82520E38494461E461BE044
:10237800594B0421A3FB003020FA01F2050F040D8C
:10238800030B0DEB01008DF804508DF805408DF816
:1023980006308DF8072002F06FFBBEE74D4C002396
:1023A800194663629C461E466568A08BB4F802E035
:1023B800E38B2A1AB2FA82F29E454FEA521228BFDC
:1023C8000022A2BB854232D39E457CD20EF51C5218
:1023D8000F32D21A93B26A1E121A33449BB242F2D7
:1023E8000F70834204D9A3F51C53103B9BB20132F2
:1023F800624442F27B102084C2EB421002EB80025E
:1024080002EB820203EB02139BB28B4228BF1946F0
:102418004FF0804242F27B10A583A4F81EE02CBF47
:102428006384618402B0BDE8704001F0F3BC2A46C1
:102438007346D2E7E68C94F825C094F82410B3E7E5
:102448000A3B9EB294F825C094F82410E684ABE7C2
:10245800D4F810331F4C9B0610D54FF420234FF0AF
:10246800000C63620A2661461C4B1B7D072B02BFCA
:102478000131C9B284F8241089B295E7E18C01F1E1
:102488000A039EB242F210729642E68416D994F874
:102498002520A1F51C53063B0132D2B29EB294F816
:1024A8002410E68484F825209446DDE794F8241067
:1024B800A4F826C084F825C0664675E794F8241069
:1024C80094F825C0D0E7AEEB03039BB22A1A84E741
:1024D800A881002080810020ABAAAAAA540000206D
:1024E80008B50648FFF7D6FD054B0222DA744FF00F
:1024F8008040BDE8084001F0AFBC00BFA8810020C3
:102508005400002010B50A4C0A4601462046FFF741
:10251800C9FDD4F81033990701D55A0700D510BD65
:1025280043F00403C4F81033BDE81040FFF7EEBED3
:10253800A881002010B5144A144B517D144883F823
:10254800241082B000224FF0FF349C6183F82520CC
:10255800DA84FFF793FD0F4B0421A3FB0030020937
:102568004FEA107E4FEA105C030B0DEB01008DF86B
:1025780004E08DF805C08DF806308DF8072002F0CC
:102588007BFA02B010BD00BF5400002080810020FB
:10259800A8810020ABAAAAAA30B54FF0804483B026
:1025A8002369DB0701D403B030BD1B4D204601F081
:1025B80053FC2369EA7C23F00103022A236113D028
:1025C800164B1978402914D01548FFF763FD0223EC
:1025D8002046EB7401F040FC04214FF0FF330DEB73
:1025E8000100019302F048FA03B0BDE83040FEF75D
:1025F80013BD033A012A98BF0A485A788ABF0A4885
:10260800094B084B0949012A08BF1846FEF786FFFF
:10261800FFF77CFEE8E700BF54000020808100201F
:10262800A8810020006400400068004088810020E4
:1026380000487047BC84002000487047BC840020D4
:102648008388012B70B5044600F0838005886DBA35
:10265800AEB2FEF709FCA388861BB6FA86F6012BF4
:102668004FEA561651D02588FEF70AFC6DBAADB26E
:10267800A8424FD0002E4DD1A388012B67D02588C2
:102688006DBAADB2FEF7F6FB451BFEF7F3FB064647
:10269800FEF7EAFBB5FA85F586424FEA551500D0F4
:1026A800B5B9A388012B1ED02588FEF7D7FB6DBAD4
:1026B800ADB2A8421CD0FEF7BFFB062803D0FEF738
:1026C800BBFB0A2818D12046BDE87040FEF706BCBF
:1026D800FEF7B8FBC30747D500212046FEF7E4FB09
:1026E800A388012BE0D12568FEF7B8FBA842E2D108
:1026F8002046FEF7E7FBDEE7FEF79EFB0D28E2D05B
:10270800FEF79AFB1828DED070BD2568FEF7B8FBE7
:10271800A842AFD1FEF796FBC10721D50025FEF7E9
:1027280091FB820717D5FEF787FB0546FEF784FB6A
:10273800042D1DD005281BD0E288002A9CD02C210E
:1027480004F10800FDF71EFEA388012B97D1256828
:1027580098E706687DE729462046FEF797FB8BE752
:10276800FEF776FB0546DAE7FEF772FB0146B4E7AB
:10277800FEF762FB0428DFD0FEF75EFB05287FF436
:102788007BAFE288002A3FF477AF9C2104F1080070
:10279800FDF7F8FD70E700BF704700BF2DE9F04F67
:1027A800974BDB7983B0022B009159D1DFF854A203
:1027B800BAF80030002B57D1BAF80280B8F1000FF0
:1027C8004ED0BAF80630B0F804908E4C01934FF012
:1027D800000C01260DE0238902885BBA52BA9BB22D
:1027E80092B29A420CD00CF1010CC44504F10C04CD
:1027F80036D0B9F1010FEED1A36802689A42F2D13E
:102808000099019A06FA0CF3012902EA030201D1A0
:10281800934225D00099022901D1934220D1C7883B
:10282800002FE0D00AEB0C030CEB4C0B93F808E1FB
:102838000AEB8B0B002306FA03F2591C32EA0E024C
:10284800CDB204D10BEB03020344127B1A72BD42D2
:10285800CBB2F0D30CF1010CC44504F10C04C8D17F
:10286800012003B0BDE8F08F8188BAF8042001295F
:10287800009900F0C980022900F0608101299BD1EC
:102888000188BAF8C84049BA64BA89B2A4B28C427D
:1028980002D1D70740F1B180012B8DD0BAF8CC40D6
:1028A80064BAA4B28C4202D1960740F1A680022BEA
:1028B80082D0BAF8D04064BAA4B28C4202D155078B
:1028C80040F19B80032B3FF477AFBAF8D44064BA49
:1028D800A4B28C4202D1140740F18F80042B3FF43C
:1028E8006BAFBAF8D84064BAA4B28C4202D1D7060A
:1028F80040F18380052B3FF45FAFBAF8DC4064BA3F
:10290800A4B28C4201D1960677D5062B3FF454AF7A
:10291800BAF8E04064BAA4B28C4201D155066CD52D
:10292800072B3FF449AFBAF8E44064BAA4B28C422A
:1029380001D1140661D5082B3FF43EAFBAF8E84040
:1029480064BAA4B28C4201D1D70556D5092B3FF4FD
:1029580033AFBAF8EC4064BAA4B28C4201D1960500
:102968004BD50A2B3FF428AFBAF8F04064BAA4B2AA
:102978008C4201D1550540D50B2B3FF41DAFBAF859
:10298800F44064BAA4B28C4201D1140535D50C2B9D
:102998003FF412AFBAF8F84064BAA4B28C4201D13D
:1029A800D7042AD50D2B3FF407AFBAF8FC4064BA18
:1029B800A4B28C4201D196041FD50E2B3FF4FCAE75
:1029C800BAF8004164BAA4B28C4201D1550414D5B6
:1029D8000F2B3FF4F1AEBAF8044164BAA4B28C42AA
:1029E80001D1D20B09D0102B3FF4E6AEBAF808316A
:1029F8005BBA9BB28B427FF4DFAE002031E700BFA9
:102A080054000020BC840020022900F059810129CB
:102A18007FF4D2AE0168DAF8C8408C4201D1D507FC
:102A2800EBD5012B3FF4C8AEDAF8CC408C4201D18B
:102A38009407E2D5022B3FF4BFAEDAF8D0408C42BF
:102A480001D15707D9D5032B3FF4B6AEDAF8D440F5
:102A58008C4201D11607D0D5042B3FF4ADAEDAF87D
:102A6800D8408C4201D1D506C7D5052B3FF4A4AE7A
:102A7800DAF8DC408C4201D19406BED5062B3FF42F
:102A88009BAEDAF8E0408C4201D15706B5D5072B4A
:102A98003FF492AEDAF8E4408C4201D11606ACD588
:102AA800082B3FF489AEDAF8E8408C4201D1D5050D
:102AB800A3D5092B3FF480AEDAF8EC408C4201D163
:102AC80094059AD50A2B3FF477AEDAF8F0408C4299
:102AD80001D1570591D50B2B3FF46EAEDAF8F440CF
:102AE8008C4201D1160588D50C2B3FF465AEDAF877
:102AF800F8408C4202D1D5047FF57FAF0D2B3FF40F
:102B08005BAEDAF8FC408C4202D194047FF575AFD5
:102B18000E2B3FF451AEDAF800418C4202D1570433
:102B28007FF56BAF0F2B3FF447AEDAF804318B42D9
:102B38007FF442AED30B7FF43FAE5EE70188BAF86C
:102B4800C84049BA64BA89B2A4B28C4202D1D40747
:102B58003FF553AF012B3FF42FAEBAF8CC4064BA1F
:102B6800A4B28C4202D197073FF547AF022B3FF43E
:102B780023AEBAF8D04064BAA4B28C4202D1560748
:102B88003FF53BAF032B3FF417AEBAF8D44064BA15
:102B9800A4B28C4202D115073FF52FAF042B3FF4A6
:102BA8000BAEBAF8D84064BAA4B28C4202D1D406AB
:102BB8003FF523AF052B3FF4FFADBAF8DC4064BA0C
:102BC800A4B28C4202D197063FF517AF062B3FF40B
:102BD800F3ADBAF8E04064BAA4B28C4202D156060A
:102BE8003FF50BAF072B3FF4E7ADBAF8E44064BA02
:102BF800A4B28C4202D115063FF5FFAE082B3FF474
:102C0800DBADBAF8E84064BAA4B28C4202D1D4056C
:102C18003FF5F3AE092B3FF4CFADBAF8EC4064BAF8
:102C2800A4B28C4202D197053FF5E7AE0A2B3FF4D8
:102C3800C3ADBAF8F04064BAA4B28C4202D15605CA
:102C48003FF5DBAE0B2B3FF4B7ADBAF8F44064BAEE
:102C5800A4B28C4202D115053FF5CFAE0C2B3FF440
:102C6800ABADBAF8F84064BAA4B28C4202D1D4042D
:102C78003FF5C3AE0D2B3FF49FADBAF8FC4064BAE4
:102C8800A4B28C4202D197043FF5B7AE0E2B3FF4A5
:102C980093ADBAF8004164BAA4B28C4202D156048A
:102CA8003FF5ABAE0F2B3FF487ADBAF804315BBAF2
:102CB8009BB28B427FF480ADD30B3FF47DAD9CE695
:102CC8000168DAF8C8408C4202D1D6073FF595AEC4
:102CD800012B3FF471ADDAF8CC408C4202D1950754
:102CE8003FF58BAE022B3FF467ADDAF8D0408C424B
:102CF80002D154073FF581AE032B3FF45DADDAF8FE
:102D0800D4408C4202D117073FF577AE042B3FF42D
:102D180053ADDAF8D8408C4202D1D6063FF56DAEF5
:102D2800052B3FF449ADDAF8DC408C4202D1950618
:102D38003FF563AE062B3FF43FADDAF8E0408C4236
:102D480002D154063FF559AE072B3FF435ADDAF8FA
:102D5800E4408C4202D117063FF54FAE082B3FF4F2
:102D68002BADDAF8E8408C4202D1D6053FF545AEE6
:102D7800092B3FF421ADDAF8EC408C4202D19505DD
:102D88003FF53BAE0A2B3FF417ADDAF8F0408C4222
:102D980002D154053FF531AE0B2B3FF40DADDAF8F7
:102DA800F4408C4202D117053FF527AE0C2B3FF4B7
:102DB80003ADDAF8F8408C4202D1D6043FF51DAED7
:102DC8000D2B3FF4F9ACDAF8FC408C4202D19504A3
:102DD8003FF513AE0E2B3FF4EFACDAF800418C420E
:102DE80002D154043FF509AE0F2B3FF4E5ACDAF8F5
:102DF80004318B423FF460AFDEE400BF2DE9F041BF
:102E08001C46884605461746FDF7B0FB069B6360DF
:102E1800D8F82430C3F34E036380174B9D420CBF90
:102E280001230223064663704023237004F108023D
:102E380039462846FEF790FBB37D012B0DD1A389B7
:102E4800012B16D023895BBA9BB2D6F817209A4279
:102E58000CD2D6F81B209A4208D91821204601F036
:102E68000BFE003818BF0120BDE8F0810120BDE845
:102E7800F081A368E9E700BF006400400368013BF4
:102E880070B50446122B0BD8DFE803F02E1F0A0A90
:102E9800112659350A0A0A0A0A0A0A420A0A1100B8
:102EA800022000F03BFCBDE8704000F0F1BA00F0F1
:102EB80055FA0546204600F01DFA0146284600F05E
:102EC800DBF9BDE8704000F0E3BA00F0E1FABDE8D4
:102ED8007040012000F022BC00F052FA00F01EFC05
:102EE800BDE8704000F0D4BA002000F017FCBDE83F
:102EF800704000F0CDBA00F0FDF9626804F10801F5
:102F080000F09AFE00F00AFCBDE8704000F0C0BA7C
:102F180000F0F0F90646204600F020FA054638B1E0
:102F28000024301904F5805400F098FEA542F8D822
:102F3800012000F0F3FBBDE8704000F0A9BA00F0F2
:102F4800FFFD00F0EBFBBDE8704000F0A1BA00BF48
:102F5800554A036893422DE9F04170D00ED9534A7F
:102F6800934225D0013293421BD1FFF765FB042120
:102F780001F082FDBDE8F04100F08ABAA2F6A7325E
:102F880093420BD94A4A93420BD1FDF751FF0821CE
:102F980001F072FDBDE8F04100F07ABA023A9342BE
:102FA80017D8022000F0BAFBBDE8F04100F070BA73
:102FB800FFF742FB0446022001F032FD022001F037
:102FC8002FFDC307F0D54FF48C71204601F054FD56
:102FD800EAE7384A9342044654D0D0F8906036BAAB
:102FE800FEB9022000F09AFB00F052FA204600F0E9
:102FF80081F9074623682F4A934229D02E4A9342E3
:103008004DD02E4B01243046DC7100F035FE384699
:1030180000F042FE204600F081FBBDE8F04100F0E0
:1030280037BA204600F066F9C0F580039E4207468D
:10303800E0D9002000F072FB00F02AFADAE7FDF789
:1030480099FA232101F018FDBDE8F04100F020BAFB
:1030580094F89230002BD4D0C6F30B034FEA1638FD
:10306800002B18BF08F10108B8F1000FC9D03D4680
:1030780000242846013400F0F1FDA04505F58055EF
:10308800F7D1BEE790F88F6090F8902090F89130D3
:10309800360446EA02261E43002EC2D1A1E794F860
:1030A8009430002BADD0D7E7B00B00F0B10B00F097
:1030B800B00A00F0080000F0090000F054000020F9
:1030C8006FF42063184410B50C46072829D8DFE8A8
:1030D80000F00E2814191E230404FDF7B3FE20EA9D
:1030E80014212143C8B2BDE81040FDF727BFA0B2A4
:1030F8000221BDE81040FDF7FDBEBDE81040C8B292
:10310800FDF728BFBDE81040C8B2FDF71DBFBDE8F8
:103118001040C8B2FDF724BFBDE81040C8B2FDF7A3
:1031280025BF10BD10B50368B3F52A6F84B000F051
:10313800898016D9B3F53A6F50D020D940F6A1321C
:10314800934247D14FF48C70FDF7E0FA494B0622C1
:103158000120DA7100F0E2FA04B0BDE8104000F096
:1031680097B96FF420621344092B33D8092B31D84F
:10317800DFE803F013301313131313131C26B3F5EE
:103188002B6F43D040F60732934223D100F032F937
:1031980004B0BDE8104000F07BB9044601460820A1
:1031A80000F022F900285BD104B010BDFDF7DAF970
:1031B800102101F061FC04B0BDE8104000F068B9CE
:1031C800FDF7E0FF102101F057FC04B0BDE8104006
:1031D80000F05EB9022000F0A1FABDE7FDF7CAF9D8
:1031E80004460120FDF720FF2322214600F026FD9A
:1031F8000128AFD0FFF720FA04460220FDF714FF9C
:103208004FF48C72214600F017FDA3E7FDF710FE7E
:103218006946044601220130FDF7D4FD0DF1020193
:1032280020460122FDF7CEFD01A9A01C0622FDF7CC
:10323800C9FD1021684601F01FFC04B0BDE810402C
:1032480000F026B9FDF7F4FD04460020FDF7ECFE7A
:103258000822214600F0F2FC012000F05FFA7BE72B
:1032680004F10800FDF7B0FC01462068FFF728FFCD
:1032780001206FE75400002070B582B01C4D019109
:10328800044640F2FF160EE0019800F09DFC4FF452
:1032980000712846A4F5007401F0EEFBC8B1019B4B
:1032A80003F500730193022001F0BAFBB44294BF06
:1032B800002000F001004FF4007229460028E3D1F5
:1032C800022001F0ADFB002C0CBF002000F0010033
:1032D80008B902B070BD01980549224600F074FC97
:1032E8000348A1B202B0BDE8704001F0C5BB00BF01
:1032F800D48500200268132A034626D016498A423C
:103308001DD090F88E0001224FF0030C9918BCF1E3
:10331800040F91F88C1040EA012002F1FF3153FAB2
:1033280081F1A2F1020291F88C10D2B240EA014078
:1033380004D11A4492F88C3040EA0360704790F840
:10334800930006224FF0040CE0E790F88F00022269
:103358004FF0040CDAE700BF090000F00368132BF4
:103368000AD090F88F3090F8901090F891201804B7
:1033780040EA012010437047D0F8900000BA704727
:103388000268132A034627D016498A421ED090F8AD
:103398008E0001224FF0030C9918BCF1040F91F82C
:1033A8008C1040EA012002F1FF3153FA81F1A2F1B9
:1033B800020291F88C10D2B240EA014004D11A44BA
:1033C80092F88C3040EA036000F048BC90F8930013
:1033D80006224FF0040CDFE790F88F0002224FF02E
:1033E800040CD9E7090000F04B68181AB0FA80F00D
:1033F8004009704738B5D0F88830042B04D0BDE8B0
:103408003840002000F08AB90446FFF773FF2328EC
:10341800F5D894F88F40A31E18BF0123082808D1B7
:103428003BB1174DEB7C022B01D00223EB742C72BD
:1034380038BD13280DD163B1114D2B7A022B03D05F
:1034480002232B72FFF74CF8EC74BDE83840FFF705
:1034580071B80B4A431F012B145406D8012C04D110
:10346800BDE838400748FDF749B90828E0D01328D7
:10347800DED0012000F052F9BDE8384000F008B86D
:103488005400002000000140004870479888002040
:1034980008B5044B044800219C221960FCF772FF10
:1034A800012008BD9488002098880020F8B5324D86
:1034B8002F68BF2F04460E4647D0CB19BF2B3FD8E5
:1034C800002E3BD0DFF8B4E0611C0EEB0703591A5D
:1034D800721E022992B240D9192A3ED9B00804EBCB
:1034E8008000BC46224652F8041B43F8041B824263
:1034F8000CF1040CF7D126F003039BB29E421F4443
:1035080004EB0301D8B217D0E35C0EF80730431C74
:10351800DBB2B34207F1010C0ED2023000F0FE001C
:103528004B780EF80C30B04207F1020C04D28B78BD
:103538000EF80C3007F1030CC5F800C00120F8BDE7
:10354800A1F14006F61AB6B2BAE700279C2239461E
:103558000B482F60FCF716FFB2E7013BA018611E6D
:1035680001F1020C11F8012F03F8012FACEB040C48
:103578008142BC44F4D1DFE794880020D48700203E
:10358800988800202DE9F8435F4F604D3868012383
:103598000026FF2405E01A46824203F10103DBB24C
:1035A80013D85A1ED2B2A91811F8011C4029F2D119
:1035B800AA5C532A10D0452AEDD11A46DE1E824253
:1035C80003F10103F6B2DBB2EBD9B44210D3BF2842
:1035D80004D80220BDE8F8831C46DCE700249C22BE
:1035E80021464B483C60FCF7CDFE2046BDE8F883F9
:1035F800331B062B5ADD04F10807BC4229D22B5D88
:10360800232B53D0402B51D02B195A78232A4DD035
:10361800402A4BD09B78402B48D0232B46D02B19DF
:10362800DA78402A42D0232A40D01A79402A3DD05D
:10363800232A3BD05A79402A38D0232A36D09A797F
:10364800402A33D0232A31D0DB79232B2ED0402BAC
:103658002CD02819FDF7B8FADFF8B490BE42C9F8A3
:10366800000020D306342C4405E06378212B23D0B6
:103678000137B74217D814F8010B2328F5D1D9F828
:103688008880B8F10F0F28D821786078FDF76CFB97
:10369800D9F88830C84401370133B74288F88C001C
:1036A800C9F88830E7D90120BDE8F883184B012212
:1036B8001A600220BDE8F883EA19164C12F8043C97
:1036C80012F8051C1B0443EA016312F8031C0343A8
:1036D80043EA012334EA030304D00123C9F8003084
:1036E800022077E7FDF740FBF61BB0420246C9F817
:1036F8000400F2D1791CC3198B42D4D3294406485B
:10370800FCF7A6FDCFE700BF94880020D4870020EF
:103718009888002000003F40A0880020012806D09B
:1037280003280CD038B10848042101F0A5B907488E
:10373800042101F0A1B90648042101F09DB905480A
:10374800042101F099B900BF3000002034000020A6
:103758002C0000202800002008B50368B3F5206F6E
:1037680013D3B3F5406F0CD303F07043B3F1704F2C
:103778000FD00A48042101F07FF9BDE80840FFF79F
:1037880087BEBDE80840FFF7CDBCBDE80840FFF79D
:1037980075BBBDE80840FFF7DBBB00BF3000002069
:1037A800F8B53E4C3E4E05464FF0FF37A36943F44B
:1037B8008033A3610521304600F028FB304600F035
:1037C80027FBA369013F43F00103A3610FB1C107C0
:1037D800ECD4324C3248A36943F480330621A36108
:1037E80000F014FBA3692E4843F00103A361A36909
:1037F80043F48033A361202100F008FBC5F307419F
:10380800274800F003FBC5F30721254800F0FEFA1E
:10381800E9B22348224D00F0F9FAA369204843F0A1
:103828000103A361A36943F48033A361042100F079
:10383800EDFAA36943F00103A3614FF0FF36A369D2
:1038480043F48033A3610521284600F0DFFA2846B7
:1038580000F0DEFAA369013E43F00103A3610EB153
:10386800C207ECD40D4C0E4D4FF0FF36A36943F45C
:103878008033A3610521284600F0C8FA284600F0E5
:10388800C7FAA369013E43F0010300F00102A361F6
:103898000EB1C307EAD41046F8BD00BF00040240C9
:1038A800003001402DE9F04FB2F5807F87B0CDE9B7
:1038B8000220884640F235816FF48074131923F092
:1038C800FF0A05938A441B0A0AF500720493DFF87D
:1038D8006492DFF864B2994C0092A0F5807301F508
:1038E80080760193019BA3EB08073744A6F5807502
:1038F8004FF0FF3ADBF8183043F48033CBF8183038
:103908000521204600F082FA204600F081FADBF813
:1039180018300AF1FF3A43F00103CBF81830BAF136
:10392800000F01D0C007E5D4DBF8183043F480332A
:10393800CBF818300621204600F068FADBF818307A
:1039480043F00103CBF818304FF48073C9F80830FE
:10395800DBF8183043F48033CBF8183002212046C6
:1039680000F054FAC7F30741204600F04FFAC7F3B6
:103978000721204600F04AFAF9B2204600F046FA3C
:1039880015F8011B204600F041FAB542F8D1DBF8E2
:10399800183043F00103CBF81830DBF8183043F443
:1039A8008033CBF818300421204600F02FFADBF8DA
:1039B800183043F001034FF0FF35CBF81830DBF82F
:1039C800183043F48033CBF818300521204600F036
:1039D8001DFA204600F01CFADBF81830013D43F0D0
:1039E800010300F00102CBF818300DB1C107E6D48D
:1039F80002F0FF030AB9C9F80830009B06F5807683
:103A08009E427FF46FAF039B049903F58070059B7A
:103A180023F0FF03C3180393029BA3F580724B1C8A
:103A280008EB0328C1EB016302EB03230293424C2A
:103A3800424D4FF0FF36A36943F48033A36105215B
:103A4800284600F0E3F9284600F0E2F9A369013EB0
:103A580043F00103A3610EB1C207ECD4364C3748DA
:103A6800A369364D43F48033A361062100F0CEF9F3
:103A7800A369029E314843F00103A361C9F80860B5
:103A8800A36943F48033A361022100F0BFF9039CCA
:103A98002A48C4F3074100F0B9F9C4F307212748BD
:103AA80000F0B4F9E1B2254800F0B0F9002418F8A4
:103AB800011B2846013400F0A9F9B442F7D31E4C83
:103AC8001E48A3691D4D43F00103A361A36943F494
:103AD8008033A361042100F099F9A36943F001033D
:103AE800A3614FF0FF36A36943F48033A361052136
:103AF800284600F08BF9284600F08AF9A369013EB0
:103B080043F0010300F00102A3610EB1C307EAD438
:103B180002F0FF0332B90020C9F8083007B0BDE849
:103B2800F08F1AB9002007B0BDE8F08FDFF80490D5
:103B38007DE700BF348900200004024000300140C6
:103B480070B51F4C1F48A3691E4D43F480330621EE
:103B5800A36100F05BF9A3691A4843F00103A3616C
:103B6800A36943F48033C721A36100F04FF9A36927
:103B7800144843F00103A361A36943F48033A361AC
:103B8800042100F043F9A36943F00103A3614FF056
:103B9800FF36A36943F48033A3610521284600F06A
:103BA80035F9284600F034F9A369013E43F00103D2
:103BB80000F00102A3610EB1C307EAD4104670BD3C
:103BC8000004024000300140F8B5184FBA600AB945
:103BD8000020F8BD0C4616498B6943F4803306462D
:103BE8008B6114480321A51800F010F9C6F30741AA
:103BF800104800F00BF9C6F307210E4800F006F94B
:103C0800F1B20C480B4E00F001F9304600F000F913
:103C180004F8010BAC42F8D1054A9369002143F03E
:103C28000103B96000209361F8BD00BF348900200A
:103C38000004024000300140FFF734BE70B504466E
:103C48000D461646FFF7ACFD012806D03246294638
:103C58002046BDE87040FFF725BE70BDFFF7A0BD48
:103C6800014B5868704700BF34890020014B186821
:103C7800704700BF34890020014B5860704700BF6F
:103C880034890020034BD3E900120144101AC3E918
:103C98000010704734890020014B1860704700BF3E
:103CA8003489002010B400240460446004689DF83E
:103CB80004C02343036044689DF8083023434360ED
:103CC80079B9036843F004030360036843F03803D9
:103CD8000360036843F480730360036843F400736C
:103CE800036003684CEA03030360036823F00203DC
:103CF80003600368012A23F00103036005D0036809
:103D080010BC43F04003036070474368104A43F017
:103D180080034360436843F0400343604368904234
:103D280043F0200343600AD00A4B98420BD00A4B59
:103D38009842E4D1094B4FF400225A60DFE7074B61
:103D480008225A60DBE7054B10225A60D7E700BF0C
:103D58000030014000380040003C004000E100E035
:103D680000B54FF0000C40F6FE7E1FFA8CF3826817
:103D7800734582F002028CBF0023012313EA520329
:103D88000CF1010CF1D1C16040F6FE7C9AB262459B
:103D980081688CBF002201228A4303F10103F5D117
:103DA800C068C0B25DF804FB002140F6FE7C8BB20F
:103DB8008268634582F002028CBF0023012313EA64
:103DC800520301F10101F2D1FF22C26040F6FE7CEC
:103DD8009AB2624581688CBF002201228A4303F1AE
:103DE8000103F5D1C068C0B2704700BF00B5002319
:103DF80083B0CDE9003304481A461946FFF752FF4D
:103E080003B05DF804FB00BF00300140FFF7A8BF16
:103E1800FFF7CABF00239062D1625362136843F070
:103E280080031360136843F004031360136823F0DE
:103E380002031360536843F020035360536943F04F
:103E480001035361D36843F00103D360136843F05F
:103E580001031360704700BF036823F00103036088
:103E6800C36823F00103C360704700BF70B500F159
:103E7800207512F0030C05F148054FEA451518BFE7
:103E88004FF0010C1CEB920CAE6982B00DD000F51E
:103E9800A02E0EF1010E4FEA0E3E0023013351F819
:103EA800044BCEF800409C45F8D178B1002301932B
:103EB80044F6206102E0AB699E4207D0019B0133C2
:103EC8008B420193F7D9002002B070BD064BC0EBBE
:103ED800C00003EB80030120DC68D98814448A1AE7
:103EE800DC60DA8002B070BD40890020F8B5214C52
:103EF800C0EBC00C04EB8C0CBCF80650FDB9BCF848
:103F08000240022C1BD01C4F3E6816F0080402D059
:103F18002C462046F8BD002840F23F2508BF7F25E3
:103F2800AA42F6D872B1DCF81030CCF80C1046F082
:103F38000806ACF806203E6001249847E9E700240B
:103F48002046F8BD00F1207348335B014FF400228E
:103F58001C611A611A69D20CD2041A611A6842F0FB
:103F680004421A60D3F8002242F004420124C3F844
:103F78000022CEE74089002094990020384B9A8887
:103F880032B11988012968D042F22101884201D052
:103F98000120704710B4334C0121206819809968BA
:103FA80040F00060891A2060012A996002F1FF3010
:103FB8000C78988083B02CD048788DF80100022ABC
:103FC800A2F10200988024D088788DF80200032A94
:103FD800A2F1030098801CD0C8788DF80300042A49
:103FE800A2F10400988014D008798DF80400052AFD
:103FF800A2F1050098800CD048798DF80500062AB2
:10400800A2F10600988004D089798DF80610073A45
:104018009A80154A9DF801009179507008299DF8F9
:104028000400147018BF9DF806109DF802C09DF892
:10403800034010719DF8050082F802C0D4705071D9
:1040480018BF9171074A002119801368012043F0B5
:104058000443136003B010BC70470020704700BFD2
:1040680040890020000B00509C9900202DE9F04F5A
:104078009F4EC0EBC00906EB890983B0B9F802303E
:10408800012B04466BD0B9F806704FEAC008DFB9B7
:10409800022B00F0338100F12074583464019549F3
:1040A80023680A6843F004432360A4F5007422F0EF
:1040B80008022368A9F8027043F000630A602360CD
:1040C800012003B0BDE8F08F00280CBF40224FF458
:1040D80000723F2F4FD800F1207303F148056D019E
:1040E80000930123A9F8023047F400232B612B68C1
:1040F800DFF804A243F0044301282B6011D1D0E07B
:10410800B9F80630DAF82020DAF83020DAF830206A
:10411800286143F400232B612B6843F004432B6090
:10412800AB69D9F80C103A462046FFF79FFE0028E5
:10413800E6D0704A009F136858377F0123F00803C0
:104148001360A8EB04043B6806EB840600220120F8
:1041580043F004433B60728003B0BDE8F08F00F188
:104168002074583464010020236843F0044323601A
:1041780003B0BDE8F08F974228BF174617F03F0AF3
:1041880000F1207318BF4FF0010A03F148056D01D3
:104198000AEB971A47EACA4A00930123A9F80230A2
:1041A800C5F810A02B68BB4643F004432B600128D8
:1041B8000BF03F03504F01930BD152E03B6A3B6B2E
:1041C8003B6B2861C5F810A02B6843F004432B60B3
:1041D800AB69D9F80C105A462046FFF747FE00286D
:1041E800ECD04FF0A04160230B6144F620630A69CC
:1041F800900601D5013BFAD1A8EB040306EB830333
:10420800019ADB8852EA030B93D12B682B692B693F
:10421800C5F810B04FF400232B612B69DB0CDB04CD
:104228002B612B6843F004432B602B69002BFCD1D6
:10423800D5F800222F4942F00442A8EB0404C5F83F
:10424800002206EB84062A6873800B6842F000623D
:104258002A6023F008032A680B6001202B692B6968
:104268002FE7B16A5A460120FFF700FE0028B8D1AF
:104278003B6A3B6B3B6B2861C5F810A02B6843F089
:1042880004432B60AB690F2BEBD94FF0A0406023A0
:10429800036144F6206301698A06E2D5013BFAD13D
:1042A800DFE7B16A3A460120FFF7E0FD00287FF416
:1042B80040AFDAF82030DAF83030DAF83030738C82
:1042C800286143F400232B612B6843F004432B60DF
:1042D800AB690F2BE5D94FF0A0406023036144F68A
:1042E800206301698A06DCD5013BFAD1D9E700BF12
:1042F80040890020949900200009005000F12073A3
:1043080048335B014FF400221F611A611A69D20C0D
:10431800D2041A611A6842F004421A601A69002A23
:10432800FCD1D3F80012A8EB040441F00441C3F80F
:10433800001206EB8406084C19687280226841F066
:104348000061196022F00802196822601A691B6965
:10435800012003B0BDE8F08F949900201C4B1A6827
:1043680022F440021A601A6842F400021A609A683D
:1043780022F440029A609A6842F440029A60DA682D
:1043880022F44002DA605A6A42F400525A625A6AC7
:1043980042F400425A621A6822F040721A601A689F
:1043A80042F000721A609A6822F040729A609A6825
:1043B80042F040729A60DA6822F04072DA605A6A13
:1043C80042F400325A625A6A42F400225A62704732
:1043D8000000024030B43F4C3F48404D4FF0A043EE
:1043E8000022226001214FF4041499609D613C4928
:1043F8009C6302244460C3F8002ED960DC68394904
:1044080024F47054DC60DC6844F4C054DC60242478
:104418005C6204F580149C62334CC3F80441C3F811
:104428000821C3F80C21C3F81021C3F81421C3F8DC
:104438001821C3F81C21C3F82021C3F82421C3F88C
:104448002821C3F82C21C3F83021C3F83421C3F83C
:104458003821C3F83C21C3F840210A610C6944F4AF
:1044680000240C610C6944F040040C610C6944F0B0
:10447800C0440C610C6844F004440C6001684FF0BF
:10448800FF3441F0030101605C614468174B18492F
:1044980024F002044460174C5963C3E906121965F5
:1044A8009C6015491548164C58615C6215481A629B
:1044B8001024C3E90022C3E90E22186381F843439C
:1044C80008201A64104A886030BC1A61DA629A645B
:1044D800704700BF949900200008005018100C0085
:1044E80040000040000B005034000C0140890020BF
:1044F800F53E0008A899002000E100E0853F00088B
:10450800B0990020114B0008754000082DE9F043D0
:104518004FF0A043A1B05A6912F0080238D1586987
:1045280010F480506FD15C6914F480240AD15A6960
:1045380012F4002240F08F805969C9064FD421B087
:10454800BDE8F083A24B9C69E7070ED5D3F8085164
:10455800EE0702D59F4B1B6998474FF0A0429E4932
:10456800536903F4802353618D60A007E7D59A4C03
:10457800A36AD907E3D5974B0120DB6A98474FF028
:10458800A0420121536903F480235361A162D6E755
:10459800D3F83029914CD3F83079D3F82069D3F87F
:1045A80028C98F4B21881B888B420FD08D488E4D90
:1045B8000068C2F312023D4000F008002A4302439B
:1045C80004D1F643F60F16EADC1270D14FF0A04280
:1045D800536903F00803536121B0BDE8F083186AFA
:1045E8009969C0F3434421F01001022C996100F04D
:1045F8002181062C00F0A8804FF0A042936943F077
:10460800100393619BE75969764C012001F48051AE
:10461800596120606E495D695A614FF0031409239E
:10462800CC614B6108610868704B6B4C20F4FE60EC
:1046380008606F486F49206219621A631A6B6E49E5
:1046480042F400221A631A6B42F040021A63216492
:1046580021B0BDE8F0835A695D4E02F400225A6128
:10466800B569EA0307D5614B9F683B073CD4FE0751
:1046780013D45E4B9F60AC037FF561AF5B4DAC6AB2
:10468800E00707D5534B01201B6B98472B6A43F073
:1046980004432B62554B9C6251E74E4B00205B69EB
:1046A8009847524A136843F004431360E1E78B428A
:1046B8008CBF5A1ACA1A92B2B2F5007F28BF4FF4BB
:1046C80000725318B3F5805FACBF00239BB24B4810
:1046D8002380404BA8BFC1F580525B6B0144A8BF43
:1046E80092B20120984771E7DFF8149100947C2278
:1046F800214601A8B9F80680FBF744FEB9F8000086
:10470800B0F5106F00F0248100F2E080B0F5A06FE2
:1047180000F02281B0F5D06F40F0D180B9F80230B6
:1047280040F20532934200F23881B3F5407FC0F081
:104738001F816FF4407C6344042B00F24E81DFE854
:1047480003F0392B1D0A6B002E4A2D4B1168196096
:1047580012685A6050E7B8F1160F6B4628BF4FF041
:104768001608184628491B4E4246FBF771FD0346BA
:10477800B469424619460020A04778E7B8F11A0FF5
:104788006B4628BF4FF01A0818462049114E42467A
:10479800FBF75EFD0346EBE7B8F12C0F6B4628BF2D
:1047A8004FF02C0818461A490A4E4246FBF750FDAE
:1047B8000346DDE7B8F1260F6B4628BF4FF0260801
:1047C80018461449034E4246FBF742FD0346CFE71D
:1047D800000800504089002000090050A4990020DA
:1047E800389A0020949900200000F81F000B005010
:1047F800408048084080088408808C0894890020FC
:10480800309A0020001000501C4C0008AC4C0008E6
:10481800804C0008584C0008B8F11C0F6B4628BFA4
:104828004FF01C0818467449744E4246FBF710FDB9
:1048380003469DE747F6F07318423FF4DDAE10F0EB
:10484800300300F00F0518BF0123C0F30A176B4EA1
:10485800C0F388101844C5EBC50306EB83034FEA81
:10486800C50C9988D3F808E0CB19802B59D9012DAC
:1048780057D1634B3284736200283FD0DFF88081C0
:10488800604C43460132216843F8041B9042F9D832
:104898000028ACEB05024FEA800006EB820208BF55
:1048A8000420404490604DBBACEB050506EB850643
:1048B8000EEB0703B288B3601744B7809CE6B0F5E7
:1048C800817F3FF4D4AE4D4E6B4651E742F2A113BF
:1048D80098422AD042F22123984204D1474E4FF001
:1048E80000086B4644E742F221039842434EF8D150
:1048F800736998474FF000086B4639E705F1207354
:1049080058335B0100221A611A6942F400221A61C5
:104918001A6942F040021A611A6842F004421A60A9
:10492800C2E7F0460028ABD1BDE7B8F1070F6B46E8
:1049380028BF4FF007083449304E42461846FBF767
:1049480087FC32490A6842F0040203460A600FE70E
:104958002A4EA0466B460BE7B9F80220336843EAB3
:1049680002132A4A3360136843F002031360AAE76C
:10497800B3F5807F23D0B3F5007F7FF478AEB8F12C
:10498800430F6B4628BF4FF04308184620491B4E7B
:104998004246FBF75DFC0346EAE6B3F5C06F7FF4D9
:1049A80066AEB8F10A0F6B4628BF4FF00A081846E2
:1049B8001849124E4246FBF74BFC0346D8E6B8F1BD
:1049C800120F6B4628BF4FF01208184612490B4EBB
:1049D8004246FBF73DFC0346CAE6B8F1040F6B46B6
:1049E80028BF4FF0040818460C49044E4246FBF70E
:1049F8002FFC0346BCE600BFC84C000840890020D5
:104A0800B0990020001000509C9900209499002033
:104A1800D84B0008484C0008344C0008544C000897
:104A2800034B1B68184214BF01200020704700BFC9
:104A3800949900200C490B6813F002000CD00B4A23
:104A48000B4810B494680B4A22400468944204D07E
:104A5800026010BC02207047704723F00203012057
:104A680010BC0B60704700BF9499002000080050EC
:104A78009899002000FF3F0099B32DE9F8431F4F94
:104A88001F4B3D881B889D4206460C4609D08CBFAB
:104A9800EB1A5B1BC3F580539C4206D90020BDE886
:104AA800F8834FF480539C42F8D805EB0408B8F516
:104AB800805F18DBDFF84C80C5F5805908EB0500EE
:104AC800A5F580554A4631462C44FBF7C1FB06EB59
:104AD800090122464046FBF7BBFB3C800120BDE8AC
:104AE800F883012070470748224631462844FBF7DF
:104AF800AFFBA7F800800120BDE8F883389A0020B2
:104B0800A49900209489002038B50F4B9A8B012A6C
:104B180018D05A6A0446188C0025121A5A621D8445
:104B2800FBF760FE094B1D631A6B42F400221A63FF
:104B38001A6B42F040021A631A6A42F00442204695
:104B48001A6238BD002038BD40890020000B005093
:104B5800DFF830D0002103E00B4B5B5843500431A1
:104B68000A480B4B42189A42F6D30A4A02E000233D
:104B780042F8043B084B9A42F9D3FBF745FBFBF795
:104B880003FD704700000220EC4C000800000020E4
:104B980038000020380000203C9A0020FEE7000082
:104BA800F8B500BFF8BC08BC9E467047F8B500BF12
:084BB800F8BC08BC9E467047E2
:104BC000000001000002010000000200FCFF0200E2
:104BD00000000300FCFF030009024300020100C0C3
:104BE0003209040000010202010005240010010541
:104BF00024010001042402020524060001070582A5
:104C00000308001009040100020A00000007050162
:104C10000240000007058102400000001603430027
:104C200044004300200043006F006E0066006900EE
:104C30006700000012010002020200408304405796
:104C400000020102030100000A0600020000004009
:104C500001000000040309042603530054004D0022
:104C60006900630072006F0065006C0065006300FE
:104C7000740072006F006E00690063007300000032
:104C80002C03530054004D00330032002000560026
:104C9000690072007400750061006C002000430020
:104CA0006F006D0050006F00720074001A03340032
:104CB0003800000045003700340046003700360059
:104CC00033003000380000001C0343004400430060
:104CD000200049006E0074006500720066006100EB
:044CE0006300650008
:044CE400F1010008D2
:044CE800C9010008F6
:104CEC0076312E32302E30332E32342E303030306E
:104CFC00FF000000020000004634303756455436A1
:104D0C005F44564252445F4124425324244552246A
:084D1C0024444C24244F4B24D5
:0400000508004B594B
:00000001FF
