:020000040800F2
:10000000104600248D0300089103000893030008A4
:1000100095030008970300089903000800000000FA
:100020000000000000000000000000009B0300082A
:100030009D030008000000009F030008A1030008C2
:10004000A3030008A3030008A3030008A3030008F8
:10005000A3030008A3030008A3030008A3030008E8
:10006000A3030008A3030008A3030008A3030008D8
:10007000A3030008A3030008A3030008A3030008C8
:10008000A3030008A3030008A3030008190A00083B
:10009000590A0008A3030008A3030008A3030008EB
:1000A000A3030008A3030008A3030008A303000898
:1000B000411B0008A3030008911B0008A3030008CC
:1000C000A3030008A3030008A3030008A303000878
:1000D000A3030008A3030008A3030008A303000868
:1000E000A3030008A303000800000000A303000806
:1000F000A3030008A3030008A3030008A303000848
:10010000A3030008A3030008C11F0008A3030008FD
:10011000A3030008A3030008A3030008A303000827
:10012000A3030008A3030008A3030008A303000817
:10013000A3030008A3030008A3030008A303000807
:1001400000000000000000000000000000000000AF
:10015000A3030008A3030008A3030008A3030008E7
:10016000A3030008A3030008A3030008A3030008D7
:10017000A3030008F90A0008A3030008A30300086A
:10018000A3030008A3030008A3030008A3030008B7
:10019000A3030008A3030008A3030008A3030008A7
:1001A000A3030008A3030008A30300080000000045
:1001B000A3030008A3030008A3030008A303000887
:1001C000A3030008A30300080000000000000000D3
:1001D0000000000000000000A30300080000000071
:1001E000000000000000000000000000000000000F
:1001F0000000000000000000A3030008A3030008A3
:10020000A3030008A303000800000000A3030008E4
:10021000A3030008A3030008A3030008A303000826
:10022000A303000800000000A30300080000000072
:10023000A3030008A303000800000000A3030008B4
:10024000A3030008A3030008A3030008A3030008F6
:10025000A3030008A3030008A3030008A3030008E6
:10026000A3030008A3030008A3030008A3030008D6
:10027000A3030008A3030008A30300080000000074
:10028000A3030008A3030008A3030008A3030008B6
:1002900000000000A3030008A3030008A303000854
:1002A000A3030008A3030008A3030008A303000896
:1002B000A3030008A3030008A3030008A303000886
:1002C000A3030008A3030008A303000800F002F83A
:1002D00000F04CF80AA090E8000C82448344AAF194
:1002E0000107DA4501D100F041F8AFF2090EBAE892
:1002F0000F0013F0010F18BFFB1A43F0010318475A
:1003000004730000247300000A4410F8014B14F039
:100310000F0508BF10F8015B240908BF10F8014B56
:100320006D1E05D010F8013B6D1E01F8013BF9D19F
:10033000641E03D0641E01F8015BFBD19142E4D33B
:10034000704700000023002400250026103A28BF33
:1003500078C1FBD8520728BF30C148BF0B60704737
:100360001FB507F008F91FBD10B510BD00F0D4F897
:100370001146FFF7F5FF04F0EFFC00F0F2F803B4CC
:10038000FFF7F2FF03BC00F0F5F800000848004753
:10039000FEE7FEE7FEE7FEE7FEE7FEE7FEE7FEE735
:1003A000FEE7FEE703480449044A054B7047000096
:1003B000CD02000810400024104600241042002402
:1003C00010420024032A40F2308010F0030C00F0A9
:1003D000158011F8013BBCF1020F624498BF11F87F
:1003E00001CB00F8013B38BF11F8013BA2F1040238
:1003F00098BF00F801CB38BF00F8013B11F00303B0
:1004000000F02580083AC0F0088051F8043B083A13
:1004100051F804CBA0E80810F5E7121D5CBF51F8B5
:10042000043B40F8043BAFF30080D20724BF11F82F
:10043000013B11F801CB48BF11F8012B24BF00F894
:10044000013B00F801CB48BF00F8012B704710B505
:10045000203AC0F00B80B1E81850A0E81850B1E87D
:100460001850A0E81850203ABFF4F5AF5FEA027CBC
:1004700024BFB1E81850A0E8185044BF18C918C0EC
:10048000BDE810405FEA827C24BF51F8043B40F88D
:10049000043B08BF7047D20728BF31F8023B48BF72
:1004A00011F8012B28BF20F8023B48BF00F8012BB0
:1004B00070474FF0000200B5134694469646203927
:1004C00022BFA0E80C50A0E80C50B1F12001BFF40D
:1004D000F7AF090728BFA0E80C5048BF0CC05DF873
:1004E00004EB890028BF40F8042B08BF704748BFC1
:1004F00020F8022B11F0804F18BF00F8012B704735
:100500007047704770470000004870474C02002455
:1005100000487047480200247546FFF7F9FFAE46D1
:1005200005006946534620F00700854618B020B5FF
:10053000FFF738FFBDE820404FF000064FF00007FE
:100540004FF000084FF0000BAC46ACE8C009ACE837
:10055000C009ACE8C009ACE8C00921F007018D462C
:10056000704710B50446AFF300802046BDE8104048
:10057000FFF705BF01491820ABBEFEE726000200C9
:10058000704700000000000082B044F6180000210F
:10059000C5F60200019150F80C1C21F0040140F84E
:1005A0000C1C50F80C1C41F0807140F80C1C0168C8
:1005B00041F4404101604FF4A04100910168890479
:1005C0001FD40099E9B100990139009101688904AB
:1005D00017D40099A9B100990139009101688904E3
:1005E0000FD4009969B1009901390091016889041B
:1005F00007D4009929B10099013900910168890453
:10060000DFD50098002800F07D8144F200400121F0
:10061000C5F602000191016841F4803101604FF498
:10062000A0410091016889031FD40099E9B10099A4
:10063000013900910168890317D40099A9B1009983
:1006400001390091016889030FD4009969B10099BB
:10065000013900910168890307D4009929B10099F3
:100660000139009101688903DFD500990122002931
:1006700040F23B030CBF00210121C0F201130191A4
:1006800042F20001C5F200210A600A6842F030021D
:100690000A6041F21202816A00218162C0F20022E6
:1006A0008262026B0163026B1A430263826B816395
:1006B000826B03F5EA731A438263026C016440F2B1
:1006C0008022016CC0F201121143016440F2DD117D
:1006D000C0F2FF11C162016841F0807101604FF406
:1006E000A0410091016889011FD40099E9B10099E6
:1006F000013900910168890117D40099A9B10099C5
:1007000001390091016889010FD4009969B10099FC
:10071000013900910168890107D4009929B1009934
:100720000139009101688901DFD5009900290CBFCA
:10073000002101210191016841F0806101604FF4C5
:10074000A0410091016809011FD40099E9B1009905
:10075000013900910168090117D40099A9B10099E4
:1007600001390091016809010FD4009969B100991C
:10077000013900910168090107D4009929B1009954
:100780000139009101680901DFD5009909B90021FB
:100790000191016841F0805101604FF4A041009146
:1007A000016889001FD40099E9B1009901390091CD
:1007B0000168890017D40099A9B100990139009105
:1007C000016889000FD4009969B10099013900913D
:1007D0000168890007D4009929B100990139009175
:1007E00001688900DFD5009909B90021019140F61F
:1007F00048018161C16941F04001C161C16921F0D5
:100800002001C161C16921F01001C161C16941F4D8
:100810008061C161C16921F40071C161C16921F4C4
:100820008071C161016A41F040010162016A21F0F9
:1008300020010162016A21F0100101624FF4A04120
:100840000091016849041FD40099E9B10099013968
:1008500000910168490417D40099A9B100990139A0
:100860000091016849040FD4009969B100990139D8
:1008700000910168490407D4009929B10099013910
:10088000009101684904DFD5009900290CBF0021BF
:10089000012101914FF4A0410091016809041FD486
:1008A0000099E9B10099013900910168090417D450
:1008B0000099A9B1009901390091016809040FD488
:1008C000009969B10099013900910168090407D4C0
:1008D000009929B100990139009101680904DFD517
:1008E000009900290CBF002101210191016921F02B
:1008F00007010161016941F0030101614FF4A04169
:1009000028E000BF002002B0704700BF0099013905
:100910000091016901F0380118291CBF00990029D4
:1009200021D0009901390091016901F0380118299D
:100930001CBF0099002916D0009901390091016966
:1009400001F0380118291CBF009900290BD000992B
:10095000013900BF0091016901F0380118291CBF5D
:1009600000990029D2D1009900290CBF0021012152
:1009700001910021C5F602010A6822F040620A6076
:100980000A6842F000620A608A6842F040628A6047
:10099000CA6822F04062CA604A6A42F480124A621F
:1009A0000A6822F040520A600A6842F000520A6067
:1009B0008A6822F040528A60CA6822F04052CA60B7
:1009C0004A6A42F000724A62D0F8F41041F0020123
:1009D000C0F8F410016841F480510160416D41F4A8
:1009E00040114165016D41F480510165016D41F097
:1009F00000510165D0F8E81041F00101C0F8E8109D
:100A0000D0F8E81041F00201C0F8E8100198013870
:100A100018BF012002B0704710B54AF25004C4F26A
:100A200000042068C00702D0002003F0A5F9206868
:100A3000000701D5082020602068400758BF10BD7E
:100A4000606D400605D0002003F096F9606D400609
:100A5000F9D10420206010BD10B54AF25044C4F210
:100A600000042068C00602D5012003F085F9206843
:100A7000000601D5802020602068400658BF10BDC8
:100A8000606E400605D0012003F076F9606E4006E6
:100A9000F9D14020206010BD40F61840C5F6020094
:100AA00050F8041CC9074FF4803108BF01210268C7
:100AB0001143016044F600004AF6AA21C5F6000081
:100AC000016070470000000044F6000100EB800068
:100AD000C5F6000145F25552C0F357100A600622D0
:100AE0004A6088604AF6AA2008604CF6CC4008604C
:100AF00070470000000000002DE9F047A0B010256D
:100B0000C4F204056868000758D468686968C004BE
:100B100000F1B0800805686800F1F8824005686857
:100B200000F1F882400300F1FF8268680003686802
:100B300000F13683C00640F192842869AA6822F049
:100B40001002AA60C0F34341062900F05F83022926
:100B500040F0298447F6F07110EA010900F023847F
:100B600000F00F0A10F0300640F258333246CAEB5C
:100B7000CA00C2F2004318BF012203EB800018BF75
:100B80004FF0FF3630F82C8F03464FEA9911BAF137
:100B9000010F53F804CF40F0A18308EB1917812F00
:100BA0006746C0F09C8343F6CC474FF00008C2F282
:100BB00000471F60A0F8008091E300BF40F2583C5E
:100BC0004FF6306140F60032C2F2004CCFF6FF71B2
:100BD000C4F20402DCF804304FF628675058565827
:100BE0004FF62061CFF6FF77CFF6FF715458D759F3
:100BF000BCF80020BCF802108A4234D06FF3DF400A
:100C000040F2000EB0FA80F0C1F6F87E400920EA0A
:100C1000D30006EA0E03B3FA83F3E6435B0900EA66
:100C2000D670184000EAD710E8B1501A4FF0000310
:100C300098BF881A80B2B0F5807F28BF4FF48070CB
:100C40004218B3EB123F1CBF0022C1F58050DCF804
:100C50005C30ACF8022040F2F432C2F2004211449F
:100C600082B201209847686800F00800686020B0F0
:100C7000BDE8F08740F6405001F48051C0F2030017
:100C80006960002100910099013100910099814231
:100C900048D82968B1F1FF3F1BDD0099013100916F
:100CA000009981423ED82968002912D40099013167
:100CB00000910099814235D82968002909D400990A
:100CC00001310091009981422CD82968B1F1FF3F90
:100CD000D9DC002100914FF4846129600099013131
:100CE0000091009981421DD8296889061AD500997A
:100CF000013100910099814214D82968890611D5E3
:100D0000009901310091009981420BD82968890628
:100D100008D50099013100910099814202D82968D3
:100D20008906DBD4002100910099013100910099DE
:100D3000814247D82968B1F1FF3F1BDD009901319D
:100D40000091009981423DD82968002912D4009968
:100D5000013100910099814234D82968002909D4D1
:100D6000009901310091009981422BD82968B1F195
:100D7000FF3FD9DC00210091102129600099013149
:100D80000091009981421DD82968C9061AD5009999
:100D9000013100910099814214D82968C90611D502
:100DA000009901310091009981420BD82968C90648
:100DB00008D50099013100910099814202D8296833
:100DC000C906DBD455F8081C4FF6086241F0010152
:100DD00045F8081C40F60031CFF6FF72C4F204015A
:100DE00041F21807C0F20C07AF604FF67F338B500B
:100DF0004FF600624FF6206CCFF6FF72CFF6FF7C05
:100E00008E5826F400168E508B600A6822F4001269
:100E10000A600A6842F000620A604FF62862CFF664
:100E2000FF728B5042F2515251F80C60C0F6000232
:100E300026F4001641F80C608B6244F60C060B6A2F
:100E4000C5F6020623F400130B620B6A43F000633D
:100E50000B620023C1F80033346844F080743460BE
:100E60004026C4F2000645F8046C55F8046C26F4DC
:100E7000705645F8046C55F8046C46F4C05645F8B5
:100E8000046C4FF400766E6140F20026C0F28006DA
:100E9000AE6140F28026C0F27416C5F8F460C5F861
:100EA000F830C5F8FC30C5F80031C5F80431C5F894
:100EB0000831C5F80C31C5F81031C5F81431C5F842
:100EC0001831C5F81C31C5F82031C5F82431C5F8F2
:100ED0002831C5F82C31C5F830310B610E6946F464
:100EE00000260E610E6946F040060E610E6946F05E
:100EF000C0460E610E6846F004460E60AF604FF0CB
:100F0000FF376F6040F25837C2F2004742F2617615
:100F100007F11304C0F600063C6342F2E154C0F648
:100F20000004BB62C7E90F4243F6CC44FB62C2F245
:100F30000044BE63C7E9123442F209747B64BA67A5
:100F4000C0F600043E67C7E91564C7E91723C7E97F
:100F5000193301227A606F684FF61C57CFF6FF777E
:100F60006B604FF00316CE514FF61457CFF6FF7754
:100F70000926CE514FF61057CFF6FF77CA5100938E
:100F8000009A01320092009A824248D82A68B2F14F
:100F9000FF3F1BDD009A01320092009A82423ED848
:100FA0002A68002A12D4009A01320092009A8242E2
:100FB00035D82A68002A09D4009A01320092009A92
:100FC00082422CD82A68B2F1FF3FD9DC002200927D
:100FD0004FF478722A60009A01320092009A82429D
:100FE0001DD82A6892061AD5009A01320092009AFA
:100FF000824214D82A68920611D5009A01320092D2
:10100000009A82420BD82A68920608D5009A0132CB
:101010000092009A824202D82A689206DBD400220B
:101020000092009A01320092009A824247D82A68C0
:10103000B2F1FF3F1BDD009A01320092009A82421A
:101040003DD82A68002A12D4009A01320092009AF0
:10105000824234D82A68002A09D4009A01320092C8
:10106000009A82422BD82A68B2F1FF3FD9DC0022D5
:10107000009210222A60009A01320092009A824265
:101080001DD82A68D2061AD5009A01320092009A19
:10109000824214D82A68D20611D5009A01320092F1
:1010A000009A82420BD82A68D20608D5009A0132EB
:1010B0000092009A824202D82A68D206DBD4D5F880
:1010C000F00748F2080220F4FE60C5F8F00748F285
:1010D0004000C0F68C02C0F6480041F80C0048F20F
:1010E0004000C8F20840086200200863086B40F422
:1010F00000200863086B40F0400008634FF6406032
:10110000CFF6FF700A5020B0BDE8F08700F4006011
:1011100002E000BF00F4806068604FF48050A86077
:1011200020B0BDE8F08700BF40F600344FF61850FD
:10113000C4F20404CFF6FF702658F00714D04FF61F
:101140000868CFF6FF7854F80870F80706D040F228
:101150005830C2F20040816B00208847686800F474
:101160008020686044F80870B00740F178814FF63D
:101170002866CFF6FF76A059C00700F0708140F2D4
:1011800058300127C2F20040416D0120884768684D
:1011900000F480206860A75120B0BDE8F08700BF50
:1011A00040F6003600F4002068604FF61850C4F294
:1011B0000406CFF6FF703758F80340F14E81B4684B
:1011C000200740F13C8140F258396846C2F200499C
:1011D0008021B9F82280FFF76CF9B9F81C00B0F54E
:1011E000106F23DB42F2A011884247DCB0F5106F8C
:1011F00050D042F22101884240F01B81D9F83C10C6
:1012000042F2210088474FF0000812E140F600301A
:1012100040F25831C4F20400C2F20041D0F8002577
:10122000CA61D0F800050862BDE000BFB0F5817F5B
:1012300000F00581B0F5A06F30D0B0F5D06F40F070
:10124000F880B9F81E00B0F5407FC0F27B80A0F5B1
:101250004071052900F2AC80DFE801F004B4BEC69D
:10126000CED600BFB8F1040FA6A128BF4FF00408E6
:1012700068464246FFF7A6F8DBE000BF42F2A11144
:10128000884219D042F22121884208BF4FF000085D
:10129000CFE000BF4FF00008CBE000BFB9F81E0060
:1012A000D5F8F01741EA0010C5F8F007D9F80400A6
:1012B00040F002000FE000BFB8F1070F09F10C0188
:1012C00028BF4FF0070868464246FFF7C0F8D9F834
:1012D000040040F00400C9F80400AAE0674640F6A4
:1012E0000034B142C4F2040441D011444A1E01F05A
:1012F000030E032A12D321F003014942D4F800253A
:101300003A60D4F800257A60D4F80025BA60D4F8A1
:1013100000250431FA6007F11007EFD1BEF1000F8C
:1013200024D0BEF1010FD4F80015396002D1043782
:101330001CE000BFBEF1020FD4F80015796011D196
:10134000083713E0B0F5807F66D0B0F5007F76D126
:1013500047F28451B8F1430F28BF4FF04308C0F65D
:10136000000162E0D4F80015B9600C371F60BAF1D3
:10137000000F4FEA191111D004EB4A120027176130
:10138000176947F4002717614FEA4A17166946F0B4
:1013900040061661E25942F00442E2510CEB0102B0
:1013A0001A6041440180A86840F01000A86056E02F
:1013B000B0F5C06F43D1B8F10A0F53A128BF4FF069
:1013C0000A0832E047F2DC51B8F1260F28BF4FF08F
:1013D0002608C0F6000128E0B8F12C0F3EA128BF76
:1013E0004FF02C0821E000BFB8F11A0F33A128BF3D
:1013F0004FF01A0819E000BFB8F1160F29A128BF55
:101400004FF0160811E000BFB8F11C0F1EA128BF55
:101410004FF01C0809E000BF47F2C851B8F1120FA5
:10142000C0F6000128BF4FF0120868464246FFF799
:101430000EF8D9F840306946002042469847E00748
:101440000AD040F25830C2F20040C16B00208847F9
:10145000306840F004403060B460B80302D420B07B
:10146000BDE8F087B46AE0070AD040F25830C2F213
:101470000040816D01208847306A40F004403062AE
:10148000B46220B0BDE8F0871C0343004400430071
:10149000200049006E007400650072006600610063
:1014A000630065001603430044004300200043002E
:1014B0006F006E0066006900670000001A033400C8
:1014C0003800000045003700340046003700360081
:1014D00033003000380000002C03530054004D004E
:1014E000330032002000560069007200740075005D
:1014F00061006C00200043006F006D0050006F0021
:1015000072007400040309040A060002000000408F
:10151000010000000000000043F60002C4F20002D7
:1015200090424FD144F29042C5F60202136843F450
:10153000804313604FF4805300BF00BF00BF00BF63
:1015400000BF00BF00BF00BF00BF00BF00BF00BFA3
:1015500000BF00BF00BF00BF00BF00BF00BF00BF93
:1015600000BF00BF00BF00BF00BF00BF00BF00BF83
:1015700000BF00BF00BF00BF00BF00BF00BF00BF73
:1015800000BF00BF00BF00BF00BF00BF00BF00BF63
:1015900000BF00BF00BF00BF00BF00BF00BF00BF53
:1015A00000BF00BF00BF00BF00BF00BF00BF00BF43
:1015B00000BF00BF00BF00BF403BBDD1136823F494
:1015C000804313608268002922F0E04282608268D2
:1015D00042F080528260026842F480520260C26827
:1015E00042F08062C260C26842F08041C16003D1B3
:1015F000C16841F48001C160816821F01F018160F0
:10160000816841F007018160704700000000000020
:101610002DE9F04F87B0109F0026042F88BF27F0D8
:10162000030602923246002E009307F00303019353
:1016300000F0FA804FF0FF3A4FF0000E4FF0000B31
:1016400013E000BF036823F001030360002343603D
:101650000EF10403C0F818A01FFA83FE0BEB05037C
:101660001FFA83FB964580F0E18001234360836885
:10167000022943F01F038360036843F00103036002
:10168000036843F400730360029B03EB0E044FF006
:10169000FF03049342D2009B002903EB0E0C4FF092
:1016A000000500F08D804FF001084FF0010907E0C0
:1016B000049B0135013B9BB20493049B002BC1D0DA
:1016C00049EA08031B04BDD046695FEA094318BF15
:1016D00016F0020305D05CF8033BA9F104091BBA1C
:1016E000036246695FEA084318BF16F00103DFD0C2
:1016F00041F00203022B036B0393D9D1039BA8F1A2
:1017000004081B0E2370039B1B0C6370039B1B0AB6
:10171000A370039BE3700434CAE700BF4FF00005D9
:101720004FF0010309D02CE0049F0135013FBFB207
:101730000497049F002F3FF485AF4769BF0748BF58
:10174000C0F820A046691F0418BF16F00107EBD0AF
:10175000076B0397039F043B3F0E2770039F3F0CCB
:101760006770039F3F0AA770039FE7700434DBE7AD
:10177000049F0135013FBFB20497049F002F3FF43F
:1017800061AF4769BF0748BFC0F820A046691F0482
:1017900018BF16F00107EBD041F00207022F076BCC
:1017A0000397E5D1039F043B3F0E2770039F3F0C37
:1017B0006770039F3F0AA770039FE7700434D7E761
:1017C0000126012709E000BF049B0135013B9BB2C4
:1017D0000493049B002B3FF435AF47EA06031B0438
:1017E0003FF430AF3B04436918BF13F0020304D049
:1017F0005CF8033B043F1BBA03623304436918BF20
:1018000013F00103E0D0036B0393039B043E1B0E14
:101810002370039B1B0C6370039B1B0AA370039B29
:10182000E3700434D0E700BF4FF0000B019B002BA6
:1018300000F0DC804FF0FF0A4FF0000C4FF0000E7C
:1018400015E000BF036823F0010303600023436039
:101850004FF0FF3383610CF10103019F1FFA83FCFA
:101860000EEB05031FFA83FEBC4580F0C180012307
:1018700043608368022923F01F038360836843F079
:1018800007038360036843F00103036004680CEB03
:10189000020344F400740460029CCDF818A004EB29
:1018A000030837D2009C002923444FF0000575D06F
:1018B0004FF0010901260DE090F830408DF81740F7
:1018C0009DF81740069C0135013CA4B20694069C85
:1018D000002CB7D056EA0904B4D04769002E18BFCF
:1018E00017F0020404D013F8014B002680F82040C2
:1018F0004769B9F1000F18BF17F00104E2D041F0B9
:101900000204022CD8D190F830404FF0000908F8BA
:10191000014BD7E74FF000054FF0010309D028E055
:10192000069C0135013CA4B20694069C002C3FF4B1
:1019300089AF4469A40748BF80F820A04769002BFD
:1019400018BF17F00104EBD090F8303008F8013BD5
:101950000023E5E790F830408DF817409DF81740D8
:10196000069C0135013CA4B20694069C002C3FF471
:1019700069AF4469A40748BF80F820A04769002BDD
:1019800018BF17F00104EBD041F00204022CE1D1A2
:1019900090F8303008F8013B0023E1E701260127E9
:1019A00009E000BF069C0135013CA4B20694069CE8
:1019B000002C3FF447AF57EA06043FF443AF4469B5
:1019C000002F18BF14F0020404D013F8014B0027B5
:1019D00080F820404469002E18BF14F00104E1D0C3
:1019E00090F83040002608F8014BDBE74FF0000E7E
:1019F0000EEB0B0080B207B0BDE8F08F00000000D6
:101A000010B582B040F2F0340221C2F2004401224B
:101A1000009222462346FFF7FBFD207802B010BD5E
:101A200080B582B00B46022100921A46FFF7F0FD06
:101A300002B080BD0000000080B582B043F6000017
:101A40000021C4F20000002200234FF0000CCDF86A
:101A500000C0FFF761FD02B080BD00000000000083
:101A600010B582B040F2F1348DF80710C2F2004494
:101A70000DF107030021012200922246FFF7C8FD65
:101A8000207802B010BD000080B582B00B46012165
:101A900000921A46FFF7BCFD02B080BD00000000B6
:101AA00042F2000CC5F2002CDCF8000000F00F0040
:101AB000062806D8DCF80000072262F30300CCF801
:101AC000000044F200404EF67F51C5F60200CEF60B
:101AD000F621026842F001020260002202610368FE
:101AE00019400160DCF80010090706D5DCF8001089
:101AF000072363F30301CCF8001040F20021826158
:101B0000C261C0F20221026281620021C0F2FF11B3
:101B1000C16240F28021C0F201110163426381631E
:101B2000C26301644264016821F48021016002669D
:101B300044F20000C5F2002043F2D2010160704778
:101B40001020C4F200000168C90708BF704701688F
:101B500021F00101016072B60021416143F64C5051
:101B6000C2F2004001680131016043F6506162B683
:101B7000C2F200418879012804D0097A012901D0F4
:101B800005F0A2B8012801D1FEF786BF704700001A
:101B9000F0B581B040F61005C4F200052868C00712
:101BA00002D101B0F0BD00BF2868A5F1100420F0FB
:101BB00001002860204605F063F940F2D837002084
:101BC000C2F20047686140F200063978C2F200466E
:101BD000013139703978092928BF387038780828D8
:101BE00000F2E381DFE810F00A0040007600AA006E
:101BF000D8000E0144017A01AE0100BF787B40F0AD
:101C00000C0078730F20387340F20310B86040F274
:101C1000CC20C2F2004001F097FE4828C0F0C581F8
:101C200040F2CC25C2F20045284601F035FDFF28E0
:101C300000F0BB816888E968D7E902370A180B50C1
:101C4000576040226888E968084440F294010830EF
:101C5000C2F20041FEF7B6FB4821284602F0ACF97B
:101C6000284601F025FDA0E1787B40F00C00787358
:101C70000F2038737C20B86040F2CC20C2F20040C4
:101C800001F062FE4828C0F0908140F2CC25C2F2FB
:101C90000045284601F000FDFF2800F08681688895
:101CA000E968D7E902370A180B5057604022688864
:101CB000E968084440F254010830C2F20041FEF7DE
:101CC00081FB4821284602F077F9284601F0F0FC14
:101CD0006BE100BF787B40F00C0078730F20387305
:101CE0007920B86040F2CC20C2F2004001F02CFE16
:101CF0004828C0F05A8140F2CC25C2F2004528465F
:101D000001F0CAFCFF2800F050816888E968D7E933
:101D100002370A180B50576040226888E968084467
:101D200006F110010830FEF74DFB4821284602F06D
:101D300043F9284601F0BCFC37E100BF08203875A4
:101D4000D720386140F2CC20C2F2004001F0FCFD07
:101D50004828C0F02A8140F2CC25C2F2004528462E
:101D600001F09AFCFF2800F020816888E968D7E933
:101D700004370A180B5057606888E9680844D6E9A8
:101D80000212C26081601021284602F015F928462F
:101D900001F08EFC09E100BF787B40F00C00787305
:101DA0000F20387340F23710B86040F2CC20C2F2F6
:101DB000004001F0C9FD4828C0F0F78040F2CC2572
:101DC000C2F20045284601F067FCFF2800F0ED80D4
:101DD0006888E968D7E902370A180B505760402233
:101DE0006888E968084440F2D4010830C2F2004132
:101DF000FEF7E8FA4821284602F0DEF8284601F00E
:101E000057FCD2E0787B40F00C0078730F203873D9
:101E100040F23B10B86040F2CC20C2F2004001F02A
:101E200093FD4828C0F0C18040F2CC25C2F20045A5
:101E3000284601F031FCFF2800F0B7806888E96887
:101E4000D7E902370A180B50576040226888E968C2
:101E5000084440F214110830C2F20041FEF7B2FA11
:101E60004821284602F0A8F8284601F021FC9CE011
:101E7000787B40F00C0078730F20387340F24310E9
:101E8000B86040F2CC20C2F2004001F05DFD48286D
:101E9000C0F08B8040F2CC25C2F20045284601F00C
:101EA000FBFBFF2800F081806888E968D7E90237EA
:101EB0000A180B50576040226888E968084440F2CD
:101EC00054110830C2F20041FEF77CFA482128463E
:101ED00002F072F8284601F0EBFB66E0787B40F0F8
:101EE0000C0078730F20387340F24710B86040F24E
:101EF000CC20C2F2004001F027FD482855D340F223
:101F0000CC25C2F20045284601F0C6FBFF284CD084
:101F10006888E968D7E902370A180B5057604022F1
:101F20006888E968084440F294110830C2F2004120
:101F3000FEF748FA4821284602F03EF8284601F00C
:101F4000B7FB32E0787B40F00C0078730F203873D9
:101F500040F25B10B86040F2CC20C2F2004001F0C9
:101F6000F3FC482821D340F2CC25C2F20045284694
:101F700001F092FBFF2818D06888E968D7E902379A
:101F80000A180B50576040226888E968084440F2FC
:101F9000D4110830C2F20041FEF714FA4821284655
:101FA00002F00AF8284601F083FBB0883188224607
:101FB00001B0BDE8F04004F0F7BE000000000000F2
:101FC0002DE9F04140F61045C4F200052868C0072D
:101FD00008BFBDE8F081286820F00101284640F8DC
:101FE000101904F04DFF40F62440A5F58268C4F2B4
:101FF000000000260660404604F0AEFA40F2F332DC
:1020000040F20000C2F20042C2F2004011785529AD
:1020100016D140F2D4011670C2F2004191F82C3072
:10202000FF2B13D191F82B20002381F82C30082AA4
:102030001ED1042281F82B200A7FFF2A0CD01DE03C
:1020400040F2F3320131C2F2004262E05A1C81F8E0
:102050002C200A7FFF2A11D1CA7E00230B77082A81
:1020600066D10422CA7691F82920412A0CD20EE0CA
:10207000013281F82B200A7FFF2AEDD001320A7746
:1020800091F82920412A02D3202281F8292091F8B1
:102090002A30F12B0AD3013281F8292000234A7E0D
:1020A00081F82A30412A07D208E000BF0F334A7E68
:1020B00081F82A30412A01D320224A768B7EF12BE7
:1020C00004D301324A76002202E000BF03F10F027E
:1020D00091F82F308A76CE7FB3F10E0218BF5A1CCA
:1020E000B6F10E0381F82F2018BF731C027A047B0F
:1020F000467ACB77877A04343244C67A3A44477BAF
:102100003244867B22440473D11900F10F0231441A
:102110002139838811700188A5F11002580080B21E
:1021200004F042FE4046BDE8F04104F0C5BD00BFEA
:102130000132CA7691F82920412AA5D2A7E70000EA
:1021400040F25830C2F2004041688A0702D40020B1
:10215000704700BF40F608024FF60073C4F2040255
:10216000C0F23F0312681A4083689A4204D121F0FA
:102170000201416001207047826002207047000028
:102180002DE9F04743F6506840F28032C2F2004831
:10219000C2F200420646824698F80710556A0629A0
:1021A0001AD0012954D1FEF777FC03F055F8074601
:1021B000B04288BF374603F047F829463A4603F055
:1021C000E7FC384602F090FF03F046F8002800F0E4
:1021D000DD805046BDE8F087FEF75EFC04F0ECFCC5
:1021E000074601F0D1FBB74298BF3E46002E00F0F3
:1021F000C580711EC01B032900F1120006F0030CFC
:1022000013D34FF6FC7206EA02030022AF18AC5C4F
:10221000811884547C7804324C709342BC788C7062
:10222000FF78CF70F2D115441044BCF1000F00F0DC
:10223000A5802A78BCF1010F027000F09F806978B8
:10224000BCF1020F417000F09980A978817095E08F
:1022500098F81300FF2818BF0228BAD1A1F10A008C
:10226000022861D2FEF718FC04F0A6FC98F80710CB
:102270000746B1F10A0040F2CC2118BF0120B74255
:10228000C2F2004188BF374601EB001909F10A0686
:102290005FB3B9F80210D9F80C0032887B1E0844ED
:1022A000032B104407F0030114D327F0030252421A
:1022B00015F8043B043200F8043B15F8033C00F821
:1022C000033C15F8023C00F8023C15F8013C00F80C
:1022D000013CEDD149B12A780129027005D06A7814
:1022E0000229427001D0A9788170384604F06CFC54
:1022F00004F062FC3188002801EB070030807FF495
:1023000068AF022188F8071081B2484601F054FEF8
:1023100000203080484601F0CBF9012004F034FC65
:102320005046BDE8F08700BF092939D104F044FCCC
:102330000746FEF7B1FB01F037FBB74298BF3E46B8
:10234000E6B1711EC01B032900F1120006F0030C58
:10235000FFF46BAF4FF6FC7206EA0203002200BFE7
:10236000AF18AC5C811884547C7804324C70934272
:10237000BC788C70FF78CF70F2D154E7304604F00F
:1023800023FC04F019FC00287FF423AF022088F816
:102390000700012004F0F8FB5046BDE8F08700BFBD
:1023A00040F25006C2F200463068032806D10320EE
:1023B00004F0EAFB5046BDE8F08700BF28465146CE
:1023C00001F002FF30605046BDE8F08700000000D9
:1023D0002DE9F04F81B040F2583A1C46C2F2004A53
:1023E00091460F468346BAF80060BAF80250AE42F2
:1023F00030D14FF48050E119884234D3F01940F2C3
:10240000F438B0F5805FC2F2004831D3C6F580558C
:1024100008EB060059462A46FDF7D4FF0BEB0501F1
:102420007A1B4046FDF7CEFFF019A0F5805614FA4E
:1024300086F0B0F5805FB0B227D2404449462246CC
:10244000FDF7C0FF3019AAF80000012001B0BDE877
:10245000F08F00BFA6EB050088BFA81B00F58050D9
:10246000E1198842CAD2002001B0BDE8F08F00BF58
:1024700008EB060059463A46FDF7A4FF3E4414FA1D
:1024800086F0B0F5805FB0B2D7D3C0F58055404438
:1024900049462A46FDF796FF09EB0501621B4046B7
:1024A000FDF790FF3019A0F58050AAF80000012038
:1024B00001B0BDE8F08F00002DE9F04381B00029A4
:1024C00040D040F258390546C2F200490C46B9F8EE
:1024D0000060B9F8020086421CD14FF48050A0423F
:1024E00020D33019B0F5805F20D340F2F438C6F520
:1024F0008057C2F20048294608EB06003A46FDF72D
:1025000061FFE919E21B4046FDF75CFF3019A0F5B9
:10251000805015E0A6EB000188BF811B01F58050BB
:10252000A042DED2002001B0BDE8F08340F2F430DA
:102530002946C2F2004022463044FDF743FF3019DD
:10254000A9F80000012001B0BDE8F0830000000000
:10255000B0B5C0EBC00340F2583CC2F2004C0CEBEB
:10256000830E734633F82E4F74B9BEF82A40022CFE
:102570000AD0DCF80440250706D440F23F150028B5
:1025800008BF7F25954201D20020B0BD62B1CEF8D0
:10259000341044F00801CCF80410DEF838101A802A
:1025A00088470120B0BD00BF40F600110023C4F2EF
:1025B000040101EB4012400113614FF40023136149
:1025C00013696FF3120313610B5843F004430B506C
:1025D000D2F8000240F00440C2F800020120B0BD71
:1025E0002DE9F04382B040F25831C2F200418B8DA8
:1025F00033B10A8D012A07D1002002B0BDE8F08373
:10260000012002B0BDE8F08342F2210290424FF077
:10261000010074D140F6003C0885C4F2040C5A1E37
:10262000032A03F0030EDCF8000040F00060CCF851
:102630000000086BA0EB0308C1F8308004D2002230
:10264000BEF1000F2AD143E023F00302C2F10009DA
:102650000DF10102551C6FF0030200BF08EB0206EA
:10266000A8185C1E043237798C85C77074799F1E58
:102670008F850471B4794471DC1E8C85043BF47938
:1026800009EB02068471301D8B85E7D108EB02004F
:10269000043200F10408BEF1000F19D00DF101045D
:1026A00098F80000BEF1010FA054A3F10100888545
:1026B0000ED0224498F80100BEF1020F5070A3F131
:1026C0000200888504D098F802009070D81E888592
:1026D000887CBDF801208A819DF80720DDF8033051
:1026E0000828C1F80E3008BF0246002008858A7409
:1026F000DCF8000040F00440CCF80000012002B0FB
:10270000BDE8F08300000000B0B540F2583100256C
:10271000C2F20041B1F84420012A1DD00446B1F8AC
:102720004800CA6CA1F84850121ACA64FFF728FD85
:1027300040F63030C4F2040005602546016841F4DB
:1027400000210160016841F04001016050F8101C57
:1027500041F0044140F8101C2846B0BD00000000C4
:102760002DE9F04F87B00546C0EBC00040F258336A
:10277000C2F2004303EB800A564636F82A0F0128BE
:102780000ED11020C4F2040040EA4510D0F8F01A2F
:1027900041F00441C0F8F01A002007B0BDE8F08F06
:1027A000514631F82EBFBBF1000F00F0A3804FF46B
:1027B00080701027002DC4F2040708BF4020BBF131
:1027C000400F039680F0D68007EB4514012030803F
:1027D0000BF50020C4F800090E46D4F8F0085A465C
:1027E00040F00440C4F8F008680102905AF8341F21
:1027F000284604F08DFD002840F04782012D04F5A5
:102800000F6440F0278240F640554FF00008C0F2B8
:102810000305B14609E000BFDAF8001001205A466E
:1028200004F076FD002840F03082D7F81009D7F880
:102830002009D7F82009C4F81080B9F8000000F585
:1028400000202061206840F004402060A06910282A
:10285000E2D3CDF810800498013004900498A84287
:10286000DAD83868B0F1FF3F1BDD049801300490DE
:102870000498A842D0D83868002812D404980130AF
:1028800004900498A842C7D83868002809D404984E
:10289000013004900498A842BED83868B0F1FF3FD8
:1028A000D9DCCDF8108060203860049801300490A5
:1028B0000498A842B0D838688006ADD50498013095
:1028C00004900498A842A7D838688006A4D5049834
:1028D000013004900498A8429ED8386880069BD5A1
:1028E0000498013004900498A84295D8386880066E
:1028F000DBD491E7102102284FEA4510C4F204010D
:10290000084440F091810021C0F800194FF40021E3
:10291000C0F80019D0F800196FF31201C0F80019BF
:1029200000F50F61D0F8F02842F00442C0F8F0281A
:102930000A69002A1FBF0A69002A0A69002A02D010
:102940000A69002AF4D1D0F8F02A42F00442C0F813
:10295000F02A586820F0080058600020308008688D
:1029600040F000600860086801200A69096907B042
:10297000BDE8F08F0091584538BF8346012107EB31
:1029800045121BF03F0001904FEA9B1040F6405863
:1029900018BF01EB9B10318002F50F694BEAC0466E
:1029A000C2F8006968010290D2F8F008C0F203088A
:1029B00040F00440C2F8F0085AF8341F28465A463E
:1029C00004F0A6FCF0B90024012D01D16025C8E077
:1029D000D7F81009D7F82009D7F82009C9F810400E
:1029E000C9F810605A46D9F8000040F00440C9F810
:1029F0000000D9F81800DAF80010284604F088FC26
:102A00000028E5D00020059040F25832039BC2F226
:102A1000004202990598013005900598404547D835
:102A20003868B0F1FF3F1BDD05980130059005982F
:102A300040453DD83868002812D4059801300590EB
:102A40000598404534D83868002809D405980130E5
:102A50000590059840452BD83868B0F1FF3FD9DC88
:102A60000020059060203860059801300590059899
:102A700040451DD8386880061AD505980130059064
:102A80000598404514D83868800611D5059801305E
:102A90000590059840450BD83868800608D50598FC
:102AA000013005900598404502D838688006DBD48F
:102AB0000198002840F0F38000980088002840F03A
:102AC000EE8002201880D9F80000D9F81000D9F85B
:102AD00010000020C9F810004FF40020C9F81000C1
:102AE000D9F810006FF31200C9F81000D9F80000EF
:102AF00040F00440C9F80000D9F8100000281FBFBA
:102B0000D9F810000028D9F81000002803D0D9F80F
:102B100010000028F0D17818D0F8F01A41F00441E4
:102B2000C0F8F01A506820F00800506000201880AB
:102B3000D9F8000040F00060C9F80000D9F80000A2
:102B4000D9F81000D9F81000012007B0BDE8F08FC7
:102B5000DAF8001001205A4604F0DAFB00287FF46E
:102B600051AFD7F81009D7F82009D7F82009C9F8CC
:102B70001040C9F81060D9F8000040F00440C9F8CE
:102B80000000D9F818001028E2D306940698013006
:102B9000069006984045DBD83868B0F1FF3F1BDD52
:102BA00006980130069006984045D1D8386800282C
:102BB00012D406980130069006984045C8D8386867
:102BC000002809D406980130069006984045BFD8E1
:102BD0003868B0F1FF3FD9DC06943D6006980130BB
:102BE000069006984045B3D838688006B0D5069858
:102BF0000130069006984045AAD838688006A7D5C7
:102C000006980130069006984045A1D8386880069D
:102C10009ED50698013006900698404598D83868A9
:102C20008006DBD494E700BFD0F8F01A41F00441ED
:102C3000C0F8F01A596821F008015960002131806C
:102C4000D0F8F01841F00061C0F8F018012007B08A
:102C5000BDE8F08F4FF00008D7F81009D7F8200929
:102C6000D7F82009C4F8108030885A4600F50020B3
:102C70002061206840F004402060A069DAF800106C
:102C8000284604F045FB0028E6D040F25832C2F254
:102C90000042DDE90213506820F008005060781807
:102CA000D0F8F01A41F00441C0F8F01A5168002041
:102CB000188021F008005060012007B0BDE8F08FB7
:102CC00080B540F2583E40F6006CC2F2004EC4F2AD
:102CD000040C00210220CEF80410DCF8002042F0A1
:102CE0000102CCF800200C22C4F2040252F8043C89
:102CF00043F0010342F8043C4FF48053D360CCF816
:102D0000001044F60C0CC5F6020CDCF8003043F061
:102D10008073CCF800304FF40413D3624FF6F44CB8
:102D200040F61033CFF6FF7CC4F2040343F80C00E6
:102D30004020C4F200001060106820F47050106051
:102D4000106840F4C05010604FF40070906140F281
:102D50000020C0F28000D06140F28020C0F27410E8
:102D6000C2F8F800C2F8FC10C2F80011C2F8041151
:102D7000C2F80811C2F80C11C2F81011C2F81411EF
:102D8000C2F81811C2F81C11C2F82011C2F824119F
:102D9000C2F82811C2F82C11C2F83011C2F834114F
:102DA0001960186840F400201860186840F040006E
:102DB0001860186840F0C040186053F8100C40F0DC
:102DC000044043F8100CD2F8F40740F00300C2F8B6
:102DD000F4074FF0FF30906053F80C000EF113022F
:102DE00020F0020043F80C00CEF8302042F2E1520D
:102DF00042F2515342F26170C0F60002C0F6000385
:102E0000CEE90F2343F6CC420EF1540CC0F600007D
:102E1000C2F20042CEE9121242F20972CEF8380034
:102E2000CEF87000C0F600028CE80D004EF24D4066
:102E3000CEF82810CEF20000CEF82C10CEF84410B8
:102E4000CEF87830CEE91811CEF868101021017054
:102E50004EF20810CEF200004FF40051016080BD28
:102E60000020C5F60200016821F4400101600168FC
:102E700041F480010160016841F400010160816852
:102E800021F440018160C16821F44001C160016802
:102E900021F040710160016841F0807101600168BA
:102EA00041F000710160816821F040718160C1686A
:102EB00021F04071C160016821F440210160016886
:102EC00041F480210160016841F400210160C16882
:102ED00021F44021C16070474EF60C500422CEF21E
:102EE0000000C0F2FA52BFF34F8F016801F4E061B5
:102EF00011430160BFF34F8F00BF00BF00BF00BF91
:102F0000FAE70000000000004968081AB0FA80F0F3
:102F10004009704700000000F0B581B00446808889
:102F2000012801D1266802E02088000406BA04F0D6
:102F3000D7F9A1880546012902D1276803E000BF1F
:102F40002088000407BA04F043F9AE4218BF874254
:102F500033D104F04DF9C00726D104F059F90546E4
:102F600004F046F9800724D504F03AF9054604F048
:102F700037F9042D18BF05286AD104F031F9042867
:102F800070D1E188C9B1481E032801F0030067D35E
:102F900021F0030200214FF02C3300BF67180431E9
:102FA0008A42BB60FAD178E0002504F021F980075D
:102FB000DAD42046294604F0EBF8A088012801D194
:102FC000276802E02088000407BA04F019F90646D1
:102FD00004F016F9054604F083F9B7420ED1854294
:102FE0000CD004F005F9C00704D104F011F9014632
:102FF00001E000BF0021204604F0BAF8A0880128B3
:1030000006D1256804F0DCF8854208D00AE000BF4C
:103010002088000405BA04F0D3F8854202D1204686
:1030200004F086F804F0DCF806280BD004F0D8F899
:103030000A2807D004F0D4F80D2803D004F0D0F803
:1030400018281DD1204601B0BDE8F04004F080B83A
:10305000E1880029B1D0481E032801F0030011D2F5
:1030600000211AE004F0BCF80528A6D1E188002967
:10307000A3D0481E032801F003001FD2002128E03E
:1030800001B0F0BD21F0030200214FF02C3300BF4E
:10309000671804318A42BB60FAD100283FF48DAF33
:1030A000214401284FF02C020A723FF486AF022817
:1030B0004A723FF482AF2C2088727EE721F003022F
:1030C00000214FF09C3300BF671804318A42BB6077
:1030D000FAD100283FF471AF214401284FF09C023F
:1030E0000A723FF46AAF02284A723FF466AF9C202E
:1030F000887262E70000000040F25831C2F20041DD
:103100004968084018BF0120704700000000000017
:1031100070B504460068013812282BD8DFE800F0AB
:103120001A222A2A0A323C4C2A2A2A2A2A2A2A5ACB
:103130002A2A0A00204600F03BFA0546204600F005
:10314000DFF90146284603F053FDBDE8704000F06A
:103150006FB900BF002003F017FDBDE8704000F01C
:1031600067B900BF00F064F90120BDE8704003F0CA
:103170000BBD00BF022003F007FDBDE8704000F06A
:1031800057B900BF204600F0A7F903F0FDFCBDE8E9
:10319000704000F04DB900BF0A2503E06C2C05F12A
:1031A000010533D2ACB2204601F01AFF0028F5D158
:1031B000204601F0A5FFF1E7204600F0A1F904F157
:1031C0000801626802F0E4FC03F0DEFCBDE8704038
:1031D00000F02EB9B4F88C50B4F88F60AE420BD822
:1031E000012003F0D1FCBDE8704000F021B900BF20
:1031F0000135A8B28642F3D9ACB2204601F0F0FE08
:103200000028F5D1204601F07BFFF1E7BDE87040D2
:1032100000F00EB90000000070B50D46044600BF76
:1032200000260220FF2D88BF0126FFF765FF3042F0
:103230000CD04FF480712046FFF73EF90028A5F529
:10324000807504F58074EBD170BD00BF2E4602205E
:10325000002D18BF0126FFF74FFF304203D0A9B25F
:103260002046FFF729F9BDE8704000F0E1B8000002
:10327000B0B584B004460068B0F52A6F22DAA0F633
:103280000120092800F28E80DFE800F0068C060697
:1032900006060606585C00BF08202146FFF734FEEC
:1032A000002848D004F1080003F0F6FD014620682C
:1032B00003F042FD012003F067FC04B0BDE8B0401C
:1032C00000F0B6B840F60631884215DD40F6073109
:1032D000884241D0B0F53A6F46D040F6A1318842DD
:1032E00060D14FF4A67003F07BFC43F650600621DA
:1032F000C2F20040C171DDE7B0F52A6F46D0B0F5EB
:103300002B6F4FD101F04CF96D460446013001227C
:10331000294601F04DF9A91C0122204601F048F987
:10332000A01C291D062201F043F910212846FFF7B1
:10333000C3F800F07DF804B0B0BD00BF01F010F993
:1033400002E000BF01F014F91021FFF7B5F804B056
:10335000BDE8B04000F06CB8204603F0B9FE04B000
:10336000BDE8B04000F064B801F00AF9044601205D
:1033700001F07AFF2322214602F08EFB03F004FCC9
:1033800004B0BDE8B04000F053B800BF01F008F948
:103390000446002001F068FF0822214602F07CFB71
:1033A00088E700BF022003F0EFFB04B0BDE8B040A7
:1033B00000F03EB8000000000A6802604A684260FF
:1033C0008A688260C968C160704700000000000020
:1033D0000A6802604A6842608A688260C968C1609F
:1033E00070470000000000000A6802604A684260FE
:1033F0008A688260C968C1607047000000000000F0
:10340000704700000000000070470000000000004E
:10341000704700000000000070470000000000003E
:1034200043F62040C2F20040704700000000000058
:1034300080B541F2B4400021C2F20040016043F681
:103440002040C2F200409C21FDF733F8012080BDEE
:1034500044F2E040C5F60200016841F0010101605C
:10346000016841F002010160016841F0040101605E
:10347000016841F008010160016841F0100101603C
:10348000016841F020010160016841F040010160E4
:10349000016841F080010160C16841F48071C16040
:1034A000816841F480418160816841F0010181605F
:1034B000816841F002018160816841F0040181600E
:1034C000816841F00801816050F8081C41F00071EA
:1034D00040F8081C7047000080B5B0F88D0000BAB5
:1034E000000C01F00DFE013818BF012080BD000066
:1034F000B0F88C0000BA000C70470000000000001B
:1035000070B50168132909D00922CFF20002914257
:1035100008D14FF0040E072307E000BF4FF0040E60
:10352000032302E04FF0030E022300244FF0FF3C80
:103530000022002150FA83F5E60042F00104E4B2D3
:1035400095F88C50A64505FA06F541EA05012CD9F7
:103550005D1EE60042F0020450FA85F5E4B295F8EB
:103560008C50A64505FA06F541EA05011DD903F17F
:10357000FE05E60042F0030450FA85F5E4B295F842
:103580008C50A64505FA06F541EA05010DD9FD3333
:10359000E400043250FA83F55CFA83F395F88C501A
:1035A000A540D4B22943A645C4D8084670BD000042
:1035B000016813290ED1B0F8921090F89120903044
:1035C000090409BA41EA02411822007890400843F0
:1035D000704700BFB0F890108F301022090409BA6C
:1035E0000078904008437047B0B5002908BFB0BDCF
:1035F00040F2CC220301C2F2004243F6886C02EB97
:103600000010C2F2004CD25AC0681044002200F1EF
:10361000080E0DE0D87B1C7C9D7B2044C4B2AC42DC
:1036200088BF587B18740EF802000132914217D0FF
:1036300002EB82000CEB0003187B0128EAD0022881
:1036400004D00328F1D1187CEDE700BFD87B1C7CA7
:103650009D7B201AC4B2AC42E4D2587BE2E700BFA3
:10366000B0BD00000000000001460089820703D4BD
:1036700040F0020008817047FF2070470000000002
:1036800001460089820701D4FF20704720F0020024
:10369000088170470000000001460089C20703D17D
:1036A00040F0010008817047FF20704700000000D3
:1036B00001460089C20701D1FF20704720F00100B8
:1036C00008817047000000004179007949070DD456
:1036D000411E072932D80820DFE801F004181C2019
:1036E00024282C0501200830704700BF811E0D29B9
:1036F0002AD80820DFE801F00A0E12161A1E082E3A
:1037000032363A3E424600BFEDE700BF02200830A5
:10371000704700BF03200830704700BF0420083006
:10372000704700BF05200830704700BF06200830F2
:10373000704700BF07200830704700BF002818BF3F
:103740000120C000083070470138B0FA80F040090D
:10375000083070470C200830704700BF1020083038
:10376000704700BF14200830704700BF1820083091
:10377000704700BF20200830704700BF302008305D
:10378000704700BF40200830704700000000000074
:103790002DE9F04381B001798146881E0D280FD8AC
:1037A0004FF00808DFE800F00812161A1E22402623
:1037B0002A2E32363A3E00BF4FF0020834E000BFF6
:1037C000481EB0FA80F04FEA50182DE04FF0030881
:1037D0002AE000BF4FF0040826E000BF4FF00508C4
:1037E00022E000BF4FF006081EE000BF4FF00708C0
:1037F0001AE000BF4FF00C0816E000BF4FF01008B1
:1038000012E000BF4FF014080EE000BF4FF01808A0
:103810000AE000BF4FF0200806E000BF4FF030087C
:1038200002E000BF4FF04008D9F8004003F058FD17
:103830004E46074656F8085B03F0CAFCBC4218BF68
:1038400085421FD103F0D4FCC0070FD103F0E0FC88
:10385000074603F04DFD03F0CBFC80070DD503F0C8
:10386000BFFC13280ED103F03BFD0BE0002703F053
:103870003FFD03F0BDFC8007F1D4304641463A4697
:1038800000F092FCD9F8004003F0BAFC054603F0C2
:10389000B7FC074603F024FDAC420ED187420CD0A2
:1038A00003F0A6FCC00703D103F0B2FC024600E01F
:1038B00000223046414600F067FCD9F8004003F092
:1038C00077FC844203D13046414600F049FC03F0C6
:1038D00087FC132808D1D9F80000494601B0BDE89B
:1038E000F04300F045BC00BF01B0BDE8F08300002C
:1038F00040F2AC2041F2B84CC2F200404FF4905379
:10390000C2F2004C0021C0F8263041F61803C2F282
:10391000004301604FF0D872426001814FF4D872C9
:1039200001628184C0E903C18182C0F816200CF5D0
:10393000D872C2614FF09052C0E90B31426303F577
:103940009052C2630187704701884288C0889142C3
:1039500015D00BD2801A472982B2084498BF0021A3
:10396000472A88BF014488B2704700BF91424FF098
:10397000000004D9891A8AB2472A88BF084680B253
:10398000704700000000000043F68860C2F200406B
:10399000704700000000000043F67360C2F2004070
:1039A000704700000000000043F67360C2F2004060
:1039B00070470000000000002DE9F04744F29444F5
:1039C000C5F60204206840F4807020602068C005BD
:1039D0005FBF20685FEAC05020685FEAC05002D431
:1039E0002068C005F2D5FFF783FF206820F48070BF
:1039F000206000BF2068C00541BF20685FEAC0505A
:103A000020685FEAC05002D52068C005F2D44EF2AB
:103A100080104FF40021CEF200004AF21804C4F2E4
:103A2000000401604FF48011BFF34F8FBFF36F8F1D
:103A30000160BFF34F8FBFF36F8F206840F001002C
:103A4000206000BF2068C00701BF20685FEAC07027
:103A500020685FEAC07002D12068C007F2D04AF245
:103A600018452068C4F2000540F002002060286874
:103A700040F00100286000BF2868C00701BF286827
:103A80005FEAC07028685FEAC07002D12868C0078A
:103A9000F2D043F673662868C2F2004640F0020096
:103AA000286040F6BB48307C2768CFF6FF784FF09F
:103AB000400C07EA0807276000F0800721680CEA3D
:103AC000401260F38202C0F3800A41EA0721C0F38A
:103AD000C0091143C0F3001E41EA0A21C0F340139C
:103AE00041EA4921C0F3801041EA0E3141EA4331F5
:103AF00041EA80302060707C2A6802EA08022A606D
:103B000000F080022B680CEA401160F38201C0F3E0
:103B1000800C43EA0222C0F3C00E1143C0F3001927
:103B200041EA0C21C0F3401741EA4E21C0F3801056
:103B300041EA093141EA473141EA803028604AF6DA
:103B400000404FF42051C4F20000FCF7B2FCF078C2
:103B50004FF07E4C0CEB4060606031780020CFF677
:103B6000FF70636800EB01411943616073786FF087
:103B7000FF01676801EB03233B436360B378676829
:103B8000013B3B436360F37A013B44F80C3C337ADE
:103B900054F80C7C00EB03433B4344F80C3C737A31
:103BA00054F80C7C01EB03233B4344F80C3CB77AFC
:103BB0006FF00F0354F80C2C03EB07173A4344F84B
:103BC0000C2CF2790CEB42626A6032796F6800EB80
:103BD00002423A436A6072796F6801EB02223A430B
:103BE0006A60B2796F68013A3A436A60F27B013ADF
:103BF000C4F8F423327B00EB0240D4F8F4231043E2
:103C0000C4F8F403707B01EB0020D4F8F4130843EC
:103C1000C4F8F403B07BD4F8F41303EB00100843AA
:103C2000C4F8F4030020E066A16E21F00201A16651
:103C3000A16E21F00101A166A16E21F03001A16603
:103C4000A16E21F00C01A166E866A96E21F00201C7
:103C5000A966A96E21F00101A966A96E41F01001C3
:103C6000A966A96E41F00401A966C4F88800D4F8D9
:103C7000880040F48010C4F88800D4F8880040F030
:103C80000060C4F888004FF49060C5F89800D5F83B
:103C9000980040F48010C5F89800D5F8980040F0DE
:103CA0000060C5F898007720C4F8A400C5F8A40007
:103CB000D4F8A80020F08040C4F8A800D4F8A800E8
:103CC00040F08050C4F8A800D4F8A80040F4106078
:103CD000C4F8A800D4F8B00040F00700C4F8B00061
:103CE000D5F8A80020F08040C5F8A800D5F8A800B5
:103CF00040F08050C5F8A800D5F8A80040F45860FE
:103D0000C5F8A800D5F8B00040F00700C5F8B0002D
:103D1000E06B40F00100E063E86B40F01000E86306
:103D2000606C40F001006064686C40F00100686401
:103D3000206820F0010020602068C0071FBF2068B5
:103D40005FEAC07020685FEAC07002D02068C007D8
:103D5000F2D1286820F0010028602868C00709D047
:103D60002868C0071CBF28685FEAC07002D02868B6
:103D7000C007F2D1BDE8F0872DE9F04F81B04AF2DB
:103D800050070446C4F200074AF2B449002807F578
:103D900080604FF01001C4F2000902BF4AF25000E7
:103DA000C4F2000001214B4643F65068002C026823
:103DB00008BF07F15403C2F20048114301601868BC
:103DC00098F80110C0F30525012935D1B4FA84F023
:103DD00040F2CC214009C2F2004101EB001630460E
:103DE000FFF7B2FD4828C0F0A6803046FFF754FC2C
:103DF000FF2800F0A080B2462A465AF80C0FD3469E
:103E00003BF80A1D0144204600F0F6F8BBF800001C
:103E1000DAF8001008444179007949073ED4411E80
:103E2000072900F255800820DFE801F00446484ADF
:103E30004C4E506B012064E098F80500012840F0DA
:103E40007A8040F2CC20C2F2004000EB0410FFF771
:103E50007BFD4828C0F06F8040F2AC20C2F20040E9
:103E600000EB04163046FFF717FCFF2800F06380D4
:103E70007088F1682A460144204600F0BDF800F041
:103E800087FB7188F268034620460A444FF0804160
:103E900000F036F93046FFF70BFC4CE0811E0D298F
:103EA0001CD80820DFE801F0080A0C0E10122D20A3
:103EB000222426282A2C00BF022022E0032020E012
:103EC00004201EE005201CE006201AE0072018E070
:103ED000002818BF0120C00013E000BF0138B0FA6D
:103EE00080F040090DE000BF0C200AE0102008E03F
:103EF000142006E0182004E0202002E0302000E03A
:103F0000402098F8051000F1080801290CD100F0B4
:103F10003FFBBBF80010DAF80020034620460A44B5
:103F20004FF0804100F0ECF83046414600F044F894
:103F30003046FFF7BDFB09F10400002C08BF07F174
:103F40005800056001B0BDE8F08F000000000000DF
:103F500043F6736040F60C41C2F2004041F2021297
:103F6000C0F20632018248F60171C1F630010160EB
:103F700082604160C260704703884288934217D0D4
:103F8000194405D28BB2934212D80180704700BF0A
:103F9000934298BF70478BB2C2889A4202D20021E6
:103FA00001807047521A92B2472A98BF00210180BF
:103FB00070470000000000004388C28803EB010C3A
:103FC000A2EB0C0291B20288472905D8002A08BF4B
:103FD0007047002141807047934207D21FFA8CF14D
:103FE000914238BFA0F802C0704700BFA0F802C0DD
:103FF00070470000000000004AF60043C4F20003CE
:1040000020B1012818BF704703F59063B0B502EBEB
:10401000C2004A790224042553F830E002F0FE027F
:1040200003EBC00C42EADE724A7153F830E002F052
:10403000FD0204EA5E7E72444A71DCF8044002F03C
:10404000FB0205EAD444082522444A71DCF8044006
:1040500002F0F70205EA5444BEF1000F22444A710F
:1040600053F8300020F0604208BFC0F38A420A6073
:10407000DCF80400C0F303420A7185EA10404FF6F1
:10408000FF4500F00F0301F10800DD40ED07DCF80B
:104090000450CD800AD1511EB1FA81F14A090CF1C8
:1040A0000801BDE8B040FCF78DB900BF04A151F88C
:1040B00023200CF10801BDE8B040FCF783B900BF34
:1040C000080000000C0000001000000014000000B8
:1040D0001800000020000000300000004000000038
:1040E00008000000080000000200000003000000BB
:1040F00004000000050000000600000007000000AA
:10410000B0B543F618442325C2F200442570154685
:10411000607018686060486A400860801046FFF769
:10412000D3FA43F650610346C2F200418A7D012A68
:1041300008D12868D1F8172090420DD9D1F81B106A
:10414000884209D243F618400821C2F200402A46AC
:10415000FEF73EF9C0B2B0BD0120B0BD00000000C6
:10416000C9B243F6D472C2F20042136B9279184777
:1041700043F6D473C2F20043DA79D3F834C003466D
:10418000084619466047000080B5C9B243F6D473AB
:10419000C2F2004393F804C0D3F82CE01346624601
:1041A000F446BDE88040604780B5C9B243F6D47399
:1041B000C2F2004393F804C0D3F828E013466246E5
:1041C000F446BDE8804060472DE9F04741F2B4482D
:1041D0000D46C2F200488246D8F80090B9F1BF0FF0
:1041E00010D143F620409C21C2F200404FF000095C
:1041F000C8F80090FCF75DF928040CD10120BDE857
:10420000F08700BF09EB0500291ABF2888BFA1F17C
:1042100040052804F2D0AAB241F2F430C2F20040C4
:10422000002300EB0901002043F001061AF80050BA
:10423000F6B20D54B2421DD90AEB000543F0020755
:10424000FFB20E186C78BA4274701BD943F00307A2
:10425000AC78FFB2B470BA421CD90433ED78DFB247
:104260000430BA42F570DFD84844C8F80000012095
:10427000BDE8F08748440130C8F800000120BDE8DF
:10428000F08700BF48440230C8F800000120BDE8B4
:10429000F08700BF48440330C8F800000120BDE8A3
:1042A000F08700000000000043F6886CC2F2004C6A
:1042B000DCF800208A4202464FF0000017D8DCF8F4
:1042C00004308B4238BF7047012A07D072B99CF87E
:1042D00008000138022809D2FF2070479CF8080026
:1042E00040F00200022804BFFF2070470020704702
:1042F000B0B540F25005C2F200452868012805D14A
:104300000320286000F038F8022803D1022028603A
:10431000B0BD00BF0446FFF783F80CB30168B1F5E8
:104320002A6F17D140F2A82143F65064C2F200412F
:10433000C2F2004480220A70617801290AD1022168
:104340006170E17002F0A8FA01206070E070022054
:104350002860B0BD02F0A0FA02202860B0BD00BF06
:1043600040F2A8201021C2F200400170FFF760F86F
:1043700002202860B0BD00002DE9F04141F2B440B8
:1043800041F2F435C2F20040FF220026C2F200459D
:1043900001680023002705E09F1E00BF0133DEB245
:1043A000B1420BD3741914F8014C402CF6D1AE5D18
:1043B000452EF1D0532EF1D15A1CEFE7D4B2FEB204
:1043C000A64211D9301B072804DB285D232818BF1B
:1043D00040281BD143F620400121C2F20040016079
:1043E0000220BDE8F08100BFC0290BD30024046087
:1043F00043F620409C21C2F20040FCF75AF82046C8
:10440000BDE8F0810220BDE8F08100BF28194178A5
:10441000232918BF4029DDD08178232918BF4029DE
:10442000D8D0C178232918BF4029D3D001792329B6
:1044300018BF4029CED04179232918BF4029C9D0BF
:104440008179232918BF4029C4D0C179232918BFF5
:104450004029BFD002F020FD43F6204804F10801B6
:10446000C2F20048B142C8F8000003D90120BDE8FB
:10447000F08100BF04F10907012407E012F8011CD4
:10448000212921D0781E0137B042B8D2EA1912F89A
:10449000030C2328F2D1D8F8880010285AD212F839
:1044A000021C12F8010C02F0CFFDD8F8881041442C
:1044B00081F88C00D8F888000130C8F88800781E90
:1044C0000137B042E2D39AE712F8061C12F8053C15
:1044D0001B0443EA01610023C4F23F0319409942DF
:1044E00038D112F8041C02F0AFFD811BC8F804009B
:1044F000394401292ED10028B8D008F108003946E6
:1045000001246A5C4B1C0270D8F804203A44013A3A
:104510009342ABD86A188E1C53784370D8F8043095
:104520003B44013B9E429FBF93788370D8F8043090
:104530003B449EBFCE1C013B9E4297D8D2780431AB
:10454000C2700430D8F804203A44013A9142D8D9D4
:1045500055E700BF0120C8F800000220BDE8F08147
:1045600040F21420C2F2004070470000000000003A
:1045700040F22420C2F2004070470000000000001A
:1045800043F65060C2F20040704700000000000097
:1045900043F64C50C2F2004070470000000000009B
:1045A00043F6D470C2F200407047000000000000E3
:1045B0002DE9F047002A00F09D80531E02F0030C05
:1045C000032B07D200234FF0000ABCF1000F76D175
:1045D00090E000BF22F0030200F10108C2F1000EDA
:1045E0004FF0000A6FF003044FF0370908EB0406A0
:1045F0000434F3781F099F2B07F130055FFA8AF71F
:104600000AF1080A88BF09EB1315CD5547F00105DB
:10461000F37803F00F0303F13002092B88BF03F195
:10462000370247F002034A55327915099F2A05F1EE
:10463000300588BF09EB1215CD5447F003033279DA
:1046400002F00F0202F13005092A88BF02F1370596
:10465000CD5447F00403727915099F2A05F13005FE
:1046600088BF09EB1215CD5447F00503727902F0AB
:104670000F0202F13005092A88BF02F13705CD5437
:1046800047F00603B27915099F2A05F1300588BF66
:1046900009EB1215CD5447F00703B2790EEB04066F
:1046A00002F00F0202F13005092A88BF02F1370536
:1046B000321DCD549AD1231DBCF1000F1AD0C65C17
:1046C00037275FFA8AF435099F2E05F1300588BF38
:1046D00007EB16150D5544F00105C65C06F00F06F4
:1046E00006F13004092E88BF06F13704BCF1010F32
:1046F0004C5501D1BDE8F08718440AF10203DBB242
:10470000427816099F2A06F1300688BF07EB121679
:10471000CE5443F00103427802F00F0202F1300759
:10472000092A88BF02F13707BCF1020FCF5408BF36
:10473000BDE8F08782780AF10403DBB23726170957
:104740009F2A07F1300788BF06EB121743F00102DA
:10475000CF54807800F00F0000F13003092888BFA3
:1047600000F137038B54BDE8F08700000000000023
:1047700043F6D471C2F200410888192801D3002001
:10478000088043F2E932002048804FF064304860EE
:1047900040F6FF70C1E902000861C0F60002C1E9FD
:1047A000050243F2B93043F21143C0F60000C0F6EF
:1047B0000003C1E9072043F2D13043F21942C0F6A9
:1047C0000000486243F20140C0F60002C0F600005B
:1047D0008A6243F20942C1E90B300020C0F60002B0
:1047E0004A637047000000007047000000000000AE
:1047F00080B5FFF7D1F8007AFF2803D0BDE88040EC
:10480000FFF7DAB8FFF7A4FBBDE88040FFF7D4B8A4
:1048100080B541F6000140F6004CC5F60201C5F630
:10482000020C4FF6244E0868CFF6FF7E20F00300FE
:104830000860086840F001000860886820F0030004
:10484000886041F60C00C5F60200026822F00302FF
:104850000260026842F002020260426942F0010214
:1048600042610A6822F00C020A600A6842F00402FF
:104870000A608A6822F00C028A60026822F00C0248
:104880000260026842F008020260426942F01002CF
:104890004261DCF8002822F04042CCF80028DCF825
:1048A000002842F08042CCF800284FF60842CFF6AC
:1048B000FF728B5823F040438B504FF60C43CFF6DA
:1048C000FF73C85820F04040C850C85840F000401E
:1048D000C85051F80E0040F0805041F80E004FF6DD
:1048E000004E40F20041CFF6FF7EC5F6020151F8BE
:1048F0000E0020F0C00041F80E00885820F0C000E3
:104900008850C85820F0C000C850C85840F0400037
:10491000C850885840F0C00088504FF61840CFF675
:10492000FF700A5842F400220A50086840F22442FC
:1049300020F4402008608868C5F6020220F4402078
:10494000886052F8180C20F4402042F8180C0868CF
:1049500040F400200860106840F0100010601068FB
:1049600040F080001060086820F4403008608868DB
:1049700020F44030886052F8180C20F4403042F89F
:10498000180C086840F400300860106840F001001E
:104990001060106840F008001060086820F4405073
:1049A0000860886820F44050886052F8180C20F4A1
:1049B000405042F8180C086840F40050086052F863
:1049C000040C40F0807042F8040C52F8040C40F0E3
:1049D000006042F8040C086820F4406008608868B1
:1049E00020F44060886052F8180C20F4406042F8CF
:1049F000180C086840F40060086052F8040C40F499
:104A0000801042F8040C52F8040C40F4000042F804
:104A1000040C086820F440400860886820F4404096
:104A2000886052F8180C20F4404042F8180C0868CE
:104A300040F48040086052F8040C20F0704042F8C6
:104A4000040C52F80C0C40F4000042F80C0C0868FE
:104A500020F04070086052F8180C20F0407042F8C6
:104A6000180C886820F040708860086840F08070FA
:104A7000086052F80C0C40F4805042F80C0C0868A6
:104A800020F040600860886820F04060886052F83C
:104A9000180C20F0406042F8180C086840F00060E4
:104AA0000860106840F480101060106840F48000C6
:104AB0001060086820F040500860886820F040507E
:104AC000886052F8180C20F0405042F8180C086822
:104AD00040F000500860106840F08070106010686E
:104AE00040F080601060086820F0404008608868EE
:104AF00020F04040886052F8180C20F0404042F806
:104B0000180C086840F000400860106840F08050C1
:104B10001060106840F080401060DCF8000020F069
:104B20000300CCF80000DCF8000040F00100CCF8F5
:104B30000000DCF8080020F00300CCF80800DCF8E6
:104B40000C0020F00300CCF80C00DCF80C0040F066
:104B50000200CCF80C00DCF8200040F00100CCF89A
:104B6000200080BD0000000043F65060C2F200400B
:104B70004178FF290ED0C1780222C2710129C27486
:104B800040F20222A0F8052013D0FF2916D10121FE
:104B9000C1700EE00121C1700221417340F2022276
:104BA000428204230370602380F82230C171A0F890
:104BB000052001214170022101710172417D0D39F1
:104BC000F2294FF00701017501D30D214175817D57
:104BD000FF2918BF7047022181757047000000004F
:104BE00043F6BC40C2F200407047000000000000E5
:104BF00010B58288012A05D14A7903680B6042F01A
:104C0000020206E002884B79120412BA0A6003F02D
:104C1000FD024A71B0F806C081F804C0BCF1000F73
:104C200008BF10BD0831002350FA83FE43F0010293
:104C3000D4B29EF808E0A44581F800E01FD950FAEC
:104C400082FE43F00202D4B29EF808E0A44581F847
:104C500001E014D950FA82FE43F00302D4B29EF868
:104C600008E0A44581F802E009D950FA82F2043341
:104C7000DCB2127AA445CA7001F10401D4D810BD87
:104C8000B0B50A79931E0D2B4CD84FF0070CDFE816
:104C900003F04F53575B5F0907070707070707072D
:104CA0004FF0080CA0F806C04A7992070A6805D4AC
:104CB000427000230A68120A027001E002600123B8
:104CC000BCF1000F838008BFB0BD0831002300BFD6
:104CD00050FA83FE43F00102D4B20D78A4458EF859
:104CE00008501DD950FA82FE43F00202D4B24D782A
:104CF000A4458EF8085013D950FA82FE43F00302FF
:104D0000D4B28D78A4458EF8085009D950FA82F2B1
:104D10000433DDB2CC78AC4501F104011472D7D86C
:104D2000B0BD00BF013AB2FA82F24FEA521CB9E7B5
:104D30004FF0020CB6E700BF4FF0030CB2E700BF24
:104D40004FF0040CAEE700BF4FF0050CAAE700BF20
:104D50004FF0060CA6E70000FBF716FC012800F058
:104D60008980002001F0E4FFFEF772FB72B6FFF7C6
:104D70004FFDFCF761FE012000F076FA43F650612A
:104D80002322C2F2004100F0B7FBFFF7EDFEFFF770
:104D90002BFD002000F068FA0446FFF701FC0146F5
:104DA0000822204600F0A8FBFFF7E2FC012803D10F
:104DB00041F6FF70FBF788FE022000F055FA04462A
:104DC000FEF7F2FD01462322204600F095FB02F09B
:104DD00007FAFFF70DFD4EF20010CEF200004FF47F
:104DE000002170224FF4801301604EF21341CEF285
:104DF00000010A7003604A704FF080520260B022D6
:104E00004A724FF00052026060208872FEF728F864
:104E1000FDF756FF41F6180062B6C5F602004FF0E6
:104E20008042016841F48031016042F2283044F64A
:104E30001E6101F0B9FF102440F23425C5F60204CA
:104E4000C2F20045FF2603E0FFF752FA00F014F823
:104E50002068000701D401F0CBFF01F019FF2E609C
:104E600028680028A0F101002860EDD001F07CFB4B
:104E7000F6E700BFFEF730F840F2A820C2F200408B
:104E8000017891B141784A1C42700078814218BF84
:104E9000704741F61800C5F6020050F8041CC90717
:104EA000016803D141F001010160704741F4803194
:104EB000016070470000000070B548F2E132B0F5C3
:104EC000043FC3F60F6213D3A0F504300124A0FB06
:104ED0000235EB0B04EBD53C03EB4313A0EB0330A3
:104EE000B0F5046F09D2002310F4784F14D11EE0FE
:104EF0004FF0000CB0F5046FF5D3A0F50460012568
:104F0000A0FB02235A0A05EB532302EB4212A0EB4B
:104F1000821010F4784F0AD0581C82B2402A08BF81
:104F20000CF1010CB2F1400318BF034600201FFA38
:104F30008CF20025B5EB922F40F2EC22C2F2004237
:104F400040F6400518BF4FF0000CC0F60005C2F84F
:104F50001A508DB2A2F814C0B5F5006FD382108339
:104F60004FF04005D58305D96146A1EB0C00013017
:104F700080B270BD0844108381B2B1F5006F05D2D4
:104F80006146A1EB0C00013080B270BD40F2FF3EE3
:104F9000002461460CE000BF0133A0F500609DB223
:104FA0001083402DD38215D285B2B4EBD52FDCD03F
:104FB0008DB27545F0D39EB23E2ED6D8A0F50060D6
:104FC000754503F101031083D382EDD39DB23F2DCC
:104FD000EAD1CAE700230131D3829182E4E70000DD
:104FE0002DE9F04782B040F2EC2A0446C2F2004AB2
:104FF00040F6400957460122C0F60009402557F8FF
:10500000140F3B46796847F80C0CB8683C8047E9B8
:10501000021001210020ADF806000DF10600C0F6D7
:105020000001C7F80210012100F10108C7F806903D
:1050300001267D81009600F0BFFA01200121C0F613
:105040000100C7F80200012240463B463C80C7F8F9
:1050500006907D81009600F0AFFA9DF8060098B3A7
:105060009DF8070080B356460220C0F600000121DB
:1050700026F8144F0122C6F802000DF1060033464F
:10508000C6F80690402575810127009700F094FA34
:1050900002200121C0F60100C6F8020001224046AC
:1050A00033463480C6F806907581009700F084FA84
:1050B0009DF806009DF80710B0FA80F0B1FA81F172
:1050C0004009490940EA0106DAF80800CAF8140064
:1050D000DAF80C00CAF81800DAF81000CAF81C0058
:1050E000304602B0BDE8F08740F2EC21C2F2004148
:1050F000D1E9002302440A60181A48607047000092
:10510000F0B581B00546FFF76BFF012800F08880FD
:1051100001F03EF8012803D100F0EAFF80E000BF73
:1051200040F2184643F60004C5F60206C4F2000435
:10513000D821AF01306840F08050306000BF00BF20
:1051400000BF00BF00BF00BF00BF00BF00BF00BF67
:1051500000BF00BF2046FCF783FCF9B22046FCF7F5
:105160007FFCC5F387012046FCF77AFC002120462E
:105170000025FCF775FC306840F48050306000BFBB
:1051800000BF00BF00BF00BF00BF00BF00BF00BF27
:1051900000BF00BF00BF4FF6FF70009000980028CE
:1051A000A0F1010000903BD030680F2140F080500A
:1051B000306000BF00BF00BF00BF00BF00BF00BF26
:1051C00000BF00BF00BF00BF00BF2046FCF748FC87
:1051D000C0212046FCF744FC2046FCF711FC316856
:1051E00000F0010041F48051316000BF00BF00BFFA
:1051F00000BF00BF00BF00BF00BF00BF00BF00BFB7
:1052000000BF00994A1E009245F10001002818BF16
:105210000029C9D120B901B0BDE8F04000F068BF55
:10522000012001B0F0BD0000B0B504460D1800BF6C
:10523000A0B2FFF7D5FE20B10134A0B28542F7D26B
:105240000024A0B2B0BD000040F2EC20C2F2004049
:10525000006870470000000040F2EC20C2F20040FD
:10526000406870470000000030B1022806D00128D5
:105270000ED11E2003E000BF0A2000E0322080B5DE
:105280001321FFF7D1FF00EB4010000380BD00BFEA
:1052900041F26D00C0F20200704700000000000003
:1052A00048F2E13CB0F5043FC3F60F6C16D3A0F50D
:1052B0000430A0FB0C13D90B01EB4112012101EBCF
:1052C000D331A0EB023080B5B0F5046F0BD24FF0B4
:1052D000000E10F4784F15D11FE000BF002180B5FB
:1052E000B0F5046FF3D3A0F50460A0FB0C235A0AB9
:1052F00002EB421C012202EB532EA0EB8C1010F4A7
:10530000784F0AD00EF1010082B2402A08BF013165
:10531000B2F1400E18BF864600208BB20022B2EBDD
:10532000932F40F2EC22C2F2004218BF00211083FA
:1053300040F64000C0F60000C2F81A0088B2918220
:10534000A2F816E04021D18380BD000000000000DB
:1053500070B540F2184643F60005C5F60206C4F2E1
:10536000000504462846316841F08051316000BF95
:1053700000BF00BF00BF00BF00BF00BF00BF00BF35
:1053800000BF00BF00BF0F21FCF76AFB2846214683
:10539000FCF766FB2846FCF733FB316841F480518B
:1053A000316000BF00BF00BF00BF00BF00BF00BF33
:1053B00000BF00BF00BF00BF00BF70BD0000000005
:1053C00070B582B040F2184643F60004C5F60206F6
:1053D000C4F2000405462046316841F08051316036
:1053E00000BF00BF00BF00BF00BF00BF00BF00BFC5
:1053F00000BF00BF00BF00BF0F21FCF731FBA021A1
:105400002046FCF72DFB2046FCF7FAFA316841F400
:105410008051316000BF00BF00BF00BF00BF00BFB0
:1054200000BF00BF00BF00BF00BF00BF8DF8070076
:105430001F21306840F08050306000BF00BF00BFC7
:1054400000BF00BF00BF00BF00BF00BF00BF00BF64
:1054500000BF9DF80700A8438DF807002046FCF721
:10546000FFFAA0212046FCF7FBFA9DF80710204622
:10547000FCF7F6FA30680F2140F48050306000BF2E
:1054800000BF00BF00BF00BF00BF00BF00BF00BF24
:1054900000BF00BF00BF306840F08050306000BFE8
:1054A00000BF00BF00BF00BF00BF00BF00BF00BF04
:1054B00000BF00BF00BF2046FCF7D2FAA021204663
:1054C000FCF7CEFA2046FCF79BFA316841F4805194
:1054D000316000BF00BF00BF00BF00BF00BF00BF02
:1054E00000BF00BF00BF00BF00BF8DF807009DF8E0
:1054F000070002B070BD000070B582B048F2E1361E
:105500008446B0F5043F0846C3F60F6614D3ACF5E5
:1055100004330125A3FB0614E10B05EBD43E01EB9C
:105520004111A3EB013CBCF5046F0AD200211CF42D
:10553000784F15D11FE000BF4FF0000EBCF5046F8F
:10554000F4D3ACF50463A3FB0616710A01EB411515
:10555000012101EB5621A3EB851C1CF4784F0AD0E6
:105560004B1C4FF0000C99B2402908BF0EF1010E00
:10557000403918BF19461FFA8EF30024B4EB932F5D
:1055800040F2EC2318BF4FF0000EC2F2004300942B
:1055900023F814EF598040F64001C0F60001C3F82B
:1055A00006104021598191B24FF48072A3F804C0D3
:1055B00000F002F802B070BD2DE9F04F87B09142C3
:1055C000059003D9012007B0BDE8F08F0C46109874
:1055D0000621002808BF082117461E46585A049184
:1055E00003901888598800F083F9002C00F07C8122
:1055F000002201970AE000BF069C4A4609EB080218
:10560000A4EB0804019F200400F06E81B6F804901A
:105610000398A1B2A0EB09081FFA88F0814298BF55
:10562000A0461FFA88FABA4502D0BA45EBD2ACE0E0
:1056300040F218450694C5F6020543F6000BC4F285
:10564000000B0321286840F08050286000BF00BF95
:1056500000BF00BF00BF00BF00BF00BF00BF00BF52
:1056600000BF00BF0598029210FA82F45846FCF77A
:10567000F7F9C9F303215846FCF7F2F95FFA89F10B
:105680005846FCF7EDF9FF215846FCF7E9F9584672
:1056900021463A4640F2FF39FCF7C2F9286840F447
:1056A0008050286000BF00BF00BF00BF00BF00BF28
:1056B00000BF00BF00BF00BF00BF00BF0498345A46
:1056C000BC425BD3B088C119B18088B2A04255D327
:1056D00030887288484501D33E2A4FD80B1B511C95
:1056E0008AB27589B380AA42718005D2484507D332
:1056F0003E2A05D942E000BF002101307180308090
:1057000080B289B200F0F4F84FF6FF7000BF00BF1E
:1057100000BF00BF00BF00BF00BF00BF00BF00BF91
:1057200000BF00BF00BF00BF00BF00BF00BF00BF81
:1057300000BF00BF00BF00BF00BF00BF00BF00BF71
:1057400000BF00BF00BF00BF00BF00BF00BF00BF61
:1057500000BF00BF00BF00BF00BF00BF00BF00BF51
:1057600000BF00BF00BF00BF00BF00BF00BF00BF41
:1057700000BF3338CAD1B188A142A9D2029A069C8F
:105780003A44E41BBA45BFF43EAF40F2184B0694CE
:10579000C5F6020BB58843F600070321DBF80000CD
:1057A000C4F2000740F08050CBF8000000BF00BFFB
:1057B00000BF00BF00BF00BF00BF00BF00BF00BFF1
:1057C00000BF00BF0598914610FA82F43846FCF7F6
:1057D00047F9C5F303213846FCF742F9E9B23846E8
:1057E000FCF73EF9FF213846FCF73AF938462146E6
:1057F0005246FCF715F9DBF8000040F2FF3540F4A3
:105800008050CBF8000000BF00BF00BF00BF00BF4A
:1058100000BF00BF00BF00BF00BF00BF00BF0498B3
:10582000345A5445FFF4E8AEB08800EB0801B1806B
:1058300088B2A042FFF4E0AE30887288A84202D35A
:105840003E2A3FF6D9AE0B1B511C8AB27789B38032
:10585000BA42718004D2A84206D33E2A04D9CBE6CC
:10586000002101307180308080B289B200F040F8B0
:105870004FF6FF7000BF00BF00BF00BF00BF00BFFA
:1058800000BF00BF00BF00BF00BF00BF00BF00BF20
:1058900000BF00BF00BF00BF00BF00BF00BF00BF10
:1058A00000BF00BF00BF00BF00BF00BF00BF00BF00
:1058B00000BF00BF00BF00BF00BF00BF00BF00BFF0
:1058C00000BF00BF00BF00BF00BF00BF00BF00BFE0
:1058D00000BF00BF00BF00BF00BF3338CAD1B188CE
:1058E000A142A9D288E600BF002007B0BDE8F08F32
:1058F000F0B581B040F218460546C5F6020643F6FB
:10590000000401F03F00C4F20004326840EA851749
:1059100042F08052326000BF00BF00BF00BF00BF36
:1059200000BF00BF00BF00BF00BF00BF00BF13210A
:105930002046FCF795F8F9B22046FCF791F8C5F33C
:1059400087012046FCF78CF8002120460025FCF753
:1059500087F8306840F48050306000BF00BF00BF5F
:1059600000BF00BF00BF00BF00BF00BF00BF00BF3F
:1059700000BF4FF6FF70009000980028A0F10100D2
:10598000009033D030680F2140F08050306000BF6D
:1059900000BF00BF00BF00BF00BF00BF00BF00BF0F
:1059A00000BF00BF00BF2046FCF75AF8C0212046C8
:1059B000FCF756F82046FCF723F8316841F4805193
:1059C000316000BF00BF00BF00BF00BF00BF00BF0D
:1059D00000BF00BF00BF00BF00BF00994A1E009279
:1059E00045F10001C00718BF0029CBD101B0F0BDBF
:1059F000F0B581B048F2E13E8446B0F5043F084678
:105A0000C3F60F6E14D3ACF5043CACFB0E13D90BEC
:105A100001EB41114C42012101EBD3310CEB043C71
:105A2000BCF5046F4FF0000708D24FF0000E11E0F4
:105A30000021BCF5046F4FF00007F6D3ACF5046409
:105A40000126A4FB0E356B0A06EB552E03EB431320
:105A5000A4EB831C40F2EC23B7EB912F18BF00217D
:105A6000C2F200430127009723F8141F40F64001BB
:105A7000C0F60001C3F806104021598191B24FF4DD
:105A80008072A3F802E0A3F804C0FFF795FD01B00F
:105A9000F0BD00000000000070B582B0154648F26D
:105AA000E132B0F5043F0C46C3F60F6214D3A0F503
:105AB0000430A0FB0213D90B01EB4116012101EBCD
:105AC000D331A0EB0630B0F5046F09D2002210F4F8
:105AD000784F14D11CE000BF0021B0F5046FF5D35E
