:020000040800F2
:1000000080A0002021020008250200082702000825
:10001000290200082B0200082D0200080000000041
:100020000000000000000000000000002F02000897
:100030003102000800000000330200083502000809
:1000400037020008370200083702000837020008AC
:10005000370200083702000837020008370200089C
:10006000370200083702000837020008370200088C
:10007000370200083702000837020008370200087C
:100080003702000837020008370200081906000886
:10009000550400083702000811050008370200085F
:1000A00037020008851D00083702000837020008E3
:1000B000D51D000837020008370200083702000883
:1000C000370200083702000837020008370200082C
:1000D000370200083702000837020008370200081C
:1000E000370200083702000837020008370200080C
:1000F00037020008370200083702000837020008FC
:1001000037020008370200083702000837020008EB
:1001100037020008370200083702000837020008DB
:1001200037020008370200083702000837020008CB
:10013000370200080000000000000000C9080008A5
:100140001907000837020008C1070008AD140008AD
:10015000370200083702000837020008370200089B
:10016000370200083702000837020008370200088B
:1001700037020008370200080000000000000000FD
:100180003702000800F002F800F03AF80AA090E800
:10019000000C82448344AAF10107DA4501D100F042
:1001A0002FF8AFF2090EBAE80F0013F0010F18BFD5
:1001B000FB1A43F001031847F450000014510000EB
:1001C000103A24BF78C878C1FAD8520724BF30C883
:1001D00030C144BF04680C60704700000023002455
:1001E00000250026103A28BF78C1FBD8520728BF47
:1001F00030C148BF0B6070471FB51FBD10B510BDA3
:1002000000F0EDF81146FFF7F7FF03F0A1FF00F053
:100210000BF903B4FFF7F2FF03BC00F013F9000081
:1002200008480047FEE7FEE7FEE7FEE7FEE7FEE7D9
:10023000FEE7FEE7FEE7FEE703480449044A054BF4
:100240007047000085010008809A002080A00020EF
:10025000809C0020809C0020032A40F2308010F017
:10026000030C00F0158011F8013BBCF1020F624451
:1002700098BF11F801CB00F8013B38BF11F8013BE2
:10028000A2F1040298BF00F801CB38BF00F8013B8F
:1002900011F0030300F02580083AC0F0088051F8FF
:1002A000043B083A51F804CBA0E80810F5E7121D0A
:1002B0005CBF51F8043B40F8043BAFF30080D20729
:1002C00024BF11F8013B11F801CB48BF11F8012BF5
:1002D00024BF00F8013B00F801CB48BF00F8012B18
:1002E000704710B5203AC0F00B80B1E81850A0E874
:1002F0001850B1E81850A0E81850203ABFF4F5AFF4
:100300005FEA027C24BFB1E81850A0E8185044BF4F
:1003100018C918C0BDE810405FEA827C24BF51F8BC
:10032000043B40F8043B08BF7047D20728BF31F8B0
:10033000023B48BF11F8012B28BF20F8023B48BF01
:1003400000F8012B70474FF000020429C0F0128022
:1003500010F0030C00F01B80CCF1040CBCF1020F78
:1003600018BF00F8012BA8BF20F8022BA1EB0C014D
:1003700000F00DB85FEAC17C24BF00F8012B00F843
:10038000012B48BF00F8012B70474FF0000200B569
:10039000134694469646203922BFA0E80C50A0E8A8
:1003A0000C50B1F12001BFF4F7AF090728BFA0E856
:1003B0000C5048BF0CC05DF804EB890028BF40F822
:1003C000042B08BF704748BF20F8022B11F0804F64
:1003D00018BF00F8012B704770477047704775468B
:1003E00000F02CF8AE4605006946534620F00700A1
:1003F000854618B020B5FFF71FFFBDE820404FF03D
:1004000000064FF000074FF000084FF0000BAC461D
:10041000ACE8C009ACE8C009ACE8C009ACE8C00968
:1004200021F007018D46704710B50446AFF30080F8
:100430002046BDE81040FFF7ECBE000000487047C2
:100440003800002001491820ABBEFEE7260002005C
:1004500070470000B0B582B046F20C44C4F200040C
:10046000206880074DD049F20065C2F20005687926
:10047000012815D103F0D4FB49F6F43140F22413DE
:100480008446A4F10C002144C2F200030022CDF8FE
:1004900000C002F095FD6878012832D10EE000BF5F
:1004A00040F22411C2F20001A4F10C0001F1080293
:1004B000002100F059FE6878012822D1E87801284F
:1004C00012D12879012808D140F22410C2F200008C
:1004D0000830012102F074FC98B140F22410C2F2FD
:1004E0000000083002F074FB40F22411C2F2000157
:1004F00004F57D70083100F0F7FE042818BF00F005
:10050000B7FF206840F02000206002B0B0BD0000BE
:10051000B0B546F20844C4F20004E06840F2541555
:1005200020F40060E060C2F2000544F20C0029589B
:10053000013129502068C00719D02068216800F0D7
:10054000040001F008014018206810D02068022142
:1005500040F00F00206044F2480029544FF48040DE
:10056000285844F218016A18002100F035FE20686E
:10057000C0051BD52068042101EA1020216808224B
:1005800002EA11214018206810D02068022140F4AE
:100590007060206044F2490029544FF4804028588C
:1005A00044F228016A18012100F016FE2068C003F9
:1005B0001BD52068042101EA10402168082202EAC4
:1005C00011414018206810D02068022140F47020AA
:1005D000206044F24A0029544FF48040285844F2E5
:1005E00038016A18022100F0F7FD54F8040C4007A6
:1005F00005D554F8040C40F0040044F8040C2069BC
:1006000010F0700F03D0206920F070002061E068C6
:1006100040F40060E060B0BD10B546F20844C4F29A
:1006200000042068C00719D020682068206821686D
:10063000800741F00101216014D440F25411C2F24C
:10064000000144F2480002220A544FF48040085846
:1006500044F218020A44002100F0BEFD2068C005E3
:100660002ED50AE040F25410C2F2000044F24801D4
:10067000002242542068C00522D5206820682068E6
:100680002168800541F48071216011D440F2541139
:10069000C2F2000144F2490002220A544FF48040A1
:1006A000085844F228020A44012100F095FD07E0B1
:1006B00040F25410C2F2000044F2490100224254B8
:1006C0002068C00358BF10BD2068206820682168DA
:1006D000800341F48031216014D440F25413C2F2FB
:1006E00000034FF4804044F24A0C0224185844F2AC
:1006F00038015A18022103F80C40BDE8104000F000
:100700006BBD00BF40F25410C2F2000044F24A0137
:100710000022425410BD00002DE9F04182B046F69F
:100720000C06C4F200063068800741D049F2006729
:10073000C2F20007B87946F6000440F23C18C4F251
:1007400000040128C2F2000812D103F069FA40F255
:100750003C1300210546C2F20003C4F20101204609
:100760000022009502F02CFCF878012809D015E051
:1007700008F108022046002100F0F6FCF878012874
:100780000CD108F10805284602F018FB3879012839
:1007900004D12846022102F013FB48B1A4F5806081
:1007A00008F1080100F0A0FD042818BF00F060FE69
:1007B000306840F02000306002B0BDE8F0810000F9
:1007C000B0B546F60804C4F20004E06840F25415DF
:1007D00020F40060E060C2F2000548F25C00295895
:1007E000013129502068C00719D02068216800F025
:1007F000040001F008014018206810D02068022190
:1008000040F00F00206048F29800295448F2500050
:10081000285848F268016A18002100F0DDFC2068C1
:10082000C0051BD52068042101EA10202168082298
:1008300002EA11214018206810D02068022140F4FB
:100840007060206048F29900295448F250002858FE
:1008500048F278016A18012100F0BEFC2068C0034C
:100860001BD52068042101EA10402168082202EA11
:1008700011414018206810D02068022140F47020F7
:10088000206048F29A00295448F25000285848F253
:1008900088016A18022100F09FFC54F8040C4007FC
:1008A00005D554F8040C40F0040044F8040C206909
:1008B00010F0700F03D0206920F070002061E06814
:1008C00040F40060E060B0BD10B546F60804C4F224
:1008D00000042068C00719D02068206820682168BB
:1008E000800741F00101216014D440F25411C2F29A
:1008F000000148F2980002220A5448F250000858B9
:1009000048F268020A44002100F066FC2068C00535
:100910002ED50AE040F25410C2F2000048F29801CD
:10092000002242542068C00522D520682068206833
:100930002168800541F48071216011D440F2541186
:10094000C2F2000148F2990002220A5448F2500013
:10095000085848F278020A44012100F03DFC07E003
:1009600040F25410C2F2000048F2990100224254B1
:100970002068C00358BF10BD206820682068216827
:10098000800341F48031216014D440F25413C2F248
:10099000000348F2500048F29A0C0224185848F21A
:1009A00088015A18022103F80C40BDE8104000F0FD
:1009B00013BC00BF40F25410C2F2000048F29A018A
:1009C0000022425410BD000010B549F22464C2F266
:1009D00000040A460146204602F09EFED4F81003A9
:1009E00000F00601022918BF10BD40F00400C4F851
:1009F0001003BDE8104000F02BB8000080B582B0B5
:100A000049F2006249F2D850C2F20002C2F200007C
:100A10004FF0FF31527D8161002180F82510C184A3
:100A200080F8242049F22460C2F2000003F082FB27
:100A30004AF6AB21CAF6AA21A0FB0101080900BAB7
:100A4000019001A8042101F0D1FA02B080BD00009C
:100A50002DE9F04182B049F2D858C2F2000849F2BB
:100A60002461C2F20001404603F0D6FC60B14AF6B0
:100A7000AB21CAF6AA21A0FB0101080900BA019026
:100A800001A8042101F0B2FA49F22465C2F200057E
:100A9000284603F095F8B0F5907F23D949F22466F3
:100AA000C2F20006304603F09BF8D8B196F8100366
:100AB000800635D4B8F8260042F2117200F10A0C13
:100AC0001FFA8CF19142A8F826C02FD342F206718A
:100AD000A0EB010C98F82500A8F826C0013088F892
:100AE000250023E095F81003800613D4B8F826C03B
:100AF00098F82510BCF1000F08BF002924D0BCF1E4
:100B0000090F25D821BB4FF0000CA8F826C088F8A3
:100B100025C02BE04FF0000CC8F824C026E000BF31
:100B20004FF42020C8F824004FF00A0C49F200606E
:100B3000C2F20000007D072818D198F82400013087
:100B400088F8240012E000BF4FF0000C0EE000BF58
:100B5000BCF10A0F02D3ACF10A0C05E031B1481E1A
:100B600042F2067C88F82500A8F826C0D8F80410C0
:100B7000B8F81C500024A94238BF01244B1BB8F818
:100B80000220B8F81E600020B3FA83F77F09B24252
:100B900038BF01203840204308D1B24206D242F289
:100BA0000F70EB4310440B4405E000BF00281CBF4E
:100BB00000260B461046801B604487B242F20F7538
:100BC00042F2107CAF4288BFA0EB0C0098F82540A1
:100BD00098F824602344AF4288BF013303FB0C0024
:100BE000A8F81C104FF4BC51A8F8201081B2A8F846
:100BF0001E20B14238BF3046A8F8220081B24FF41F
:100C0000BC504FF0804204F063F802B0BDE8F081C0
:100C10002DE9F04F83B046F20047C4F20007D7F841
:100C20000022002522F47C52C7F80022D7F80022C7
:100C3000884642F00102C7F80022D7F80022824617
:100C400042F46062C7F80022D7F80422C7F80452C1
:100C5000D7F80C22C7F80C52D7F81422C7F8145250
:100C6000D7F81C22C7F81C52D7F84022C7F84052C8
:100C7000D7F84422C7F84452D7F8B022C7F8B05288
:100C8000D7F8B422C7F8B452D7F80C2243F640097B
:100C900042F00102C7F80C22D7F80C2240F20044BF
:100CA00042F48042C7F80C22D7F8142246F61C0BF7
:100CB000C7F81422D7F81C22C4F2020942F001013D
:100CC000C7F81C12D7F81C12C4F2020441F4804089
:100CD000C7F81C02D7F84002C4F2000BC7F8400264
:100CE000D7F84402C7F84402D7F8000220F0010008
:100CF000C7F8000201F01AFF78694FF4002140F4B0
:100D0000004078617869902240F00100786178694C
:100D10004FF4800340F4006078614EF20010CEF290
:100D2000000001604EF21341CEF200010A70036030
:100D30008023CB705BF8086C46F400464BF8086CD7
:100D40005BF8086C46F001064BF8086C5BF8086C21
:100D500046F400664BF8086C4FF00046466081F898
:100D60002C200422826081F82F300295206820F424
:100D700040302060A06820F44030A060E06820F49B
:100D80004030E060206840F400302060A06840F40B
:100D90004030A060606A40F001006062606A40F02C
:100DA00008006062206820F440202060A06820F4E1
:100DB0004020A060E06820F44020E060206840F41B
:100DC00000202060A06840F44020A060606A40F0ED
:100DD00010006062606A40F080006062D9F8000034
:100DE00040F00070C9F80000386840F00100386039
:100DF000386820F00200386002957868C00725D175
:100E000040F6FE700299814220D802990131029188
:100E10007968C9071AD10299814217D8029901311C
:100E200002917968C90711D1029981420ED80299BD
:100E3000013102917968C90708D10299814205D828
:100E40000299013102917968C907DBD07868C0073F
:100E500040D0F8695FFA8AF120F47020F861F869EF
:100E600020F4E000F861F86920F04070F861F8695A
:100E70000843F861F8690AF47F4140EA0120F8610B
:100E8000F8690AF47F0140EA0110F861F8690AF094
:100E90007F410843F861786940F002007861386862
:100EA00040F040003860386840F010003860386822
:100EB00020F001003860002002907868C00740F000
:100EC000F9807868C00705D17868800702D40020CF
:100ED00001E000BF012000210191226822F440625C
:100EE0002260A26822F44062A260E26822F44062BA
:100EF000E260226842F400622260A26842F440622A
:100F0000A260226A42F480122262226A42F4000243
:100F10002262226822F440522260A26822F44052E7
:100F2000A260E26822F44052E260226842F4005279
:100F30002260A26842F44052A260226A42F08072AB
:100F40002262226A42F000622262D9F8002042F056
:100F50008062C9F800203A6842F001023A60D7F88E
:100F6000002442F00102C7F80024D7F8002422F040
:100F70000202C7F8002401915BF8181CC90729D1A7
:100F800040F6FE71019A8A4224D8019A01320192F8
:100F90005BF8182CD2071DD1019A8A421AD8019AFF
:100FA000013201925BF8182CD20713D1019A8A42C0
:100FB00010D8019A013201925BF8182CD20709D19E
:100FC000019A8A4206D8019A013201925BF8182CE4
:100FD000D207D7D05BF8181CC90765D0DBF8001022
:100FE0005FFA88F221F47021CBF80010DBF80010D2
:100FF00021F4E001CBF80010DBF8001021F0407183
:10100000CBF80010DBF800101143CBF80010DBF830
:10101000001008F47F4241EA0221CBF80010DBF80F
:10102000001008F47F0241EA0211CBF80010DBF84F
:10103000001008F07F421143CBF800105BF8081C49
:1010400041F002014BF8081CD7F8001441F04001B0
:10105000C7F80014D7F8001441F01001C7F80014C5
:10106000D7F8001421F00101C7F80014396821F005
:1010700001013960002101915BF8181CC90747D1B3
:101080005BF8181CC9070FD15BF8181C89070BD433
:101090005BF80C1C41F020014BF80C1C00210843AC
:1010A00003B0BDE8F08F00BF0121084303B0BDE8E5
:1010B000F08F00BF40F6FE70029981423FF601AF0B
:1010C0000299013102917968C9073FF4FAAE029999
:1010D00081423FF6F6AE0299013102917968C90763
:1010E0003FF4EFAE029981423FF6EBAE0299013137
:1010F00002917968C9073FF4E4AE029981423FF654
:10110000E0AE0299013102917968C907D4D1D8E6DD
:1011100040F6FE71019A8A42B2D8019A01320192D8
:101120005BF8182CD207ABD0019A8A42A8D8019A52
:10113000013201925BF8182CD207A1D0019A8A42A1
:101140009ED8019A013201925BF8182CD20797D0F1
:10115000019A8A4294D8019A013201925BF8182CC4
:10116000D207D7D18CE7000000EB0110D0F8B031E6
:10117000D0F8B0115B0709D4490D00F5D873517050
:101180001968490F1170002103E000BFC908116000
:1011900001219180D0F8B411D180D0F8B81111722A
:1011A000D0F8B811090A5172D0F8B811090C91722F
:1011B000D0F8B811090ED172D0F8BC111173D0F863
:1011C000BC11090A5173D0F8BC11090C9173D0F805
:1011D000BC01000ED073704710B581B000EB011157
:1011E000D1F880010020C1F88001D1F88431C1F824
:1011F0008401D1F88831C1F88801D1F88C31C1F867
:101200008C01938801F5C07401F5C27C43B1D2F81A
:1012100000E0236843EACE034FF0040E23600CE0A5
:1012200092F801E0236843EA4E53236092F800E00D
:101230000EF01F0313704FEA4E7E236843EA0E033D
:101240002360D388DCF80000082B40EA0300CCF8C8
:1012500000002ED801F5C47092F808C0036801F5AB
:10126000C67143EA0C03036092F809C0036843EABD
:101270000C23036092F80AC0036843EA0C4303603E
:1012800092F80BC0036843EA0C630360107B0B68A1
:1012900018430860507B0B6843EA00200860907B8D
:1012A0000B6843EA00400860D07B0A6842EA0060AD
:1012B0000860206840F0010020600020009000BF1E
:1012C0000098411C009160B90098411C009140B900
:1012D0000098411C009120B90098411C0028009101
:1012E000EED001B010BD000070B540F25416C2F24D
:1012F00000064FF48042B258054682420C4607D0A1
:1013000048F250003058A8420CD0072070BD00BFF2
:1013100044F2100031582046884748F250003058B7
:10132000A842F2D148F26000315820468847072091
:1013300070BD000082B043F604000021C4F2020038
:101340000191009150F8041C41F4803140F8041CD4
:101350000099090A04290FD8012100BF019A5AB93E
:10136000009A0132009250F8042C920348BF019178
:10137000009AB2F5A06FF1D30199002974D0D0F88A
:10138000FC1341F00301C0F8FC13D0F8FC1341F446
:101390000071C0F8FC13D0F8FC1341F48061C0F870
:1013A000FC13D0F8FC1341F48071C0F8FC134168C1
:1013B0004160416841F400414160416841F480511D
:1013C0004160416841F48061416001680021016031
:1013D000016841F080710160016841F08061016045
:1013E000016841F400710160016841F480510160BD
:1013F000016841F400510160016841F00801016099
:10140000016841F002010160016841F4800101605E
:1014100050F8041C41F0807140F8041C50F8041C82
:1014200089015FBF50F8041C5FEA811150F8041C69
:101430005FEA811103D450F8041C8901EED541689C
:1014400041F0020141604168090709D44168090778
:101450005CBF41685FEA017102D441680907F2D5B7
:10146000002002B0704700BF012002B070470000AA
:1014700043F20000C4F200004AF6AA21016070475E
:1014800043F20001C4F2000145F2555200EB800026
:101490000A600622C0F357104A6088604AF6AA2004
:1014A00008604CF6CC400860704700002DE9F04F12
:1014B000A1B040F2140BC5F2000BDBF800000007EE
:1014C00056D4DBF80010DBF80000C90400F1A68058
:1014D000400300F1FB80DBF80010DBF8000009039B
:1014E00000F13481C00640F18382DBF80C00DBF8A8
:1014F000041021F01002C0F343410629CBF8042068
:1015000000F06081022940F01E8247F6F07110EA77
:10151000010900F0188200F00F0A40F2A80110F053
:101520003002CAEBCA00C2F20001174601EB80008C
:1015300018BF012730F82C8F18BF4FF0FF3201463B
:1015400051F804CFBAF1010F4FEA991640F09A8191
:1015500008EB1913812B6346C0F0958149F254338F
:10156000C2F200034FF000080B60A0F800808AE18F
:1015700040F2A8004FF6301141F20002C2F2000022
:10158000CFF6FF71C5F200024368545855584FF624
:101590002011CFF6FF7156584FF62811CFF6FF7184
:1015A0005758028841888A422FD06FF3DF44B4FA3B
:1015B00084F4640924EAD3030024C1F6F8742540B6
:1015C000B5FA85F5F6436D0903EAD6732B4003EAB5
:1015D000D713D3B1531A98BF8B1A9AB2B2F5007FC2
:1015E00028BF4FF4007253180027B7EB133F1CBFFE
:1015F0000023C1F580524380C36D48F2F410C2F25B
:101600000000014492B201209847DBF8000000F08E
:101610000800CBF8000021B0BDE8F08F00F4805046
:10162000CBF8000040F2A800C2F2000001214160A6
:10163000DBF800004FF61C0241F200030020CFF659
:10164000FF72C5F200034FF00317CBF800009F5064
:101650004FF61402CFF6FF7209279F504FF6100283
:10166000CFF6FF7299504FF60001CFF6FF715A582E
:1016700022F4FE625A504FF6201148F24002CFF693
:10168000FF71C0F648025A504FF6203148F240022E
:10169000CFF6FF71C8F208425A504FF63031CFF6FC
:1016A000FF715850585840F400205850585840F096
:1016B000400058504FF6401048F20801CFF6FF7036
:1016C000C0F68C01195021B0BDE8F08F41F2000541
:1016D0004FF61800C5F20005CFF6FF702E58F00740
:1016E00016D04FF60818CFF6FF7855F80870F807AF
:1016F00006D040F2A800C2F20000816B00208847AB
:10170000DBF8000000F48020CBF8000045F80870FA
:10171000B00740F16D814FF62816CFF6FF76A85935
:10172000C00700F0658140F2A800C2F20000416DE0
:10173000012001248847DBF8000000F48020CBF86A
:101740000000AC5121B0BDE8F08F00BF00F40020D4
:1017500041F20005CBF800004FF61800C5F2000575
:10176000CFF6FF702E58F00340F140814FF6083855
:10177000CFF6FF7855F80870380740F1248140F221
:10178000A809C2F20009B9F8224001A88021FEF799
:10179000FCFDB9F81C00B0F5106F21DB42F2A0117E
:1017A000884243DCB0F5106F4AD042F221018842F2
:1017B00040F00381D9F83C1042F221008847002410
:1017C000FBE000BF41F20000C5F20000016840F2FA
:1017D000A802C2F20002D16100681062B3E000BF4B
:1017E000B0F5817F00F0EF80B0F5A06F2AD0B0F5A2
:1017F000D06F40F0E280B9F81E00B0F5407FC0F233
:101800006F80A0F54071052900F2A480DFE801F0A7
:1018100004AAB2B8BEC400BF042C28BF0424A2A1ED
:1018200001A82246FEF718FDC7E000BF42F2A11151
:10183000884217D042F22121884208BF0024BCE030
:101840000024BAE04FF60001CFF6FF71B9F81E0090
:101850006A5842EA00106850D9F8040040F00200CB
:101860000DE000BF072C28BF072409F10C0101A8D7
:101870002246FEF736FDD9F8040040F00400C9F80E
:1018800004009AE0634641F200059642C5F2000565
:1018900038D0F219571E032F02F0030E0ED322F098
:1018A000030252422C6804321C602C685C602C6875
:1018B0009C602C68DC6003F11003F3D1BEF1000FD3
:1018C0001FD02A68BEF1010F1A6001D1043318E05D
:1018D0002A68BEF1020F5A6010D1083311E000BF30
:1018E000B0F5807F5ED0B0F5007F6CD145F22C2141
:1018F000432C28BF4324C0F600015AE02A689A60AE
:101900000C330B60BAF1000F4FEA191215D005EB3A
:101910004A13A3F5A06700263E613E6946F40026FF
:101920003E613E6946F040063E614FF60037CFF615
:10193000FF77DE5946F00446DE510CEB02030B60E4
:1019400008EB02010180DBF8040040F01000CBF846
:1019500004004DE0B0F5C06F35D10A2C28BF0A2431
:1019600052A126E045F28421262C28BF2624C0F669
:1019700000011EE02C2C28BF2C2440A119E000BF40
:101980001A2C28BF1A2436A113E000BF162C28BF3A
:1019900016242DA10DE000BF1C2C28BF1C2423A160
:1019A00007E000BF45F27021C0F60001122C28BFED
:1019B000122401A82246FEF794FCD9F8403001A970
:1019C000002022469847F8070ED040F2A800C2F245
:1019D0000000C16B002088474FF60030CFF6FF7043
:1019E000295841F00441295045F80870B00303D448
:1019F00021B0BDE8F08F00BF4FF62834CFF6FF745A
:101A00002E59F0070ED040F2A800C2F20000816DFE
:101A1000012088474FF62030CFF6FF70295841F05B
:101A2000044129502E5121B0BDE8F08F1C03430022
:101A300044004300200049006E00740065007200FD
:101A40006600610063006500160343004400430024
:101A5000200043006F006E00660069006700000010
:101A60001A033400380000004500370034004600F7
:101A70003700360033003000380000002C035300DC
:101A800054004D00330032002000560069007200FF
:101A90007400750061006C00200043006F006D0051
:101AA00050006F0072007400040309040A0600026B
:101AB0000000004001000000B0B5002140F6FF72B8
:101AC00040F6FE7E40F6FD7C836800256FEA5304F5
:101AD0008BB2934238BF01252C4222D084687345D3
:101AE0006FEA54044FF0000538BF01252C4218D08E
:101AF000846863456FEA54044FF0000338BF012344
:101B00001C420ED041F0030384689BB26FEA540478
:101B100093424FF0000338BF01231C4201F104013E
:101B2000D2D1FF21C160002140F6FF7240F6FE7E57
:101B300040F6FD7C83680025DC438BB2934238BFBE
:101B40000125254221D0846873456FEA04044FF0D3
:101B5000000538BF0125254217D0846863456FEA28
:101B600004044FF0000338BF012323420DD041F09D
:101B7000030384689BB2E44393424FF0000338BFF1
:101B80000123234201F10401D4D1C068C0B2B0BD29
:101B900080B54FF0000CC0F800C0C0F804C0D0F809
:101BA00000C0DDF80CE043EA0C0303604368DDF895
:101BB00008C043EA0E03436079B9016841F00401AB
:101BC0000160016841F038010160016841F48071F1
:101BD0000160016841F4007101600168012A41EA75
:101BE0000C010160016821F002010160016821F02F
:101BF0000101016023D1416843F6000241F08001F8
:101C000041604168C4F2000241F040014160416816
:101C1000904241F02001416016D043F60041C4F2E9
:101C2000000188421CD043F20001C4F20101884245
:101C300005D14EF20411CEF2000108220A600168BB
:101C400041F04001016080BD4EF20411CEF200016E
:101C500010220A60016841F04001016080BD00BFB0
:101C60004EF20411CEF200014FF400220A60016826
:101C700041F04001016080BD70B5002240F6FF7365
:101C800040F6FE7C40F6FD7E846800266FEA54052F
:101C900094B29C4238BF0126354222D08568644503
:101CA0006FEA55054FF0000638BF0126354218D0BF
:101CB000856874456FEA55054FF0000438BF01246C
:101CC00025420ED042F003048568A4B26FEA5505A0
:101CD0009C424FF0000438BF0124254202F1040267
:101CE000D2D1C160002140F6FF7240F6FE7340F68B
:101CF000FD7C00BF86688CB2F64394424FF000052D
:101D000038BF0125354221D086689C426FEA06061D
:101D10004FF0000538BF0125354217D0866864456D
:101D20006FEA06064FF0000538BF012535420DD099
:101D300041F003068568B6B2ED4396424FF00006C7
:101D400038BF01262E4201F10401D3D1C068C0B2D0
:101D500070BD0000FFF7B0BE80B582B043F2000056
:101D60004FF0000CC4F20100002100220023CDF846
:101D700000C0CDF804C0FFF70BFF02B080BD00002B
:101D8000FFF77ABF1020C4F201000168C90708BF3D
:101D90007047016821F001010160002172B64161C4
:101DA00049F2D430C2F2000001680131016049F209
:101DB000006162B6C2F200018879012804D0097A74
:101DC000012901D002F066BE012808BFFFF750BB11
:101DD0007047000010B582B01024C4F200042068DF
:101DE000C00742D04FF0804002F094FF206820F0FE
:101DF0000100206049F20064C2F20004E07C022885
:101E000031D049F2D851C2F200010A78402A17D1E4
:101E100046F200444B78C4F20004C21E04F5806010
:101E2000012B02BF044646F20040C4F20000083114
:101E3000022A38BF2046FFF757FAFEF709FE12E0E4
:101E400049F22460C2F2000001F030FA0220E0748E
:101E50004FF0804002F05EFF4FF0FF30019001A88C
:101E6000042100F0C3F8FFF703FB02B010BD00002F
:101E700040F2A800C2F2000041688A075CBF00205F
:101E8000704740F60802C5F2000212684FF6007C67
:101E9000C0F23F0C836802EA0C029A4219BF8260CA
:101EA000022021F00201416008BF012070470000BC
:101EB0002DE9F04381B049F2006840F2D001C2F24E
:101EC00000080646C2F2000198F807004D6A06288D
:101ED000B14621D0012861D1FFF7CAFA02F0F4F926
:101EE0000746B04288BF374602F0E8F929463A462D
:101EF00002F072FA384602F0D3F902F0E5F9002850
:101F000047D1022088F80700012002F0D5FC48469E
:101F100001B0BDE8F08300BFFFF7AAFA02F0E0FCD1
:101F2000074600F03FFFB74298BF3E4656B3C01B7E
:101F3000711E00F58C70032906F0030C13D34FF6C5
:101F4000FC7206EA02030022AF5CA91887544F789E
:101F5000841867708F780432A770C9789342E17053
:101F6000F2D115441044BCF1000F0BD02A78BCF11B
:101F7000010F027006D06978BCF1020F417001D0E8
:101F8000A9788170304602F0B1FC02F0A9FC00286B
:101F9000B7D0484601B0BDE8F08300BF98F8130001
:101FA000022801D0FF280DD140F20006C2F200063F
:101FB0003068032810D1032002F07EFC484601B0AF
:101FC000BDE8F083FFF754FA28464946FEF7FCFCCB
:101FD000484601B0BDE8F0832846494601F03AFC86
:101FE0003060484601B0BDE8F08300002DE9F043C1
:101FF00081B0002940D040F2A809C2F2000905468C
:10200000B9F80070B9F802000C4687421CD14FF4B1
:102010008050A04220D33819B0F5805F20D348F219
:10202000F418C7F58056C2F2000808EB07002946ED
:102030003246FEF711F9A919A21B4046FEF70CF92A
:102040003819A0F5805015E0A7EB000188BFC11B2F
:1020500001F58050A042DED2002001B0BDE8F0833F
:1020600048F2F410C2F20000384429462246FEF736
:10207000F3F83819A9F80000012001B0BDE8F08399
:10208000B0B540F2A80CC0EBC003C2F2000C0CEBE0
:10209000830E734633F82E4F74B9BEF82A40022CD3
:1020A0000AD0DCF80440250706D440F23F2500287A
:1020B00008BF7F25954201D20020B0BD62B11A80D1
:1020C000DEF83820CEF8341044F00801CCF80410C3
:1020D00090470120B0BD00BF40F60011C5F20001DD
:1020E00001EB4012002313614FF4002313611369C5
:1020F00040016FF3120313610B5843F004430B507C
:10210000D2F8000240F00440C2F800020120B0BD45
:102110002DE9F04382B040F2A801C2F200018B8D9C
:1021200033B10A8D012A07D1002002B0BDE8F08347
:10213000012002B0BDE8F08342F2210290424FF04C
:10214000010072D140F6003CC5F2000C0885DCF8B5
:1021500000005A1E40F00060CCF80000086B032A13
:10216000A0EB030803F0030EC1F8308004D2002472
:10217000BEF1000F2AD141E023F00302C2F10009B1
:102180000DF10102551C6FF0030200BF08EB0206BF
:102190005C1E37798C857479A81804719C1EC770F1
:1021A0008C85DF1EB4798F85F6790432447186718F
:1021B00009EB0200043B04308B85E7D108EB0200F9
:1021C000141D00F10408BEF1000F17D098F80000AC
:1021D0000DF101021055581EBEF1010F88850DD07A
:1021E00098F8010022445070981EBEF1020F8885B5
:1021F00004D098F802009070D81E8885BDF80100C0
:102200008A7C8881DDF80300082AC1F80E009DF859
:10221000070008BF1046887400200885DCF800001D
:1022200040F00440CCF80000012002B0BDE8F0838B
:10223000B0B540F2A801C2F20001B1F84420002577
:10224000012A1DD00446B1F84800CA6CA1F84850D4
:10225000121ACA64FFF72CFE40F63030C5F20000B7
:1022600005600168254641F400210160016841F0E4
:102270004001016050F8101C41F0044140F8101C6E
:102280002846B0BD2DE9F04F8CB040F2A809C0EB54
:10229000C001C2F2000909EB8106374637F82A3F30
:1022A000012B0FD11021C5F2000141EA4010D0F8F6
:1022B000F01A41F00441C0F8F01A00200CB0BDE85B
:1022C000F08F00BF314631F82E4F002C00F098807F
:1022D0004FF4007B002840F2100E089108BF4FF029
:1022E000400B402CC5F2000ECDE9067480F0C8808A
:1022F00001223A8004F500210EEB40120491C2F84D
:102300000019D2F8F078410147F004470991C2F86A
:10231000F07856F8343F14F003010D46059618BFC7
:102320004FF0FF35B5EB940F02F50F6640F08A8150
:10233000B56900281A4653D0002744F620644FF0B0
:10234000600C0A970A990131A1420A911CD8B1691F
:10235000A94245D00A990131A1420A9114D8B16924
:10236000A9423DD00A990131A1420A910CD8B16924
:10237000A94235D00A990131A1420A9104D8B16924
:10238000A942DFD12CE000BFDEF81019DEF82019D9
:10239000DEF820193761049901283161316841F074
:1023A00004413160B56918D1102D16D344F6246567
:1023B000CEF800C0043D10D0DEF80010890641BF01
:1023C000DEF800105FEA8161DEF800105FEA8161EB
:1023D00003D5DEF800108906ECD4B5690028B0D129
:1023E0000798059910440860D9F80410089A00204D
:1023F000069B108021F00800C9F80400F5E000BF3A
:10240000400100F1A040022B00F1100040F00281D9
:102410000021C0F800194FF40021C0F80019D0F8CD
:1024200000196FF31201C0F80019D0F8F03800F568
:102430000F6143F00443C0F8F03800BF0B6933B1BB
:102440000A6922B10A6912B10A69002AF6D1D0F8E4
:10245000F03A43F00443C0F8F03AD9F8040020F011
:102460000800C9F8040000203880086840F00060C7
:10247000086008680869086901200CB0BDE8F08FA1
:10248000A34528BFA3461BF03F0103914FEA9B11D0
:102490004FF0010518BF05EB9B114BEAC1410EEB54
:1024A00040143D800291C4F80019D4F8F05841015D
:1024B00045F004450991C4F8F05856F8343F1BF034
:1024C00003021546059618BF4FF0FF35B5EB9B0F7D
:1024D00004F50F66049340F04581B569002856D095
:1024E0004FF0000C44F620644FF06008CDF82CC08B
:1024F0000B9A0132A2420B921CD8B269AA4246D072
:102500000B990131A1420B9114D8B169A9423ED077
:102510000B990131A1420B910CD8B169A94236D077
:102520000B990131A1420B9104D8B169A942DFD1C5
:102530002DE000BFDEF81029DEF82029DEF8202982
:10254000C6F810C0029901283161326842F0044295
:102550003260B56918D1102D16D344F62465CEF833
:102560000080043D10D0DEF80020920641BFDEF866
:1025700000105FEA8161DEF800105FEA816103D537
:10258000DEF800108906ECD4B5690028AED10498B5
:1025900005995844086007980899A0EB0B0008803B
:1025A0006021CEF8001044F6246100BF043910D039
:1025B000DEF80020920641BFDEF800205FEA82626A
:1025C000DEF800205FEA826203D5DEF80020920682
:1025D000ECD4039940F2A809069B0029C2F2000935
:1025E00008BF5FEA004000F0518109987044D0F8BC
:1025F000F01A41F00441C0F8F01AD9F80410002094
:10260000188021F00800C9F8040001200CB0BDE8D2
:10261000F08F00BFD0F8F01A41F00441C0F8F01A72
:10262000D9F8041021F00801C9F8041000213980FC
:10263000D0F8F01841F00061C0F8F01801200CB09B
:10264000BDE8F08FA208002918BF0132551E22F004
:10265000030104030EF57F6702F0030AC1F10009CC
:1026600044F6206C1A462B46D6F81880032B1546E4
:10267000CB460CD3296819F10409395169683951DD
:10268000A9683951E96805F110053951F2D1BAF15B
:10269000000F0BD02968BAF1010FE15106D069682B
:1026A000BAF1020F395101D0A968395140F2A80995
:1026B0000028C2F200093FF493AE00210A910A9962
:1026C000013161450A911FD8B16941453FF488AE97
:1026D0000A99013161450A9116D8B16941453FF423
:1026E0007FAE0A99013161450A910DD8B169414522
:1026F0003FF476AE0A99013161450A9104D8B16977
:102700004145DCD16CE600BFDEF81019DEF8201977
:10271000DEF8201900213161049901283161316806
:10272000D94641F004413160B5699DD1102D9BD34C
:10273000602144F62465CEF80010043D94D0DEF804
:102740000010890690D5DEF80010890644BFDEF837
:1027500000105FEA81617FF587AFDEF8001089061F
:10276000EBD481E74FEA9B05002A18BF0135691EAB
:1027700025F0030204030EF57F68019105F00307BD
:10278000514244F620690091D6F818A00199DDF86D
:1027900000C003291D4610D32A681CF1040C48F818
:1027A00004206A6848F80420AA6848F80420EA6807
:1027B00005F1100548F80420EED16FB12A683B46B8
:1027C000012F44F8082007D06968022B48F804104C
:1027D00002D0A96848F8041000283FF4D8AE0021C0
:1027E0000B910B9A01324A450B921FD8B2695245A0
:1027F0003FF4CDAE0B99013149450B9116D8B16923
:1028000051453FF4C4AE0B99013149450B910DD8A8
:10281000B16951453FF4BBAE0B99013149450B916C
:1028200004D8B1695145DCD1B1E600BF0021DEF822
:102830001029DEF82029DEF82029316102990128CB
:102840003161326842F004423260B569049B9BD129
:10285000102D99D3602144F62465CEF80010043D74
:1028600092D0DEF8002092067FF58EAFDEF80010E1
:10287000890644BFDEF800105FEA81617FF584AF0E
:10288000DEF800108906EAD47EE700BF0220188037
:10289000306830693069002030614FF400203061C9
:1028A00030696FF312003061306840F004403060EE
:1028B000306930B1306920B1306910B13069002819
:1028C000F6D109987044D0F8F01A41F00441C0F8EC
:1028D000F01AD9F8040020F00800C9F8040000201C
:1028E0001880306840F000603060306830693069CE
:1028F00001200CB0BDE8F08F80B540F2A8000C229A
:10290000C2F200000021C5F200020123416042F83A
:10291000043C41F21803C0F20C03D3604FF40413DB
:102920004FF6F44C40F6103ED362CFF6FF7CC5F272
:10293000000E02234EF80C3040F60063C5F200038F
:1029400019604023C4F200031360136823F470532A
:102950001360136843F4C05313602423936124234A
:10296000C0F21003D3613423C0F20C13C2F8F83064
:10297000C2F8FC10C2F80011C2F80411C2F8081124
:10298000C2F80C11C2F81011C2F81411C2F81811D3
:10299000C2F81C11C2F82011C2F82411C2F8281183
:1029A000C2F82C11C2F83011C2F83411CEF8001060
:1029B000DEF8003043F40023CEF80030DEF80030BB
:1029C00043F04003CEF80030DEF8003043F0C0435F
:1029D000CEF800305EF8103C43F004434EF8103C53
:1029E000D2F8F43743F00303C2F8F4374FF0FF3363
:1029F00093605EF80C2042F2852322F002024EF82A
:102A00000C2000F11302026342F21112C0F600031F
:102A1000C0F6000242F2810C49F2543EC0E90E3287
:102A200042F23122C0F6000CC2F2000EC0F60002E3
:102A3000C0E90A11C0E910C1C0E9121EC0F878C08F
:102A40000367C0E91532C0E917C1C0E919114EF298
:102A50004340CEF20000102101704EF20810CEF279
:102A600000000821016080BD0020C4F2020001685E
:102A700021F440010160016841F4000101608168B6
:102A800021F440018160816841F440018160C168A6
:102A900021F44001C160416A41F400514162416A40
:102AA00041F400414162016821F040710160016818
:102AB00041F000710160816821F04071816081689E
:102AC00041F040718160C16821F04071C160416A8C
:102AD00041F400314162416A41F400214162704792
:102AE0004EF60C50BFF34F8FCEF200000168042267
:102AF00001F4E061C0F2FA5211430160BFF34F8F5D
:102B000000BF00BF00BF00BFFAE700004968081A15
:102B1000B0FA80F0400970470021B0F5FA7F04BF99
:102B200040F60331C0F201010846704740F25410EC
:102B3000C2F2000044F248010022425201448A706D
:102B400048F29801425201448A7044F20401425012
:102B50000144C1E9012248F2540142500144C1E953
:102B6000012246F200424FF48041C4F2000242507A
:102B700045F27911C0F6000144F21003C15044F649
:102B80003911C0F6000144F21403C15044F60D118E
:102B9000C0F6000144F24C03C15002F5806148F2D6
:102BA0005002815045F2D111C0F6000148F2600296
:102BB000815044F6A911C0F6000148F26402815028
:102BC00044F67D11C0F6000148F29C028150704726
:102BD000F0B581B004468088012801D1266802E062
:102BE0002088000406BA02F0C1FAA188054601292E
:102BF00002D1276803E000BF2088000407BA02F072
:102C000057FAAE4218BF874233D102F05DFAC007CF
:102C100026D102F065FA054602F056FA800724D55F
:102C200002F04CFA054602F049FA042D18BF0528B7
:102C30006CD102F043FA042872D1E188C9B1481E70
:102C4000032801F0030069D321F0030200214FF0B3
:102C50002C3300BF671804318A42BB60FAD178E098
:102C6000002502F031FA8007DAD42046294602F026
:102C700009FAA088012801D1276802E02088000411
:102C800007BA02F027FA064602F024FA054602F0D7
:102C90006DFAB7420ED185420CD002F015FAC0078A
:102CA00004D102F01DFA014601E000BF00212046D8
:102CB00002F0D8F9A088012806D1256802F0F2F9BF
:102CC000854208D00AE000BF2088000405BA02F05F
:102CD000E9F9854202D1204602F0A8F902F0EEF9A6
:102CE00006280DD002F0EAF90A2809D002F0E6F928
:102CF0000D2805D002F0E2F918281CBF01B0F0BD84
:102D0000204601B0BDE8F04002F09EB9E1880029FC
:102D1000AFD0481E032801F003000FD2002118E0B5
:102D200002F0CCF90528A4D1E1880029A1D0481EE1
:102D3000032801F003001BD2002124E021F003024C
:102D400000214FF02C3300BF671804318A42BB606A
:102D5000FAD100283FF48DAF21442C2201280A72B9
:102D60003FF487AF02284A721CBF2C20887280E78C
:102D700021F0030200214FF09C3300BF671804319B
:102D80008A42BB60FAD100283FF473AF21449C22F1
:102D900001280A723FF46DAF02284A721CBF9C20C2
:102DA000887266E749F63810C2F2000070470000EA
:102DB00049F63810C2F2000070470000704700006A
:102DC0002DE9F04349F20062C2F20002D279022AF0
:102DD0001CBF0120BDE8F08349F6381EC2F2000E88
:102DE000BEF80030002B5FD08288BEF804C0012AF4
:102DF00022D10022012402E00132934254D00EEB92
:102E00008205D5F8C85001290CD00229F4D10668F2
:102E1000AE42F1D104FA02F505EA0C06AE42EBD15E
:102E20003EE000BF0668AE42E6D104FA02F505EACC
:102E30000C06AE42E0D033E0012917D1028800240D
:102E4000120412BA012502E00134A3422CD00EEB89
:102E50008406B6F8C860360436BAB242F4D105FA30
:102E600004F606EA0C07B742EED019E0002201246E
:102E700003E000BF0132934216D00229FAD10EEBD3
:102E80008205B5F8C85006882D0436042DBA36BA26
:102E9000AE42EFD104FA02F505EA0C06AE42E9D1E2
:102EA0000020BDE8F08300BFBEF80230002B00F028
:102EB0007F808288012A3BD1D0F800C0002281F0B7
:102EC000020881F0010904E0BEF8023001329A42A2
:102ED00072D202EB42010EEB8106B1688C45F5D14E
:102EE000BEF80640012101FA02F73C40674057EA6C
:102EF000090762D044EA0804B4FA84F464095CD196
:102F0000C1880029E2D00EEB020303F5847300248C
:102F1000002703E00137FCB2A142D5D91D78E54076
:102F2000ED07F7D035192D7B04442572F2E700BF79
:102F3000028881F00208120492FA82FC002281F0D9
:102F4000010904E0BEF8023001329A4230D202EBAD
:102F500042010EEB81063189090409BA8C45F3D18F
:102F6000BEF80640012101FA02F73C40674057EAEB
:102F7000090722D044EA0804B4FA84F464091CD195
:102F8000C1880029E0D00EEB020303F5847300240E
:102F9000002703E00137FCB2A142D3D91D78E540F8
:102FA000ED07F7D035192D7B04442572F2E700BFF9
:102FB0000120BDE8F08300BF01210846BDE8F08391
:102FC0002DE9F041069E1C4690460D46074600F04E
:102FD0001BFE4021217046F20041C4F200018F42E5
:102FE0004FF0020108BF012161706660696A054601
:102FF00088B2400804F108066080384641463246EF
:10300000FEF7B2F8A87D012813D1A089012805D1C7
:103010003068D5F81710884214D906E03088D5F802
:103020001710000400BA88420CD9D5F81B1088424A
:1030300008D220461821FEF7D9FF002818BF01202A
:10304000BDE8F0810120BDE8F081000040F2A80158
:10305000C2F200014968084018BF01207047000013
:1030600070B504460068013812282BD8DFE800F05C
:103070001A222A2A0A323C442A2A2A2A2A2A2A528C
:103080002A2A0A00204600F02BFB0546204600F0C5
:10309000CBFA0146284601F0ABFCBDE8704000F0D9
:1030A0002BB900BF002001F007FCBDE8704000F024
:1030B00023B900BF00F020F90120BDE8704001F005
:1030C000FBBB00BF022001F0F7FBBDE8704000F041
:1030D00013B900BF204600F0BDF901F0EDFBBDE8DB
:1030E000704000F009B900BF00F06CF901F0E4FB9A
:1030F000BDE8704000F000B9204600F095FA626823
:1031000004F1080101F068F901F0D6FBBDE8704058
:1031100000F0F2B8204600F087FA0546204600F09D
:10312000DFFA40B104460026A81901F0C5F806F5FB
:103130008036A642F8D3012001F0BEFBBDE8704006
:1031400000F0DAB8B0B584B004460068B0F52A6F74
:1031500024DAA0F60120092800F2A080DFE800F0C0
:10316000069E0606060606065A5E00BF0820214691
:10317000FFF7CCFC00284AD004F1080001F0E8FD7C
:10318000216802460846114601F06AFD012001F05F
:1031900093FB04B0BDE8B04000F0AEB840F6063195
:1031A000884215DD40F60731884241D0B0F53A6FCC
:1031B00052D040F6A131884270D14FF48C7001F0AA
:1031C0009FFB49F20060C2F200000621C171DDE7F9
:1031D000B0F52A6F34D0B0F52B6F5FD100F026FD2B
:1031E0006D46044601302946012200F025FDA91C48
:1031F0002046012200F020FDA01C291D062200F01F
:103200001BFD28461021FEF7F1FE00F075F804B012
:10321000B0BD00BF00F0C8FC02E000BF00F0CAFC77
:103220001021FEF7E3FE04B0BDE8B04000F064B842
:10323000204601F0A9FE04B0BDE8B04000F05CB843
:1032400000F0F4FC0446002001F044F82146082276
:1032500001F090F89AE700BF00F0DCFC0546012081
:10326000012401F037F82946232201F083F80128D0
:103270000BD0FFF797FD0446022001F02BF8214602
:103280004FF48C7201F0A8F80446204601F014FBBC
:1032900004B0BDE8B04000F02FB800BF022001F03C
:1032A0000BFB04B0BDE8B04000F026B80021C0F828
:1032B0001013C0E90011C0E96211704791E80C10C9
:1032C000C96880E80C10C1607047000091E80C10DC
:1032D000C96880E80C10C1607047000091E80C10CC
:1032E000C96880E80C10C1607047000049F2B8203E
:1032F000C2F200007047000080B549F2B420C2F26B
:1033000000000021016049F2B820C2F200009C21B7
:10331000FDF73BF8012080BD43F64000C4F20200F7
:1033200050F8101C41F0010140F8101C50F8101C1E
:1033300041F0020140F8101C50F8101C41F08001CF
:1033400040F8101C50F8101C41F0040140F8101C0B
:10335000016841F000710160016841F08061016025
:10336000416841F480514160416841F00101416090
:10337000016841F001010160016841F00201016052
:1033800050F80C1C41F0800140F80C1C016841F021
:1033900080510160416841F4804141602020C4F2C5
:1033A000020001680021016042684160D0F80024F9
:1033B000C0F8001440F22440C4F202000268016028
:1033C0007047000070B51825C4F20205286843F262
:1033D0000004C4F2010440F4801028602046062155
:1033E000FEF7CEFC2868C72140F01000286028684E
:1033F00040F4801028602046FEF7C2FC28680421B3
:1034000040F010002860286840F4801028602046B2
:10341000FEF7B6FC2868022640F01000286000BFC6
:103420002868052140F4801028602046FEF7A8FC9B
:103430002046FEF78FFC2968002E41F0100129601C
:1034400006F1010118BF012630420E46E8D100F016
:10345000010070BD10B50168132909D00922CFF20F
:10346000000291420AD14FF0040C4FF0070E09E020
:103470004FF0040C4FF0030E04E000BF4FF0030CBC
:103480004FF0020E00230022002100BF5FFA8EF4ED
:10349000044494F88C40DB009C4042F00103DBB212
:1034A0009C4541EA04012FD9AEF10104E4B2044481
:1034B00094F88C40DB009C4042F00203DBB29C4558
:1034C00041EA040120D90EF1FE04E4B2044494F868
:1034D0008C40DB009C4042F00303DBB29C4541EA98
:1034E000040111D90EF1FD045FFA84FE00EB0E0415
:1034F00094F88C40DB0004FA03F304321943D3B28E
:103500009C45AEF1010EC1D80846BDE8104000F060
:10351000D3BE0000F0B581B0182643F20004054682
:10352000C4F202060227C4F2010400BF306805217C
:1035300040F4801030602046FEF722FC2046FEF763
:1035400009FC3168002F41F01001316007F10101E1
:1035500018BF012738420F46E8D13068062140F4F1
:10356000801030602046FEF70BFC3068D82140F018
:1035700010003060306840F4801030602046FEF764
:10358000FFFBC5F307412046FEF7FAFBC5F3072111
:103590002046FEF7F5FBE9B22046FEF7F1FB306866
:1035A000042140F010003060306840F4801030603A
:1035B0002046FEF7E5FB3068022540F01000306041
:1035C0003068052140F4801030602046FEF7D8FBBB
:1035D0002046FEF7BFFB3168002D41F0100131603D
:1035E00005F1010118BF012528420D46E8D1022549
:1035F0003068052140F4801030602046FEF7C0FBA3
:103600002046FEF7A7FB3168002D41F01001316024
:1036100005F1010118BF012528420D46E8D100F04F
:10362000010001B0F0BD000010B50168132909D0F8
:103630000922CFF2000291420AD14FF0040C4FF060
:10364000070E09E04FF0040C4FF0030E04E000BF3A
:103650004FF0030C4FF0020E00230022002100BFA8
:103660005FFA8EF4044494F88C40DB009C4042F0F6
:103670000103DBB29C4541EA04012FD9AEF10104FC
:10368000E4B2044494F88C40DB009C4042F0020316
:10369000DBB29C4541EA040120D90EF1FE04E4B2FC
:1036A000044494F88C40DB009C4042F00303DBB2FE
:1036B0009C4541EA040111D90EF1FD045FFA84FE34
:1036C00000EB0E0494F88C40DB0004FA03F30432A0
:1036D0001943D3B29C45AEF1010EC1D8084610BDC6
:1036E000016813290ED1B0F8921090F891200904C6
:1036F00009BA41EA0241903018220078904008430C
:10370000704700BFB0F890108F30090409BA10223A
:1037100000789040084370472DE9F04381B0002ABB
:1037200000F08C800446D0F8100315468946C10786
:103730001CD1010740D4C00640F1808020682F468C
:10374000C0F5B478A84538BF474647B12044083093
:1037500049463A46FCF780FD206838442060A84579
:1037600042D3C0F5B47001B0BDE8F0832068D0F555
:10377000B47643D02F462044AE4238BF3746083097
:1037800049463A46FCF768FD2168D4F88801394477
:10379000AE42216047D2D0F5B47144D0ED1BA942AE
:1037A00038BF0D46002D3ED004F5C472104409EB1D
:1037B000070108302FE000BFD4F888012F46C0F57C
:1037C000B478A84538BF474667B104F5C4710844CA
:1037D000083049463A46FCF73FFDD4F888013844A2
:1037E000C4F88801A845BCD20020C4F81003C4E97D
:1037F0000000C4E9620001B0BDE8F083D4F888019C
:10380000C0F5B471A94238BF0D4665B104F5C47165
:103810000844083049462A46FCF71EFDD4F88801C2
:103820002844C4F88801B0F5B47F0BD1D4F8100354
:1038300040F00A0020F00100C4F81003002001B09D
:10384000BDE8F08321680844C0F5347001B0BDE8DC
:10385000F08300002DE9F04749F2B428C2F20008D5
:10386000D8F800900D46B9F1BF0F824610D149F249
:10387000B8204FF00009C2F200009C21C8F8009067
:10388000FCF783FD28040CD10120BDE8F08700BFC0
:1038900009EB0500291ABF2888BFA1F140052804BB
:1038A000F2D049F2F410C2F2000000EB090100204E
:1038B000AAB2002343F001051AF80060EDB2AA4253
:1038C0000E541FD90AEB000543F002046F78E4B2EE
:1038D0000E18A24277701DD943F00304AF78E4B20A
:1038E000A242B7701ED9EF780433F770DFB2BA4244
:1038F00000F10400DED84844C8F800000120BDE80B
:10390000F08700BF48440130C8F800000120BDE83E
:10391000F08700BF48440230C8F800000120BDE82D
:10392000F08700BF48440330C8F800000120BDE81C
:10393000F0870000B0B540F20005C2F2000528682B
:10394000012805D10320286000F038F8022803D1AF
:1039500002202860B0BD00BF0446FFF7C7FC0CB3CF
:103960000168B1F52A6F17D140F29801C2F2000147
:10397000802249F200640A70C2F2000461780129D1
:103980000AD102216170E17000F01EFE012060701A
:10399000E07002202860B0BD00F016FE0220286012
:1039A000B0BD00BF40F29800C2F2000010210170CB
:1039B000FFF7A2FC02202860B0BD00002DE9F04115
:1039C00049F2B420C2F20000016849F2F415FF2266
:1039D0000026C2F200050023002705E09F1E00BF5D
:1039E0000133DEB2B1420BD3741914F8014C402CF0
:1039F000F6D1AE5D452EF1D0532E08BF5A1CEFE72D
:103A0000D4B2FEB2A64235D9301B072828DB285D88
:103A1000232825D0402823D02819417823291FD0D6
:103A200040291DD0817823291AD0402918D0C17887
:103A3000232915D0402913D00179232910D04029FA
:103A40000ED0417923290BD0402909D0817923292F
:103A500006D0402904D0C179232901D040291BD1A7
:103A600049F2B820C2F20000012101600220BDE845
:103A7000F08100BFC0293CBF0220BDE8F0810024D6
:103A8000046049F2B820C2F200009C21FCF77DFCE2
:103A90002046BDE8F08100BF01F05AF949F2B8288C
:103AA00004F10801C2F20008B142C8F8000084BF66
:103AB0000120BDE8F08104F10907012408E000BFFE
:103AC00012F8011C212921D0781E0137B042DFD223
:103AD000EA1912F8030C2328F2D1D8F8880010282C
:103AE00058D212F8021C12F8010C01F009FAD8F8A9
:103AF0008810414481F88C00D8F888000130C8F85B
:103B00008800781E0137B042E2D3C1E712F8051CE5
:103B100012F8063C090441EA03610023C4F23F03A2
:103B20001940994236D112F8041C01F0E9F9811BC1
:103B300039440129C8F804002CD188B308F10800E1
:103B4000394601246A5C4B1C0270D8F804203A44C0
:103B5000013A934224D86A1853788E1C4370D8F8DF
:103B600004303B44013B9E421AD89378CE1C8370AC
:103B7000D8F804303B44013B9E4211D8D27804313E
:103B8000C270D8F8042004303A44013A9142D9D99D
:103B90007EE700BF0120C8F800000220BDE8F081E8
:103BA0000120BDE8F081000040F20400C2F20000F4
:103BB0007047000040F21400C2F20000704700009D
:103BC000D0F810130A0707D4C90652BF002000F529
:103BD000C6700068704700BF04300068704700007E
:103BE000D0F810130A0709D4C9065CBF4FF4C0709F
:103BF00070470068C0F5B470704700BF00F5C4702E
:103C00000068C0F5B470704749F20060C2F200006D
:103C10007047000049F20060C2F2000070470000E7
:103C200049F2D430C2F200000068704749F65020D3
:103C3000C2F20000704700002DE9F047002A00F0B2
:103C40009880531E032B02F0030C07D200234FF081
:103C5000000ABCF1000F72D18BE000BF22F003021A
:103C6000C2F1000E00F101084FF0000A6FF00304EA
:103C70004FF0370908EB0406F77804343B0930337A
:103C80009F2F88BF09EB17135FFA8AF7CB55F3789C
:103C900047F0010503F00F0303F13002092B88BF41
:103CA00003F137024A55327947F0020315093035DE
:103CB0009F2A88BF09EB1215CD54327947F00303D0
:103CC00002F00F0202F13005092A88BF02F1370520
:103CD000CD54727947F00403150930359F2A88BF07
:103CE00009EB1215CD54727947F0050302F00F026B
:103CF00002F13005092A88BF02F13705CD54B279A7
:103D000047F00603150930359F2A88BF09EB1215C5
:103D1000CD54B27947F0070302F00F0202F13005EB
:103D2000092A88BF02F137050EEB04020AF1080ADE
:103D30000432CD549ED1231DBCF1000F19D0C65CB6
:103D40003727350930359F2E88BF07EB16155FFAE8
:103D50008AF68D55C55C46F0010605F00F0505F1A4
:103D60003004092D88BF05F13704BCF1010F8C55D3
:103D700002D1BDE8F08700BF184442780AF102037F
:103D8000160930369F2A88BF07EB1216DAB28E5416
:103D9000437842F0010203F00F0303F13007092BCF
:103DA00088BF03F13707BCF1020F8F5408BFBDE88D
:103DB000F08782780AF104031709303737269F2AE3
:103DC00088BF06EB1217DAB28F54807842F00102F6
:103DD00000F00F0000F13003092888BF00F137031D
:103DE0008B54BDE8F087000049F65021C2F2000173
:103DF00008884FF06432192824BF00200880002072
:103E0000488040F6FF7043F2DD23C0F6000343F222
:103E1000BD2CC1E9012043F2CD22C0F6000CC1E95E
:103E20000300C1E90503C0F600020020C1E9073C18
:103E30004A62704780B5FEF7B5FF0078FF2818BFCB
:103E400080BDFEF7AFFF4FF48C71FCF77CFA80BDAC
:103E500049F20061C2F20001AFF300802DE9F041A8
:103E600049F20060C2F20000407B012812D0022813
:103E70003AD14FF4FA70FEF74FFE04464FEA10288D
:103E8000060C070E4FF4FA70FEF746FE030A010C0B
:103E9000050E39E0487A8A7ACB7A00280F7B18BF62
:103EA0000138002A18BF013A002BC4B218BF013BE9
:103EB000002F18BF013F887B5FFA82F8002818BFE7
:103EC0000138CA7BDEB2002A18BF013A0D7CD3B29A
:103ED000002D18BF013D4A7CFFB2C0B2E9B2002AF2
:103EE00018BF013AD5B20FE04FF4FA70FEF714FE96
:103EF00004464FEA1028060C070E4FF4FA70FEF73E
:103F00000BFE030A010C050EF2B2E6B21B0268F3C7
:103F10000F269BB2C0B246EA0242C9B2184442EA36
:103F2000076240EA014040EA05611046BDE8F04101
:103F3000FCF76EBE0020C4F20200D0F8001421F499
:103F40004041C0F80014D0F8081421F44041C0F8F2
:103F5000081440F20C41C4F202010A6822F4404203
:103F60000A60D0F8002442F48042C0F800240A68B5
:103F700042F400420A604A6942F080524A614A694A
:103F800042F080424A61026822F440320260826854
:103F900022F440328260C26822F44032C260026879
:103FA00042F480320260826942F480728261D0F809
:103FB000002422F00C02C0F80024D0F8082422F0DB
:103FC0000C02C0F808240A6822F00C020A600A6891
:103FD00042F004020A60D0F8082442F00C02C0F853
:103FE0000824CA6842F40002CA60016821F44071E2
:103FF0000160816821F440718160C16821F44071E1
:10400000C160016841F480710160016A41F480314E
:104010000162016A41F480210162816941F010016D
:104020008161016821F440610160816821F440618F
:104030008160C16821F44061C160016841F40061A0
:104040000160816841F440618160016A41F480113E
:104050000162016A41F480010162016821F440516A
:104060000160816821F440518160C16821F44051B0
:10407000C160016841F400510160816841F4405120
:104080008160016A41F080710162016A41F08061E2
:104090000162016821F440410160816821F44041DE
:1040A0008160C16821F44041C160016841F4004170
:1040B0000160816841F440418160016A41F08051B2
:1040C0000162016A41F080410162704749F200607B
:1040D000C2F200004178FF290ED0C1780222C271DD
:1040E000C27440F202220129A0F805200FD0FF2956
:1040F00012D10121C1700AE00121C170022140F2F8
:104100000222417342820170C171A0F80520012191
:104110004170022101710172417D07220D39F2299E
:10412000027524BF0D214175817DFF2904BF022145
:104130008175704701460120C1F8100300224FF439
:104140003470C1E90022C1F88821C1F88C21704780
:10415000FDF7F0F8012800F08380002000F0D2FC89
:10416000FFF7DAF872B6FFF7E5FEFDF7F5FD01207F
:10417000012500F0AFF849F20061C2F200012322EC
:1041800000F0BEF8FFF7A2FF022000F0A3F80446FB
:10419000FEF70EFE014620464FF48C7200F0B0F898
:1041A000FFF748FE002000F095F80446FFF73EFDBB
:1041B00001462046082200F0A3F8FFF715FE01286B
:1041C00003D141F6FF70FDF75BF900F077FFFFF7D1
:1041D0003FFE4EF20010CEF200004FF4801101605D
:1041E000702180F814134EF219428560CEF200025D
:1041F00082F827104FF000710160B02111704FF06C
:10420000805101606020D070FEF72EFCFEF774FB39
:10421000182062B6C4F202000168002241F48071E5
:104220000160C4F2010241F2707044F61F6100F0B7
:104230004FFD40F22404C2F20004FF2504E000BF59
:10424000FFF778FB00F00EF800F022FC256000BFBD
:104250002068411E00282160F2D000F03BF9F7E70A
:10426000FEF73EFC40F29800C2F2000001780029FF
:1042700008BF704741784A1C4270007881420ED1D5
:104280001820C4F2020050F8042C0168D20542BF85
:1042900041F080710160704741F4807101607047A6
:1042A00040F29C01C2F20001D1E900230244181A35
:1042B000C1E9002070470000FFF72CB940F29C00D4
:1042C000C2F200000068704740F29C00C2F2000099
:1042D000406870470138C1B205298FBF002040B245
:1042E00001A151F820007047000001000002010008
:1042F00000000200FCFF020000000300FCFF0300BE
:10430000AAB32DE9F04140F21808C4F202080746AA
:10431000D8F8000043F20005C4F2010540F4801013
:104320000E46C8F80000284603211446FDF728FD74
:10433000C7F307412846FDF723FDC7F307212846A9
:10434000FDF71EFDF9B22846FDF71AFD013E00BF3C
:104350002846FDF7FFFC013C06F8010FF8D1D8F81C
:10436000000040F01000C8F80000BDE8F041002057
:104370007047000070B514460D460646FFF7CAF8B0
:10438000012804BF012070BDB4F5807F10D900BFA3
:10439000304629464FF4807200F010FAA4F580747C
:1043A00006F58076B4F5807F05F58075F0D800E0DD
:1043B00024B130462946224600F000FA002070BDA4
:1043C00040F29C01C2F200010860704740F29C017B
:1043D000C2F200014860704770B514460D46B2F550
:1043E000807F064610D900BF304629464FF48072C0
:1043F00000F0E4F9A4F5807406F58076B4F5807FCA
:1044000005F58075F0D800E024B1304629462246F3
:1044100000F0D4F9002070BD10B50C46D1F810138F
:104420000A0723D4CA0634D5D4E962329B1A182B62
:1044300042D304F5C471114408311822FBF70CFF74
:10444000D4E9621000F11802881AC4F88C211ED138
:104450000020C4E96200D4F81003012161F3C40014
:10446000C4F810034FF4B47010BD00BFD4E900329B
:104470009B1A182B20D3A11808311822FBF7ECFE49
:10448000D4E9001000F11802881A626004D00130EB
:1044900010D0002010BD00BF0020C4E90000D4F8F7
:1044A0001003022161F3C400C4F810034FF4B47088
:1044B00010BD00BFD4F81013080707D4C80652BFB8
:1044C0000020D4F88801C0F5B47010BD2068C0F594
:1044D000B47010BDF0B581B040F25416C2F20006BF
:1044E00044F24C0030588047B0F5806F1CD04FF438
:1044F00080403058816811F0E05F15D0816844F247
:104500004802C1F3016571198B5C114493B3022217
:104510000A7006EB051144F218020A442946FCF71A
:104520005BFE012401E000BF002448F29C003058EB
:104530008047B0F5806F1AD048F25000305881683B
:1045400011F0E05F13D0816848F29802C1F3016571
:1045500071198B5C11440BB302220A7006EB051132
:1045600048F268020A442946FCF736FE0134204628
:1045700001B0F0BD44F214003258012428460C70FA
:1045800090474FF48040305806EB051144F2180272
:104590000A442946FCF720FEC7E700BF0120087047
:1045A00048F264003158284606EB0517884748F260
:1045B0005000305848F268017A182946FCF70CFE82
:1045C0000134204601B0F0BD80B501684A0A042AD2
:1045D00004D8BDE88040FEF743BD00BF8A0A022A26
:1045E00004D8BDE88040FEF7ADBD00BFB1F1704F0B
:1045F00004D3BDE8804000F00DB800BF40F23000A9
:10460000C2F200000421FDF7F1FCBDE88040FEF796
:1046100073BE00002DE9F04381B00446006840F607
:10462000AF31CFF2000188421CDC40F20808CFF223
:10463000000840F209094045CFF200092ED0484554
:1046400054D040F6B021CFF20001884246D1FFF7A6
:10465000EDFA0821FDF7CAFC01B0BDE8F043FEF712
:104660004BBE00BF40F6B031CFF2000188422BD0E4
:1046700040F6B131CFF2000188425FD040F6B2314E
:10468000CFF20001884229D1FEF78CFB0421FDF70F
:10469000ADFC01B0BDE8F043FEF72EBEB4F89000CB
:1046A0001021000407BA04F18F000078884057EA0F
:1046B00000052BD1022000F0FFF8FEF71DFE20467A
:1046C000FEF7B2FF06462EE0FFF7A4FA2321FDF71E
:1046D0008DFC01B0BDE8F043FEF70EBE022000F0F5
:1046E000EBF801B0BDE8F043FEF706BEB4F8920067
:1046F00094F89110000400BA40EA014704F19000D8
:1047000018210078884057EA0005D3D02046FEF7EC
:104710008BFF0646C0F50010A84204D2002000F02E
:10472000CBF8FEF7E9FD206848451DD0404530D163
:1047300004F192000078D8B92BE000BFFEF732FBFD
:1047400004460220FEF782FC0220FEF77FFCC00731
:104750003FF482AF20464FF48C71FDF747FC01B067
:10476000BDE8F043FEF7C8BD04F19400007880B1C5
:10477000B8B2002818BF012000EB154149B1290C3F
:104780000F1834462046FFF797FD013F04F58034AB
:10479000F8D149F20060C2F200000121C17128463F
:1047A000FFF714FE3046FFF70BFE012000F084F8FF
:1047B00001B0BDE8F043FEF79FBD00002DE9F043D6
:1047C00081B0182643F20004154688468146C4F29B
:1047D00002060227C4F201043068052140F480106B
:1047E00030602046FDF7CCFA2046FDF7B3FA316879
:1047F000002F41F01001316007F1010118BF0127BE
:1048000038420F46E8D13068062140F4801030600D
:104810002046FDF7B5FA3068022140F01000306004
:10482000306840F4801030602046FDF7A9FAC9F3E3
:1048300007412046FDF7A4FAC9F307212046FDF7FA
:104840009FFA5FFA89F12046FDF79AFA4DB1A8F177
:10485000010700BF17F8011F2046FDF791FA013D3F
:10486000F8D13068042140F010003060306840F426
:10487000801030602046FDF783FA3068022540F052
:10488000100030603068052140F480103060204610
:10489000FDF776FA2046FDF75DFA3168002D41F00C
:1048A0001001316005F1010118BF012528420D46B4
:1048B000E8D101B0BDE8F083032899BF04A151F805
:1048C000200040F23000C2F200000421FDF78EBB50
:1048D0002C000020340000203000002028000020A0
:1048E00049F67820C2F200000068704749F6782146
:1048F000C2F200010A68101A38BF00200860704731
:1049000049F67821C2F200010860704740F2541164
:10491000C2F2000144F2040044F20602085A895A25
:10492000814204BF4FF480607047A0EB010088BF54
:1049300000F5806070470000B0B540F2541EC2F22E
:10494000000E44F2040C3EF80C300EEB00105A1C22
:1049500091B2B1F580614FEA031518BF11465EF8B8
:10496000055044F218020EEB0313855004338418EB
:104970000DCB04340DC42EF80C10B0BD40F2541110
:10498000C2F2000148F2540048F25602085A895A0D
:10499000814204BF4FF480607047A0EB010088BFE4
:1049A00000F580607047000070B540F2541EC2F2FE
:1049B000000E48F2540C3EF80C3044F25002591CE0
:1049C0008CB27244B4F580644FEA031618BF0C46EB
:1049D000965902EB001044F2180102EB0312465004
:1049E0000432451807CA2B1D07C32EF80C4070BDB2
:1049F000F0B581B000260446450AB6EB502F4FF0C3
:104A00000200009118BF0125FEF720FB28421FD0AD
:104A100049F2D835C2F20005009829464FF40072D9
:104A2000FFF76EFC28464FF40071FDF7DFFA28B35C
:104A30000098A4F5007400F500700090670A022049
:104A4000B6EB542F18BF0127FEF700FB3842E3D125
:104A500025460220002C18BF0125FEF7F7FA284250
:104A60000CD049F2D8350098C2F2000529462246FA
:104A7000FFF746FCA1B22846FDF7B8FA01B0F0BD39
:104A80000021416249F2D430C2F200000160704757
:104A90007047000080B5FDF7EBF9012810D088B110
:104AA000FCF7E6FC40F29800C2F200000078B0B9D2
:104AB0001820C4F20200016841F080710EE000BFCE
:104AC000FCF7D6FC40F29800C2F20000007830B942
:104AD0001820C4F20200016841F48071016046F2BE
:104AE0001840C4F200000168D0F80024114311F00E
:104AF000700F03D00068400658BF80BDBDE88040FD
:104B0000FCF7B6BC032888BF704743F60C41C4F2DB
:104B100002018A68C2F38102824201D1704700BF5C
:104B20000A68D20341BF0A685FEAC2320A685FEAD4
:104B3000C23202D50A68D203F2D440F22312C4F280
:104B4000675241F8082C48F6AB12CCF6EF5241F808
:104B5000082C00BF0A68D20341BF0A685FEAC2326C
:104B60000A685FEAC23202D50A68D203F2D442F67A
:104B70003B22C0F6190241F8042C46F67F62C4F6C7
:104B80005D4241F8042C00BF0A68D20341BF0A68A5
:104B90005FEAC2320A685FEAC23202D50A68D2030B
:104BA000F2D48A6822F00C028A6000BF0A68D2033D
:104BB00041BF0A685FEAC2320A685FEAC23202D5C0
:104BC0000A68D203F2D48A6800F03F0042EA80000B
:104BD000886000BF0868C00341BF08685FEAC03052
:104BE00008685FEAC03002D50868C003F2D488685C
:104BF00040F00200886000BF0868C00341BF086839
:104C00005FEAC03008685FEAC03002D50868C003B8
:104C1000F2D4886840F00100886000BF0868C003D3
:104C200041BF08685FEAC03008685FEAC03002D55B
:104C30000868C003F2D4486840F000404860086843
:104C4000C0037FF56BAF0868C00344BF08685FEA24
:104C5000C0307FF563AF0868C003F0D45EE70000A2
:104C600010B5A0F60120072888BF10BD0C46DFE86C
:104C700000F00F2D151B2127050500BF00F024FAB9
:104C800020EA14202043C0B2BDE8104000F056BA1C
:104C9000A0B20221BDE8104000F02EBAE0B2BDE89B
:104CA000104000F057BA00BFE0B2BDE8104000F07D
:104CB0004BBA00BFE0B2BDE8104000F017BA00BF29
:104CC000E0B2BDE8104000F04BBA00BF10BD0000DC
:104CD00090620020D1625062106840F08000106045
:104CE000106840F004001060106820F002001060AE
:104CF000506840F020005060506940F00100506161
:104D0000D06840F00100D060106840F001001060F1
:104D100070470000016821F001010160C16821F0C5
:104D20000101C1607047000080B549F22460C2F201
:104D30000000FEF7BBFA49F20061C2F20001022254
:104D40004FF08040CA74BDE88040FFF7E3BF000029
:104D5000F0B5C179A1F1300C5FFA8CF20A2A10D3B8
:104D6000A1F16102D2B2052A02D8A1F1570C08E0E4
:104D7000A1F14102D2B24FF0FF3C062A38BFA1F1A7
:104D8000370C8179A1F1300E5FFA8EF20A2A10D326
:104D9000A1F16102D2B2062A02D2A1F1570E08E0B7
:104DA000A1F14102D2B24FF0FF3E062A38BFA1F175
:104DB000370E4179A1F13003DAB20A2A11D3A1F1F9
:104DC0006102D2B2062A03D2A1F1570309E000BF63
:104DD000A1F14102D2B24FF0FF33062A38BFA1F150
:104DE00037030279A2F13001CCB20A2C11D3A2F11F
:104DF0006101C9B2062903D2A2F1570109E000BF3F
:104E0000A2F14101CCB24FF0FF31062C38BFA2F124
:104E10003701C478A4F13002D5B20A2D11D3A4F120
:104E20006102D2B2062A03D2A4F1570209E000BF00
:104E3000A4F14102D5B24FF0FF32062D38BFA4F1E4
:104E400037028578A5F13004E6B20A2E11D3A5F118
:104E50006104E4B2062C03D2A5F1570409E000BFB7
:104E6000A5F14104E6B24FF0FF34062E38BFA5F19C
:104E700037044678A6F13005EFB20A2F11D3A6F118
:104E80006105EDB2062D03D2A6F1570509E000BF7A
:104E9000A6F14105EFB24FF0FF35062F38BFA6F15E
:104EA00037050678A6F13000C7B20A2F11D3A6F154
:104EB0006100C0B2062803D2A6F1570009E000BF86
:104EC000A6F14100C7B24FF0FF30062F38BFA6F160
:104ED00037005FFA8EF75FFA8CF6DBB246EA071707
:104EE000C9B247EA0323D2B243EA0131E4B241EA4C
:104EF000024141EA045141EA056141EA0070F0BD16
:104F0000A0F13002D3B20A2B08D2A1F13000C3B213
:104F10000A2B1FD242EA0010C0B27047A0F1610212
:104F2000D2B2052A08D8A0F15702A1F13000C3B2CD
:104F30000A2BEFD30EE000BFA0F14102D3B24FF035
:104F4000FF32062B38BFA0F13702A1F13000C3B207
:104F50000A2BDFD3A1F16100C0B2052806D8A1F168
:104F6000570042EA0010C0B2704700BFA1F14100F3
:104F7000C3B24FF0FF30062B38BFA1F1370042EA31
:104F80000010C0B27047000070B50546D0F8880028
:104F9000042815D12846FEF747FB232810D895F89A
:104FA0008F5049F2006604460828C2F200060DD16F
:104FB000022D0BD0F07C022813D00220F07410E0F8
:104FC0000020BDE87040FFF777BC00BF132C1FD155
:104FD000022D1DD0307A02281AD002203072FFF73D
:104FE000A3FE3555082C09D0132C09D1022D08BF7A
:104FF00070BDBDE87040FBF701BD00BF70BD00BFD4
:105000000120FFF759FCBDE87040FEF775B900BFFD
:10501000601F01283555E5D8012DE3D10020C4F2E9
:105020000100BDE87040FFF72BBD000080B584B0E3
:1050300049F65021C2F200010B6A8A79014668469E
:10504000984704B080BD000080B584B049F6502177
:10505000C2F200014B6ACA7901466846984704B01B
:1050600080BD000080B584B00B4649F65021C2F2E5
:105070000001D1F81CC00A7901466846E04704B037
:1050800080BD000080B584B00B4649F65021C2F2C5
:105090000001D1F818C00A7901466846E04704B01B
:1050A00080BD000049F65020C2F2000080797047B0
:1050B00049F65020C2F20000C068704749F65020FF
:1050C000C2F200000088704749F65020C2F200008A
:1050D000C078704749F65020C2F20000006970475E
:1050E00049F65020C2F200004079704749F650213D
:1050F000C2F200018871704749F65021C2F20001E6
:105100000880002043F2DD23488040F6FF704FF016
:105110006432C0F6000343F2BD2CC1E90120C1E9AD
:105120000300C1E9050343F2CD20C0F6000CC0F630
:105130000000C1E9073C48627047000049F6502171
:10514000C2F20001C870704749F65021C2F2000156
:105150004871704749F65021C2F20001087170474A
:1051600049F65021C2F20001C871704749F650203B
:10517000C2F200008068704770B540F2541EC2F25F
:10518000000E44F2060C3EF80C20511C8BB2B3F515
:10519000806318BF0B4644F204013EF801109CB234
:1051A0008C4207D144F208005EF8001001314EF83D
:1051B000001070BD90E87000C0680EEB0211120183
:1051C0004EF80240C1E90156C8602EF80C3070BD9F
:1051D000F0B540F2541EC2F2000E48F2560C3EF8F2
:1051E0000C20511C8BB2B3F5806318BF0B4648F2FC
:1051F00054013EF801109CB28C4207D148F258008D
:105200005EF8001001314EF80010F0BD0EEB0211F7
:1052100044F2500290E8E000C0688C188D50C4E958
:105220000167E0602EF80C30F0BD00000902430079
:10523000020100C03209040000010202010005243D
:1052400000100105240100010424020205240600C7
:10525000010705820308001009040100020A00008A
:105260000007050102400000070581024000000020
:1052700012010002020200408304405700020102B2
:10528000030100002603530054004D006900630031
:1052900072006F0065006C006500630074007200AE
:1052A0006F006E006900630073000000D0520008B8
:1052B0000000002038000000C0010008085300086A
:1052C0003800002048A00000DC01000800000000B9
:1052D0000200000076312E32302E30332E32342E42
:1052E00030303030416C6C696761746F725F32438B
:1052F000414E5F31FF0000002442532424455224D4
:0853000024444C24244F4B24EB
:040000050800018569
:00000001FF
